{"contracts/AgroAIToken.sol":{"AgroAIToken":{"abi":[{"inputs":[],"stateMutability":"nonpayable","type":"constructor"},{"anonymous":false,"inputs":[{"indexed":true,"internalType":"address","name":"owner","type":"address"},{"indexed":true,"internalType":"address","name":"spender","type":"address"},{"indexed":false,"internalType":"uint256","name":"value","type":"uint256"}],"name":"Approval","type":"event"},{"anonymous":false,"inputs":[{"indexed":true,"internalType":"address","name":"minter","type":"address"}],"name":"AuthorizedMinterAdded","type":"event"},{"anonymous":false,"inputs":[{"indexed":true,"internalType":"address","name":"minter","type":"address"}],"name":"AuthorizedMinterRemoved","type":"event"},{"anonymous":false,"inputs":[{"indexed":true,"internalType":"address","name":"user","type":"address"},{"indexed":false,"internalType":"uint256","name":"bonus","type":"uint256"},{"indexed":false,"internalType":"string","name":"disease","type":"string"},{"indexed":false,"internalType":"bool","name":"isEarlyDetection","type":"bool"}],"name":"DiseaseDetectionRewarded","type":"event"},{"anonymous":false,"inputs":[{"indexed":true,"internalType":"address","name":"previousOwner","type":"address"},{"indexed":true,"internalType":"address","name":"newOwner","type":"address"}],"name":"OwnershipTransferred","type":"event"},{"anonymous":false,"inputs":[{"indexed":false,"internalType":"address","name":"account","type":"address"}],"name":"Paused","type":"event"},{"anonymous":false,"inputs":[{"indexed":true,"internalType":"address","name":"user","type":"address"},{"indexed":false,"internalType":"uint256","name":"reward","type":"uint256"},{"indexed":false,"internalType":"uint256","name":"photoNumber","type":"uint256"}],"name":"PhotoRewarded","type":"event"},{"anonymous":false,"inputs":[{"indexed":true,"internalType":"address","name":"user","type":"address"},{"indexed":false,"internalType":"uint256","name":"amount","type":"uint256"},{"indexed":false,"internalType":"uint256","name":"discount","type":"uint256"},{"indexed":false,"internalType":"uint256","name":"cashback","type":"uint256"}],"name":"PurchaseProcessed","type":"event"},{"anonymous":false,"inputs":[{"indexed":true,"internalType":"address","name":"referrer","type":"address"},{"indexed":true,"internalType":"address","name":"referred","type":"address"},{"indexed":false,"internalType":"uint256","name":"reward","type":"uint256"}],"name":"ReferralRewarded","type":"event"},{"anonymous":false,"inputs":[{"indexed":true,"internalType":"address","name":"user","type":"address"},{"indexed":false,"internalType":"uint256","name":"oldTier","type":"uint256"},{"indexed":false,"internalType":"uint256","name":"newTier","type":"uint256"}],"name":"TierUpdated","type":"event"},{"anonymous":false,"inputs":[{"indexed":true,"internalType":"address","name":"from","type":"address"},{"indexed":true,"internalType":"address","name":"to","type":"address"},{"indexed":false,"internalType":"uint256","name":"value","type":"uint256"}],"name":"Transfer","type":"event"},{"anonymous":false,"inputs":[{"indexed":true,"internalType":"address","name":"user","type":"address"},{"indexed":false,"internalType":"uint256","name":"bonus","type":"uint256"},{"indexed":false,"internalType":"string","name":"treatmentId","type":"string"}],"name":"TreatmentSuccessRewarded","type":"event"},{"anonymous":false,"inputs":[{"indexed":false,"internalType":"address","name":"account","type":"address"}],"name":"Unpaused","type":"event"},{"inputs":[],"name":"CASHBACK_RATE","outputs":[{"internalType":"uint256","name":"","type":"uint256"}],"stateMutability":"view","type":"function"},{"inputs":[],"name":"DISCOUNT_RATE","outputs":[{"internalType":"uint256","name":"","type":"uint256"}],"stateMutability":"view","type":"function"},{"inputs":[],"name":"DISEASE_BONUS","outputs":[{"internalType":"uint256","name":"","type":"uint256"}],"stateMutability":"view","type":"function"},{"inputs":[],"name":"EARLY_DETECTION_BONUS","outputs":[{"internalType":"uint256","name":"","type":"uint256"}],"stateMutability":"view","type":"function"},{"inputs":[],"name":"HEALTHY_BONUS","outputs":[{"internalType":"uint256","name":"","type":"uint256"}],"stateMutability":"view","type":"function"},{"inputs":[],"name":"INITIAL_SUPPLY","outputs":[{"internalType":"uint256","name":"","type":"uint256"}],"stateMutability":"view","type":"function"},{"inputs":[],"name":"MAX_SUPPLY","outputs":[{"internalType":"uint256","name":"","type":"uint256"}],"stateMutability":"view","type":"function"},{"inputs":[],"name":"PHOTO_REWARD","outputs":[{"internalType":"uint256","name":"","type":"uint256"}],"stateMutability":"view","type":"function"},{"inputs":[],"name":"REFERRAL_REWARD","outputs":[{"internalType":"uint256","name":"","type":"uint256"}],"stateMutability":"view","type":"function"},{"inputs":[],"name":"TIER_1_THRESHOLD","outputs":[{"internalType":"uint256","name":"","type":"uint256"}],"stateMutability":"view","type":"function"},{"inputs":[],"name":"TIER_2_THRESHOLD","outputs":[{"internalType":"uint256","name":"","type":"uint256"}],"stateMutability":"view","type":"function"},{"inputs":[],"name":"TIER_3_THRESHOLD","outputs":[{"internalType":"uint256","name":"","type":"uint256"}],"stateMutability":"view","type":"function"},{"inputs":[],"name":"TIER_4_THRESHOLD","outputs":[{"internalType":"uint256","name":"","type":"uint256"}],"stateMutability":"view","type":"function"},{"inputs":[],"name":"TREATMENT_SUCCESS_BONUS","outputs":[{"internalType":"uint256","name":"","type":"uint256"}],"stateMutability":"view","type":"function"},{"inputs":[{"internalType":"address","name":"burner","type":"address"}],"name":"addAuthorizedBurner","outputs":[],"stateMutability":"nonpayable","type":"function"},{"inputs":[{"internalType":"address","name":"minter","type":"address"}],"name":"addAuthorizedMinter","outputs":[],"stateMutability":"nonpayable","type":"function"},{"inputs":[{"internalType":"address","name":"owner","type":"address"},{"internalType":"address","name":"spender","type":"address"}],"name":"allowance","outputs":[{"internalType":"uint256","name":"","type":"uint256"}],"stateMutability":"view","type":"function"},{"inputs":[{"internalType":"address","name":"spender","type":"address"},{"internalType":"uint256","name":"amount","type":"uint256"}],"name":"approve","outputs":[{"internalType":"bool","name":"","type":"bool"}],"stateMutability":"nonpayable","type":"function"},{"inputs":[{"internalType":"address","name":"","type":"address"}],"name":"authorizedBurners","outputs":[{"internalType":"bool","name":"","type":"bool"}],"stateMutability":"view","type":"function"},{"inputs":[{"internalType":"address","name":"","type":"address"}],"name":"authorizedMinters","outputs":[{"internalType":"bool","name":"","type":"bool"}],"stateMutability":"view","type":"function"},{"inputs":[{"internalType":"address","name":"account","type":"address"}],"name":"balanceOf","outputs":[{"internalType":"uint256","name":"","type":"uint256"}],"stateMutability":"view","type":"function"},{"inputs":[{"internalType":"uint256","name":"amount","type":"uint256"}],"name":"burn","outputs":[],"stateMutability":"nonpayable","type":"function"},{"inputs":[{"internalType":"address","name":"account","type":"address"},{"internalType":"uint256","name":"amount","type":"uint256"}],"name":"burnFrom","outputs":[],"stateMutability":"nonpayable","type":"function"},{"inputs":[{"internalType":"address","name":"user","type":"address"},{"internalType":"uint256","name":"purchaseAmount","type":"uint256"}],"name":"calculateDiscount","outputs":[{"internalType":"uint256","name":"discountAmount","type":"uint256"},{"internalType":"uint256","name":"cashbackAmount","type":"uint256"},{"internalType":"bool","name":"canAffordDiscount","type":"bool"},{"internalType":"uint256","name":"tierMultiplier","type":"uint256"}],"stateMutability":"view","type":"function"},{"inputs":[],"name":"decimals","outputs":[{"internalType":"uint8","name":"","type":"uint8"}],"stateMutability":"view","type":"function"},{"inputs":[{"internalType":"address","name":"spender","type":"address"},{"internalType":"uint256","name":"subtractedValue","type":"uint256"}],"name":"decreaseAllowance","outputs":[{"internalType":"bool","name":"","type":"bool"}],"stateMutability":"nonpayable","type":"function"},{"inputs":[{"internalType":"address","name":"","type":"address"}],"name":"diseaseDetections","outputs":[{"internalType":"uint256","name":"","type":"uint256"}],"stateMutability":"view","type":"function"},{"inputs":[],"name":"emergencyWithdraw","outputs":[],"stateMutability":"nonpayable","type":"function"},{"inputs":[],"name":"getContractInfo","outputs":[{"internalType":"uint256","name":"totalSupply_","type":"uint256"},{"internalType":"uint256","name":"maxSupply","type":"uint256"},{"internalType":"uint256","name":"photoReward","type":"uint256"},{"internalType":"uint256","name":"diseaseBonus","type":"uint256"},{"internalType":"uint256","name":"discountRate","type":"uint256"},{"internalType":"uint256","name":"cashbackRate","type":"uint256"}],"stateMutability":"view","type":"function"},{"inputs":[{"internalType":"address","name":"user","type":"address"}],"name":"getUserStats","outputs":[{"internalType":"uint256","name":"tokenBalance","type":"uint256"},{"internalType":"uint256","name":"photos","type":"uint256"},{"internalType":"uint256","name":"detections","type":"uint256"},{"internalType":"uint256","name":"purchases","type":"uint256"},{"internalType":"uint256","name":"savings","type":"uint256"},{"internalType":"uint256","name":"tier","type":"uint256"},{"internalType":"uint256","name":"lastActivity","type":"uint256"}],"stateMutability":"view","type":"function"},{"inputs":[{"internalType":"address","name":"","type":"address"}],"name":"hasReferralBonus","outputs":[{"internalType":"bool","name":"","type":"bool"}],"stateMutability":"view","type":"function"},{"inputs":[{"internalType":"address","name":"spender","type":"address"},{"internalType":"uint256","name":"addedValue","type":"uint256"}],"name":"increaseAllowance","outputs":[{"internalType":"bool","name":"","type":"bool"}],"stateMutability":"nonpayable","type":"function"},{"inputs":[{"internalType":"address","name":"","type":"address"}],"name":"lastActivityTime","outputs":[{"internalType":"uint256","name":"","type":"uint256"}],"stateMutability":"view","type":"function"},{"inputs":[{"internalType":"address","name":"to","type":"address"},{"internalType":"uint256","name":"amount","type":"uint256"}],"name":"mint","outputs":[],"stateMutability":"nonpayable","type":"function"},{"inputs":[],"name":"name","outputs":[{"internalType":"string","name":"","type":"string"}],"stateMutability":"view","type":"function"},{"inputs":[],"name":"owner","outputs":[{"internalType":"address","name":"","type":"address"}],"stateMutability":"view","type":"function"},{"inputs":[],"name":"pause","outputs":[],"stateMutability":"nonpayable","type":"function"},{"inputs":[],"name":"paused","outputs":[{"internalType":"bool","name":"","type":"bool"}],"stateMutability":"view","type":"function"},{"inputs":[{"internalType":"address","name":"","type":"address"}],"name":"photoCount","outputs":[{"internalType":"uint256","name":"","type":"uint256"}],"stateMutability":"view","type":"function"},{"inputs":[{"internalType":"address","name":"user","type":"address"},{"internalType":"uint256","name":"purchaseAmount","type":"uint256"}],"name":"processPurchase","outputs":[{"internalType":"uint256","name":"discount","type":"uint256"},{"internalType":"uint256","name":"cashback","type":"uint256"}],"stateMutability":"nonpayable","type":"function"},{"inputs":[{"internalType":"address","name":"burner","type":"address"}],"name":"removeAuthorizedBurner","outputs":[],"stateMutability":"nonpayable","type":"function"},{"inputs":[{"internalType":"address","name":"minter","type":"address"}],"name":"removeAuthorizedMinter","outputs":[],"stateMutability":"nonpayable","type":"function"},{"inputs":[],"name":"renounceOwnership","outputs":[],"stateMutability":"nonpayable","type":"function"},{"inputs":[{"internalType":"address","name":"user","type":"address"},{"internalType":"bool","name":"isEarlyDetection","type":"bool"},{"internalType":"string","name":"disease","type":"string"}],"name":"rewardDiseaseDetection","outputs":[],"stateMutability":"nonpayable","type":"function"},{"inputs":[{"internalType":"address","name":"user","type":"address"}],"name":"rewardHealthyPlant","outputs":[],"stateMutability":"nonpayable","type":"function"},{"inputs":[{"internalType":"address","name":"user","type":"address"}],"name":"rewardPhotoUpload","outputs":[],"stateMutability":"nonpayable","type":"function"},{"inputs":[{"internalType":"address","name":"referrer","type":"address"},{"internalType":"address","name":"referred","type":"address"}],"name":"rewardReferral","outputs":[],"stateMutability":"nonpayable","type":"function"},{"inputs":[{"internalType":"address","name":"user","type":"address"},{"internalType":"string","name":"treatmentId","type":"string"}],"name":"rewardTreatmentSuccess","outputs":[],"stateMutability":"nonpayable","type":"function"},{"inputs":[],"name":"symbol","outputs":[{"internalType":"string","name":"","type":"string"}],"stateMutability":"view","type":"function"},{"inputs":[{"internalType":"address","name":"","type":"address"}],"name":"totalPurchases","outputs":[{"internalType":"uint256","name":"","type":"uint256"}],"stateMutability":"view","type":"function"},{"inputs":[{"internalType":"address","name":"","type":"address"}],"name":"totalSavings","outputs":[{"internalType":"uint256","name":"","type":"uint256"}],"stateMutability":"view","type":"function"},{"inputs":[],"name":"totalSupply","outputs":[{"internalType":"uint256","name":"","type":"uint256"}],"stateMutability":"view","type":"function"},{"inputs":[{"internalType":"address","name":"to","type":"address"},{"internalType":"uint256","name":"amount","type":"uint256"}],"name":"transfer","outputs":[{"internalType":"bool","name":"","type":"bool"}],"stateMutability":"nonpayable","type":"function"},{"inputs":[{"internalType":"address","name":"from","type":"address"},{"internalType":"address","name":"to","type":"address"},{"internalType":"uint256","name":"amount","type":"uint256"}],"name":"transferFrom","outputs":[{"internalType":"bool","name":"","type":"bool"}],"stateMutability":"nonpayable","type":"function"},{"inputs":[{"internalType":"address","name":"newOwner","type":"address"}],"name":"transferOwnership","outputs":[],"stateMutability":"nonpayable","type":"function"},{"inputs":[],"name":"unpause","outputs":[],"stateMutability":"nonpayable","type":"function"},{"inputs":[{"internalType":"address","name":"","type":"address"}],"name":"userTier","outputs":[{"internalType":"uint256","name":"","type":"uint256"}],"stateMutability":"view","type":"function"}],"evm":{"bytecode":{"linkReferences":{},"object":"6080346200047a576001600160401b03906040908082018381118282101762000464578252600c81526020906b20b3b937a0a4902a37b5b2b760a11b828201528251938385018581108282111762000464578452600490818652634147524f60e01b848701528251908082116200044f5760038054926001958685811c9516801562000444575b888610146200042f578190601f95868111620003d9575b508890868311600114620003725760009262000366575b505060001982841b1c191690861b1781555b8751918211620003515783548581811c9116801562000346575b878210146200033157838111620002e6575b50858383116001146200027957829394959697986000936200026d575b505082861b92600019911b1c19161782555b600580546001600160a81b0319811633600881811b610100600160a81b0316929092179093558751939291901c6001600160a01b03167f8be0079c531659141344cd1fd0a4f28419497f9722a3daafe3b4186f6b6457e0600080a3836006553315620002305750506002546a52b7d2dcc80cd2e4000000918282018092116200021b5750600255336000526000835283600020818154019055835190815260007fddf252ad1be2c89b69c2b068fc378daa952ba7f163c4a11628f55a4df523b3ef843393a333600052600e8252600f836000209260ff19938385825416179055528260002091825416179055516125259081620004808239f35b601190634e487b7160e01b6000525260246000fd5b8460649362461bcd60e51b845283015260248201527f45524332303a206d696e7420746f20746865207a65726f2061646472657373006044820152fd5b0151915038806200010f565b90601f1983169185600052876000209260005b818110620002d05750998488999a9b9896979810620002b5575b50505050811b01825562000121565b01519060f884600019921b161c1916905538808080620002a6565b8b8301518555938801939189019189016200028c565b84600052866000208480850160051c82019289861062000327575b0160051c019086905b8281106200031a575050620000f2565b600081550186906200030a565b9250819262000301565b602285634e487b7160e01b6000525260246000fd5b90607f1690620000e0565b604184634e487b7160e01b6000525260246000fd5b015190503880620000b4565b90889350601f19831691856000528a6000209260005b8c828210620003c25750508411620003a9575b505050811b018155620000c6565b015160001983861b60f8161c191690553880806200039b565b8385015186558c9790950194938401930162000388565b90915083600052886000208680850160051c8201928b861062000425575b918a91869594930160051c01915b828110620004155750506200009d565b600081558594508a910162000405565b92508192620003f7565b602286634e487b7160e01b6000525260246000fd5b94607f169462000086565b604183634e487b7160e01b6000525260246000fd5b634e487b7160e01b600052604160045260246000fd5b600080fdfe608060408181526004918236101561001657600080fd5b600092833560e01c918262bb6e9214611bba575081630364ecb114611aa357816306fdde03146119ae578163095ea7b31461198457816318160ddd146119655781632134ec271461192d57816321c7557c146118f557816323b872dd146118b8578163268257df146118805781632f731e57146118485781632ff2e9dc14611822578163313ce567146118065781633152dcd8146117c857816332cb6b0c146117a25781633950935114611752578163398d8f9d1461159d5781633b8569c7146115795781633f4ba83a146114e35781633fb0289a146114ab57816340c10f191461145357816342966c6814611435578163475ae039146113cf5781634e43603a1461134857816357eb05f3146113235781635af6c137146111845781635c975abb146111605781635d67cdfd1461113c5781635f710f5c146110d35781636902ee941461109357816370a082311461105c578163715018a614610ffb57816378547d5f14610df757816379cc679014610d6f5781637ad3786914610d375781637c86819f14610cf45781637cc1f86714610c9a57816382d9754514610c7e5781638456cb5914610bea57816384a3a0f314610bc65781638da5cb5b14610b9957816395d89b4114610a7e5781639a7ec6c3146109dc5781639cfc4eeb14610742578163a457c2d71461069a578163a9059cbb14610669578163aa2fe91b1461062b578163b510c5891461060f578163ba508eac146104c0578163c287fc731461049d578163c4a5b7431461039a578163cb9ea33714610479578163db2e21bc14610426578163dd62ed3e146103dd578163ec0cdf621461039f578163ef2f90cf1461039a578163f2fde38b146102bd575063f5f550c21461029757600080fd5b346102b957816003193601126102b95760209051680ad78ebc5ac62000008152f35b5080fd5b905034610396576020366003190112610396576102d8611bdd565b6102e0611d01565b6001600160a01b0381811693909290841561034457505060058054610100600160a81b03198116600893841b610100600160a81b031617909155901c167f8be0079c531659141344cd1fd0a4f28419497f9722a3daafe3b4186f6b6457e08380a380f35b906020608492519162461bcd60e51b8352820152602660248201527f4f776e61626c653a206e6577206f776e657220697320746865207a65726f206160448201526564647265737360d01b6064820152fd5b8280fd5b611cdd565b5050346102b95760203660031901126102b95760209160ff9082906001600160a01b036103ca611bdd565b168152600f855220541690519015158152f35b5050346102b957806003193601126102b957806020926103fb611bdd565b610403611bf8565b6001600160a01b0391821683526001865283832091168252845220549051908152f35b5050346102b957816003193601126102b957610440611d01565b8180808060018060a01b0360055460081c164790828215610470575bf115610466575080f35b51903d90823e3d90fd5b506108fc61045c565b5050346102b957816003193601126102b95760209051681b1ae4d6e2ef5000008152f35b5050346102b957816003193601126102b95760209051674563918244f400008152f35b905034610396576060366003190112610396576104db611bdd565b91602435928315159182850361060b5760443567ffffffffffffffff8111610607577f4764d4b8c29f5f048da0b6fb3a93a607eb94fce1bc85a234d86352b9f70eb3749461052b91369101611c86565b92338752600e60205261054360ff83892054166121bc565b61054b612295565b6001600160a01b03831695610561871515612201565b156105f4576105ca680ad78ebc5ac6200000935b610597676765c793fa10079d601b1b61059087600254611d5c565b1115612244565b87895260086020528389206105ac8154612286565b9055878952600d60205242848a20556105c585826122eb565b612387565b6105e582519485948552606060208601526060850190611c0e565b918301520390a2600160065580f35b6105ca68056bc75e2d6310000093610575565b8680fd5b8580fd5b5050346102b957816003193601126102b9576020905160148152f35b5050346102b95760203660031901126102b95760209160ff9082906001600160a01b03610656611bdd565b168152600e855220541690519015158152f35b5050346102b957806003193601126102b957602090610693610689611bdd565b6024359033611d7f565b5160018152f35b9050823461073f578260031936011261073f576106b5611bdd565b918360243592338152600160205281812060018060a01b03861682526020522054908282106106ee576020856106938585038733611f23565b608490602086519162461bcd60e51b8352820152602560248201527f45524332303a2064656372656173656420616c6c6f77616e63652062656c6f77604482015264207a65726f60d81b6064820152fd5b80fd5b8383346102b957806003193601126102b95761075c611bdd565b90610765611bf8565b338452602090600e825261077e60ff84872054166121bc565b610786612295565b6001600160a01b03848116938415929091908315806109d1575b1561099a57169485851461095f57858752600c845260ff828820541661092457600254926802b5e3af16b18800009384810180911161091157676765c793fa10079d601b1b6107f0911115612244565b868852600c8552828820600160ff19825416179055858852600d855242838920556108e05760ff600554166108a457600254838101809111610891577fb2dee5f49e7a09a5d7c95cd4dd5dc6410eea65d4e14519d6d3a6e14c8cf0e0e9949392916108849160025586895288855282892084815401905586896000805160206124d0833981519152878651888152a3612387565b51908152a3600160065580f35b634e487b7160e01b885260118952602488fd5b815162461bcd60e51b81528089018590526016602482015275151bdad95b881d1c985b9cd9995c9cc81c185d5cd95960521b6044820152606490fd5b815162461bcd60e51b8152808901859052601f60248201526000805160206124b08339815191526044820152606490fd5b634e487b7160e01b895260118a52602489fd5b815162461bcd60e51b81528089018590526015602482015274155cd95c88185b1c9958591e481c9959995c9c9959605a1b6044820152606490fd5b815162461bcd60e51b8152808901859052601560248201527421b0b73737ba103932b332b9103cb7bab939b2b63360591b6044820152606490fd5b825162461bcd60e51b8152808a018690526011602482015270496e76616c69642061646472657373657360781b6044820152606490fd5b5081811615156107a0565b82843461073f578160031936011261073f576109f6611bdd565b602435926014840292841593858104601414851715610a6b576064900494610a1d8461245c565b94600a8202918204600a141715610a6b57608096508591612710610a42878694612374565b049460018060a01b03168152806020522054101591815194855260208501528301526060820152f35b634e487b7160e01b825260118752602482fd5b82843461073f578060031936011261073f5781519181845492600184811c91818616958615610b8f575b6020968785108114610b7c579087899a92868b999a9b529182600014610b52575050600114610af7575b8588610af389610ae4848a0385611c4e565b51928284938452830190611c0e565b0390f35b815286935091907f8a35acfbc15ff81a39ae7d344fd709f28e8600b4aa8c65c6b64bfe7fe36bd19b5b828410610b3a5750505082010181610ae4610af388610ad2565b8054848a018601528895508794909301928101610b20565b60ff19168882015294151560051b87019094019450859350610ae49250610af39150899050610ad2565b634e487b7160e01b835260228a52602483fd5b92607f1692610aa8565b5050346102b957816003193601126102b957600554905160089190911c6001600160a01b03168152602090f35b5050346102b957816003193601126102b957602090516802b5e3af16b18800008152f35b905034610396578260031936011261039657610c04611d01565b6005549060ff8216610c48575060ff1916600117600555513381527f62e78cea01bee320cd4e420270b5ea74000d11b0c9f74754ebdbfc544b05a25890602090a180f35b606490602084519162461bcd60e51b8352820152601060248201526f14185d5cd8589b194e881c185d5cd95960821b6044820152fd5b5050346102b957816003193601126102b95760209051600a8152f35b5050346102b957816003193601126102b95760c090674563918244f40000600254918051928352676765c793fa10079d601b1b602084015282015268056bc75e2d63100000606082015260146080820152600a60a0820152f35b5050346102b95760203660031901126102b957610d0f611bdd565b610d17611d01565b6001600160a01b03168252600f6020528120805460ff1916600117905580f35b5050346102b95760203660031901126102b95760209181906001600160a01b03610d5f611bdd565b1681526009845220549051908152f35b839150346102b957826003193601126102b957610d8a611bdd565b60243591338452600f60205260ff858520541615610dbb575090610db891610db3823383612025565b6120bd565b80f35b606490602086519162461bcd60e51b835282015260166024820152752737ba1030baba3437b934bd32b2103a3790313ab93760511b6044820152fd5b9050823461073f578260031936011261073f57610e12611bdd565b60243590338352602091600e8352610e2f60ff87862054166121bc565b610e37612295565b6001600160a01b03821691610e4d831515612201565b8115610fb85760148202828104601403610fa5576064900495600a830290838204600a03610f925750610e8d60649182610e868561245c565b9104612374565b049483815280855286888220541015600014610f625791610f34827f1194345466e1634be30de2b1f42ff3942b5d68d85cf8776af6dd47f3d45e4fe494610ed68a6060966120bd565b676765c793fa10079d601b1b610eee8a600254611d5c565b1115610f53575b868152600988528a8120610f0a858254611d5c565b9055868152600a88528a8120610f218b8254611d5c565b9055868152600d88528a42912055612387565b875190815286858201528588820152a260016006558351928352820152f35b610f5d89836122eb565b610ef5565b95507f1194345466e1634be30de2b1f42ff3942b5d68d85cf8776af6dd47f3d45e4fe491610f3460609288610ed6565b634e487b7160e01b875260119052602486fd5b634e487b7160e01b865260118752602486fd5b865162461bcd60e51b8152808701859052601760248201527f496e76616c696420707572636861736520616d6f756e740000000000000000006044820152606490fd5b833461073f578060031936011261073f57611014611d01565b60058054610100600160a81b03198116909155819060081c6001600160a01b03167f8be0079c531659141344cd1fd0a4f28419497f9722a3daafe3b4186f6b6457e08280a380f35b5050346102b95760203660031901126102b95760209181906001600160a01b03611084611bdd565b16815280845220549051908152f35b5050346102b95760203660031901126102b9576110ae611bdd565b6110b6611d01565b6001600160a01b03168252600f6020528120805460ff1916905580f35b5050346102b95760203660031901126102b9576110ee611bdd565b6110f6611d01565b6001600160a01b0316808352600e602052908220805460ff191660011790557fe6be4d6cc04eb0219337b22db08c688969a9ec8e34d9a0a2ba38a114e050f1ae8280a280f35b5050346102b957816003193601126102b957602090516801158e460913d000008152f35b5050346102b957816003193601126102b95760209060ff6005541690519015158152f35b8383346102b95760209081600319360112610396576111a1611bdd565b338452600e83526111b760ff83862054166121bc565b6111bf612295565b6001600160a01b038116928315916111d78315612201565b600254926801158e460913d000009384810180911161089157676765c793fa10079d601b1b611207911115612244565b858752600d835242858820556112f25760ff600554166112b6576002548381018091116112a3577fea649950c183eefa4a3af9a5675131ecfb4793c91a300c4aa8e06eddcdf4585a949392916112869160025586885287835284882084815401905586886000805160206124d0833981519152858851888152a3612387565b8486526007815282862054908351928352820152a2600160065580f35b634e487b7160e01b875260118852602487fd5b835162461bcd60e51b81528088018390526016602482015275151bdad95b881d1c985b9cd9995c9cc81c185d5cd95960521b6044820152606490fd5b835162461bcd60e51b8152808801839052601f60248201526000805160206124b08339815191526044820152606490fd5b5050346102b957816003193601126102b9576020905169010f0cf064dd592000008152f35b5050346102b9576020806003193601126103965760e0926001600160a01b0361136f611bdd565b16815280825282812054926007835280822054906008845280832054600985528184205491600a86528085205493600b8752818087205496600d895220549682519889528801528601526060850152608084015260a083015260c0820152f35b5050346102b95760203660031901126102b9576113ea611bdd565b6113f2611d01565b6001600160a01b0316808352600e602052908220805460ff191690557fc6711413797b8a562634e98c95d50e7619d39702ed5b82ce335dc93546c3a88c8280a280f35b8390346102b95760203660031901126102b957610db89035336120bd565b5050346102b957806003193601126102b957610db890611471611bdd565b61148b60ff60243593338752600e602052862054166121bc565b6114a6676765c793fa10079d601b1b61059084600254611d5c565b6122eb565b5050346102b95760203660031901126102b95760209181906001600160a01b036114d3611bdd565b1681526008845220549051908152f35b9050346103965782600319360112610396576114fd611d01565b6005549060ff82161561153f575060ff1916600555513381527f5db9ee0a495bf2e6ff9c91a7834c1ba4fdd244a5e8aa4e537bd38aeae4b073aa90602090a180f35b606490602084519162461bcd60e51b8352820152601460248201527314185d5cd8589b194e881b9bdd081c185d5cd95960621b6044820152fd5b5050346102b957816003193601126102b95760209051680821ab0d44149800008152f35b8383346102b957806003193601126102b9576115b7611bdd565b60243567ffffffffffffffff811161174e576115d69036908601611c86565b90338452602091600e83526115f060ff85872054166121bc565b6115f8612295565b6001600160a01b038216938415926116108415612201565b60025493680821ab0d44149800009485810180911161091157676765c793fa10079d601b1b611640911115612244565b868852600d8652428389205561171d5760ff600554166116e15760025484810180911161089157916116c37fbd15e993ec2d091a085012a3ef36204a7ac264569da5a0b56bac12b10deebadb969594926116d694600255888a52898752828a20868154019055888a6000805160206124d08339815191528986518a8152a3612387565b8080519586958652850152830190611c0e565b0390a2600160065580f35b815162461bcd60e51b81528089018690526016602482015275151bdad95b881d1c985b9cd9995c9cc81c185d5cd95960521b6044820152606490fd5b815162461bcd60e51b8152808901869052601f60248201526000805160206124b08339815191526044820152606490fd5b8380fd5b5050346102b957806003193601126102b95761069360209261179b611775611bdd565b338352600186528483206001600160a01b03821684528652918490205460243590611d5c565b9033611f23565b5050346102b957816003193601126102b95760209051676765c793fa10079d601b1b8152f35b5050346102b95760203660031901126102b95760209160ff9082906001600160a01b036117f3611bdd565b168152600c855220541690519015158152f35b5050346102b957816003193601126102b9576020905160128152f35b5050346102b957816003193601126102b957602090516a52b7d2dcc80cd2e40000008152f35b5050346102b95760203660031901126102b95760209181906001600160a01b03611870611bdd565b1681526007845220549051908152f35b5050346102b95760203660031901126102b95760209181906001600160a01b036118a8611bdd565b168152600d845220549051908152f35b5050346102b95760603660031901126102b9576020906106936118d9611bdd565b6118e1611bf8565b604435916118f0833383612025565b611d7f565b5050346102b95760203660031901126102b95760209181906001600160a01b0361191d611bdd565b168152600b845220549051908152f35b5050346102b95760203660031901126102b95760209181906001600160a01b03611955611bdd565b168152600a845220549051908152f35b5050346102b957816003193601126102b9576020906002549051908152f35b5050346102b957806003193601126102b9576020906106936119a4611bdd565b6024359033611f23565b82843461073f578060031936011261073f578151918160035492600184811c91818616958615611a99575b6020968785108114610b7c578899509688969785829a529182600014611a72575050600114611a16575b505050610af39291610ae4910385611c4e565b9190869350600383527fc2575a0e9e593c00f959f8c92f12db2869c3395a3b0502d05e2516446f71f85b5b828410611a5a5750505082010181610ae4610af3611a03565b8054848a018601528895508794909301928101611a41565b60ff19168782015293151560051b86019093019350849250610ae49150610af39050611a03565b92607f16926119d9565b8383346102b9576020908160031936011261039657611ac0611bdd565b338452600e8352611ad660ff83862054166121bc565b611ade612295565b6001600160a01b03811692831591611af68315612201565b60025492674563918244f400009384810180911161089157676765c793fa10079d601b1b611b25911115612244565b85875260078352848720611b398154612286565b9055858752600d835242858820556112f25760ff600554166112b6576002548381018091116112a3577fea649950c183eefa4a3af9a5675131ecfb4793c91a300c4aa8e06eddcdf4585a949392916112869160025586885287835284882084815401905586886000805160206124d0833981519152858851888152a3612387565b8490346102b957816003193601126102b95780683635c9adc5dea0000060209252f35b600435906001600160a01b0382168203611bf357565b600080fd5b602435906001600160a01b0382168203611bf357565b919082519283825260005b848110611c3a575050826000602080949584010152601f8019910116010190565b602081830181015184830182015201611c19565b90601f8019910116810190811067ffffffffffffffff821117611c7057604052565b634e487b7160e01b600052604160045260246000fd5b81601f82011215611bf35780359067ffffffffffffffff8211611c705760405192611cbb601f8401601f191660200185611c4e565b82845260208383010111611bf357816000926020809301838601378301015290565b34611bf3576000366003190112611bf357602060405168056bc75e2d631000008152f35b60055460081c6001600160a01b03163303611d1857565b606460405162461bcd60e51b815260206004820152602060248201527f4f776e61626c653a2063616c6c6572206973206e6f7420746865206f776e65726044820152fd5b91908201809211611d6957565b634e487b7160e01b600052601160045260246000fd5b6001600160a01b03908116918215611ed05716918215611e7f5760ff60055416611e4157600082815280602052604081205491808310611ded57604082826000805160206124d0833981519152958760209652828652038282205586815220818154019055604051908152a3565b60405162461bcd60e51b815260206004820152602660248201527f45524332303a207472616e7366657220616d6f756e7420657863656564732062604482015265616c616e636560d01b6064820152608490fd5b60405162461bcd60e51b8152602060048201526016602482015275151bdad95b881d1c985b9cd9995c9cc81c185d5cd95960521b6044820152606490fd5b60405162461bcd60e51b815260206004820152602360248201527f45524332303a207472616e7366657220746f20746865207a65726f206164647260448201526265737360e81b6064820152608490fd5b60405162461bcd60e51b815260206004820152602560248201527f45524332303a207472616e736665722066726f6d20746865207a65726f206164604482015264647265737360d81b6064820152608490fd5b6001600160a01b03908116918215611fd45716918215611f845760207f8c5be1e5ebec7d5bd14f71427d1e84f3dd0314c0f7b2291e5b200ac8c7c3b925918360005260018252604060002085600052825280604060002055604051908152a3565b60405162461bcd60e51b815260206004820152602260248201527f45524332303a20617070726f766520746f20746865207a65726f206164647265604482015261737360f01b6064820152608490fd5b60405162461bcd60e51b8152602060048201526024808201527f45524332303a20617070726f76652066726f6d20746865207a65726f206164646044820152637265737360e01b6064820152608490fd5b9060018060a01b038083166000526001602052604060002090821660005260205260406000205492600019840361205d575b50505050565b8084106120785761206f930391611f23565b38808080612057565b60405162461bcd60e51b815260206004820152601d60248201527f45524332303a20696e73756666696369656e7420616c6c6f77616e63650000006044820152606490fd5b6001600160a01b0316801561216d5760ff60055416611e415760009181835282602052604083205481811061211d57816000805160206124d0833981519152926020928587528684520360408620558060025403600255604051908152a3565b60405162461bcd60e51b815260206004820152602260248201527f45524332303a206275726e20616d6f756e7420657863656564732062616c616e604482015261636560f01b6064820152608490fd5b60405162461bcd60e51b815260206004820152602160248201527f45524332303a206275726e2066726f6d20746865207a65726f206164647265736044820152607360f81b6064820152608490fd5b156121c357565b60405162461bcd60e51b8152602060048201526016602482015275139bdd08185d5d1a1bdc9a5e9959081d1bc81b5a5b9d60521b6044820152606490fd5b1561220857565b60405162461bcd60e51b8152602060048201526014602482015273496e76616c69642075736572206164647265737360601b6044820152606490fd5b1561224b57565b60405162461bcd60e51b815260206004820152601360248201527213585e081cdd5c1c1b1e48195e18d959591959606a1b6044820152606490fd5b6000198114611d695760010190565b6002600654146122a6576002600655565b60405162461bcd60e51b815260206004820152601f60248201527f5265656e7472616e637947756172643a207265656e7472616e742063616c6c006044820152606490fd5b6001600160a01b03169081156123415760ff60055416611e41576000805160206124d0833981519152602082612325600094600254611d5c565b60025584845283825260408420818154019055604051908152a3565b60405162461bcd60e51b815260206004820152601f60248201526000805160206124b08339815191526044820152606490fd5b81810292918115918404141715611d6957565b6001600160a01b031660008181526020818152604080832054600b9092528220805492909169010f0cf064dd59200000811061240b5750506004915b8083036123d05750505050565b827ff406c17c43e8510021f8e9d634aca0c743b8343139c1e9b0ff49314654be0049936040935582519182526020820152a238808080612057565b683635c9adc5dea0000081106124265750506003915b6123c3565b681b1ae4d6e2ef50000081106124405750506002916123c3565b68056bc75e2d63100000909391931061242157600192506123c3565b6001600160a01b03166000908152600b6020526040902054600481146124a957600381146124a3576002811461249d5760011461249857606490565b606e90565b50607890565b50608290565b5060969056fe45524332303a206d696e7420746f20746865207a65726f206164647265737300ddf252ad1be2c89b69c2b068fc378daa952ba7f163c4a11628f55a4df523b3efa264697066735822122016e608876cad35ab2662e405056756046b079f51cc727936520e15b9579f2ee164736f6c63430008130033","opcodes":"PUSH1 0x80 CALLVALUE PUSH3 0x47A JUMPI PUSH1 0x1 PUSH1 0x1 PUSH1 0x40 SHL SUB SWAP1 PUSH1 0x40 SWAP1 DUP1 DUP3 ADD DUP4 DUP2 GT DUP3 DUP3 LT OR PUSH3 0x464 JUMPI DUP3 MSTORE PUSH1 0xC DUP2 MSTORE PUSH1 0x20 SWAP1 PUSH12 0x20B3B937A0A4902A37B5B2B7 PUSH1 0xA1 SHL DUP3 DUP3 ADD MSTORE DUP3 MLOAD SWAP4 DUP4 DUP6 ADD DUP6 DUP2 LT DUP3 DUP3 GT OR PUSH3 0x464 JUMPI DUP5 MSTORE PUSH1 0x4 SWAP1 DUP2 DUP7 MSTORE PUSH4 0x4147524F PUSH1 0xE0 SHL DUP5 DUP8 ADD MSTORE DUP3 MLOAD SWAP1 DUP1 DUP3 GT PUSH3 0x44F JUMPI PUSH1 0x3 DUP1 SLOAD SWAP3 PUSH1 0x1 SWAP6 DUP7 DUP6 DUP2 SHR SWAP6 AND DUP1 ISZERO PUSH3 0x444 JUMPI JUMPDEST DUP9 DUP7 LT EQ PUSH3 0x42F JUMPI DUP2 SWAP1 PUSH1 0x1F SWAP6 DUP7 DUP2 GT PUSH3 0x3D9 JUMPI JUMPDEST POP DUP9 SWAP1 DUP7 DUP4 GT PUSH1 0x1 EQ PUSH3 0x372 JUMPI PUSH1 0x0 SWAP3 PUSH3 0x366 JUMPI JUMPDEST POP POP PUSH1 0x0 NOT DUP3 DUP5 SHL SHR NOT AND SWAP1 DUP7 SHL OR DUP2 SSTORE JUMPDEST DUP8 MLOAD SWAP2 DUP3 GT PUSH3 0x351 JUMPI DUP4 SLOAD DUP6 DUP2 DUP2 SHR SWAP2 AND DUP1 ISZERO PUSH3 0x346 JUMPI JUMPDEST DUP8 DUP3 LT EQ PUSH3 0x331 JUMPI DUP4 DUP2 GT PUSH3 0x2E6 JUMPI JUMPDEST POP DUP6 DUP4 DUP4 GT PUSH1 0x1 EQ PUSH3 0x279 JUMPI DUP3 SWAP4 SWAP5 SWAP6 SWAP7 SWAP8 SWAP9 PUSH1 0x0 SWAP4 PUSH3 0x26D JUMPI JUMPDEST POP POP DUP3 DUP7 SHL SWAP3 PUSH1 0x0 NOT SWAP2 SHL SHR NOT AND OR DUP3 SSTORE JUMPDEST PUSH1 0x5 DUP1 SLOAD PUSH1 0x1 PUSH1 0x1 PUSH1 0xA8 SHL SUB NOT DUP2 AND CALLER PUSH1 0x8 DUP2 DUP2 SHL PUSH2 0x100 PUSH1 0x1 PUSH1 0xA8 SHL SUB AND SWAP3 SWAP1 SWAP3 OR SWAP1 SWAP4 SSTORE DUP8 MLOAD SWAP4 SWAP3 SWAP2 SWAP1 SHR PUSH1 0x1 PUSH1 0x1 PUSH1 0xA0 SHL SUB AND PUSH32 0x8BE0079C531659141344CD1FD0A4F28419497F9722A3DAAFE3B4186F6B6457E0 PUSH1 0x0 DUP1 LOG3 DUP4 PUSH1 0x6 SSTORE CALLER ISZERO PUSH3 0x230 JUMPI POP POP PUSH1 0x2 SLOAD PUSH11 0x52B7D2DCC80CD2E4000000 SWAP2 DUP3 DUP3 ADD DUP1 SWAP3 GT PUSH3 0x21B JUMPI POP PUSH1 0x2 SSTORE CALLER PUSH1 0x0 MSTORE PUSH1 0x0 DUP4 MSTORE DUP4 PUSH1 0x0 KECCAK256 DUP2 DUP2 SLOAD ADD SWAP1 SSTORE DUP4 MLOAD SWAP1 DUP2 MSTORE PUSH1 0x0 PUSH32 0xDDF252AD1BE2C89B69C2B068FC378DAA952BA7F163C4A11628F55A4DF523B3EF DUP5 CALLER SWAP4 LOG3 CALLER PUSH1 0x0 MSTORE PUSH1 0xE DUP3 MSTORE PUSH1 0xF DUP4 PUSH1 0x0 KECCAK256 SWAP3 PUSH1 0xFF NOT SWAP4 DUP4 DUP6 DUP3 SLOAD AND OR SWAP1 SSTORE MSTORE DUP3 PUSH1 0x0 KECCAK256 SWAP2 DUP3 SLOAD AND OR SWAP1 SSTORE MLOAD PUSH2 0x2525 SWAP1 DUP2 PUSH3 0x480 DUP3 CODECOPY RETURN JUMPDEST PUSH1 0x11 SWAP1 PUSH4 0x4E487B71 PUSH1 0xE0 SHL PUSH1 0x0 MSTORE MSTORE PUSH1 0x24 PUSH1 0x0 REVERT JUMPDEST DUP5 PUSH1 0x64 SWAP4 PUSH3 0x461BCD PUSH1 0xE5 SHL DUP5 MSTORE DUP4 ADD MSTORE PUSH1 0x24 DUP3 ADD MSTORE PUSH32 0x45524332303A206D696E7420746F20746865207A65726F206164647265737300 PUSH1 0x44 DUP3 ADD MSTORE REVERT JUMPDEST ADD MLOAD SWAP2 POP CODESIZE DUP1 PUSH3 0x10F JUMP JUMPDEST SWAP1 PUSH1 0x1F NOT DUP4 AND SWAP2 DUP6 PUSH1 0x0 MSTORE DUP8 PUSH1 0x0 KECCAK256 SWAP3 PUSH1 0x0 JUMPDEST DUP2 DUP2 LT PUSH3 0x2D0 JUMPI POP SWAP10 DUP5 DUP9 SWAP10 SWAP11 SWAP12 SWAP9 SWAP7 SWAP8 SWAP9 LT PUSH3 0x2B5 JUMPI JUMPDEST POP POP POP POP DUP2 SHL ADD DUP3 SSTORE PUSH3 0x121 JUMP JUMPDEST ADD MLOAD SWAP1 PUSH1 0xF8 DUP5 PUSH1 0x0 NOT SWAP3 SHL AND SHR NOT AND SWAP1 SSTORE CODESIZE DUP1 DUP1 DUP1 PUSH3 0x2A6 JUMP JUMPDEST DUP12 DUP4 ADD MLOAD DUP6 SSTORE SWAP4 DUP9 ADD SWAP4 SWAP2 DUP10 ADD SWAP2 DUP10 ADD PUSH3 0x28C JUMP JUMPDEST DUP5 PUSH1 0x0 MSTORE DUP7 PUSH1 0x0 KECCAK256 DUP5 DUP1 DUP6 ADD PUSH1 0x5 SHR DUP3 ADD SWAP3 DUP10 DUP7 LT PUSH3 0x327 JUMPI JUMPDEST ADD PUSH1 0x5 SHR ADD SWAP1 DUP7 SWAP1 JUMPDEST DUP3 DUP2 LT PUSH3 0x31A JUMPI POP POP PUSH3 0xF2 JUMP JUMPDEST PUSH1 0x0 DUP2 SSTORE ADD DUP7 SWAP1 PUSH3 0x30A JUMP JUMPDEST SWAP3 POP DUP2 SWAP3 PUSH3 0x301 JUMP JUMPDEST PUSH1 0x22 DUP6 PUSH4 0x4E487B71 PUSH1 0xE0 SHL PUSH1 0x0 MSTORE MSTORE PUSH1 0x24 PUSH1 0x0 REVERT JUMPDEST SWAP1 PUSH1 0x7F AND SWAP1 PUSH3 0xE0 JUMP JUMPDEST PUSH1 0x41 DUP5 PUSH4 0x4E487B71 PUSH1 0xE0 SHL PUSH1 0x0 MSTORE MSTORE PUSH1 0x24 PUSH1 0x0 REVERT JUMPDEST ADD MLOAD SWAP1 POP CODESIZE DUP1 PUSH3 0xB4 JUMP JUMPDEST SWAP1 DUP9 SWAP4 POP PUSH1 0x1F NOT DUP4 AND SWAP2 DUP6 PUSH1 0x0 MSTORE DUP11 PUSH1 0x0 KECCAK256 SWAP3 PUSH1 0x0 JUMPDEST DUP13 DUP3 DUP3 LT PUSH3 0x3C2 JUMPI POP POP DUP5 GT PUSH3 0x3A9 JUMPI JUMPDEST POP POP POP DUP2 SHL ADD DUP2 SSTORE PUSH3 0xC6 JUMP JUMPDEST ADD MLOAD PUSH1 0x0 NOT DUP4 DUP7 SHL PUSH1 0xF8 AND SHR NOT AND SWAP1 SSTORE CODESIZE DUP1 DUP1 PUSH3 0x39B JUMP JUMPDEST DUP4 DUP6 ADD MLOAD DUP7 SSTORE DUP13 SWAP8 SWAP1 SWAP6 ADD SWAP5 SWAP4 DUP5 ADD SWAP4 ADD PUSH3 0x388 JUMP JUMPDEST SWAP1 SWAP2 POP DUP4 PUSH1 0x0 MSTORE DUP9 PUSH1 0x0 KECCAK256 DUP7 DUP1 DUP6 ADD PUSH1 0x5 SHR DUP3 ADD SWAP3 DUP12 DUP7 LT PUSH3 0x425 JUMPI JUMPDEST SWAP2 DUP11 SWAP2 DUP7 SWAP6 SWAP5 SWAP4 ADD PUSH1 0x5 SHR ADD SWAP2 JUMPDEST DUP3 DUP2 LT PUSH3 0x415 JUMPI POP POP PUSH3 0x9D JUMP JUMPDEST PUSH1 0x0 DUP2 SSTORE DUP6 SWAP5 POP DUP11 SWAP2 ADD PUSH3 0x405 JUMP JUMPDEST SWAP3 POP DUP2 SWAP3 PUSH3 0x3F7 JUMP JUMPDEST PUSH1 0x22 DUP7 PUSH4 0x4E487B71 PUSH1 0xE0 SHL PUSH1 0x0 MSTORE MSTORE PUSH1 0x24 PUSH1 0x0 REVERT JUMPDEST SWAP5 PUSH1 0x7F AND SWAP5 PUSH3 0x86 JUMP JUMPDEST PUSH1 0x41 DUP4 PUSH4 0x4E487B71 PUSH1 0xE0 SHL PUSH1 0x0 MSTORE MSTORE PUSH1 0x24 PUSH1 0x0 REVERT JUMPDEST PUSH4 0x4E487B71 PUSH1 0xE0 SHL PUSH1 0x0 MSTORE PUSH1 0x41 PUSH1 0x4 MSTORE PUSH1 0x24 PUSH1 0x0 REVERT JUMPDEST PUSH1 0x0 DUP1 REVERT INVALID PUSH1 0x80 PUSH1 0x40 DUP2 DUP2 MSTORE PUSH1 0x4 SWAP2 DUP3 CALLDATASIZE LT ISZERO PUSH2 0x16 JUMPI PUSH1 0x0 DUP1 REVERT JUMPDEST PUSH1 0x0 SWAP3 DUP4 CALLDATALOAD PUSH1 0xE0 SHR SWAP2 DUP3 PUSH3 0xBB6E92 EQ PUSH2 0x1BBA JUMPI POP DUP2 PUSH4 0x364ECB1 EQ PUSH2 0x1AA3 JUMPI DUP2 PUSH4 0x6FDDE03 EQ PUSH2 0x19AE JUMPI DUP2 PUSH4 0x95EA7B3 EQ PUSH2 0x1984 JUMPI DUP2 PUSH4 0x18160DDD EQ PUSH2 0x1965 JUMPI DUP2 PUSH4 0x2134EC27 EQ PUSH2 0x192D JUMPI DUP2 PUSH4 0x21C7557C EQ PUSH2 0x18F5 JUMPI DUP2 PUSH4 0x23B872DD EQ PUSH2 0x18B8 JUMPI DUP2 PUSH4 0x268257DF EQ PUSH2 0x1880 JUMPI DUP2 PUSH4 0x2F731E57 EQ PUSH2 0x1848 JUMPI DUP2 PUSH4 0x2FF2E9DC EQ PUSH2 0x1822 JUMPI DUP2 PUSH4 0x313CE567 EQ PUSH2 0x1806 JUMPI DUP2 PUSH4 0x3152DCD8 EQ PUSH2 0x17C8 JUMPI DUP2 PUSH4 0x32CB6B0C EQ PUSH2 0x17A2 JUMPI DUP2 PUSH4 0x39509351 EQ PUSH2 0x1752 JUMPI DUP2 PUSH4 0x398D8F9D EQ PUSH2 0x159D JUMPI DUP2 PUSH4 0x3B8569C7 EQ PUSH2 0x1579 JUMPI DUP2 PUSH4 0x3F4BA83A EQ PUSH2 0x14E3 JUMPI DUP2 PUSH4 0x3FB0289A EQ PUSH2 0x14AB JUMPI DUP2 PUSH4 0x40C10F19 EQ PUSH2 0x1453 JUMPI DUP2 PUSH4 0x42966C68 EQ PUSH2 0x1435 JUMPI DUP2 PUSH4 0x475AE039 EQ PUSH2 0x13CF JUMPI DUP2 PUSH4 0x4E43603A EQ PUSH2 0x1348 JUMPI DUP2 PUSH4 0x57EB05F3 EQ PUSH2 0x1323 JUMPI DUP2 PUSH4 0x5AF6C137 EQ PUSH2 0x1184 JUMPI DUP2 PUSH4 0x5C975ABB EQ PUSH2 0x1160 JUMPI DUP2 PUSH4 0x5D67CDFD EQ PUSH2 0x113C JUMPI DUP2 PUSH4 0x5F710F5C EQ PUSH2 0x10D3 JUMPI DUP2 PUSH4 0x6902EE94 EQ PUSH2 0x1093 JUMPI DUP2 PUSH4 0x70A08231 EQ PUSH2 0x105C JUMPI DUP2 PUSH4 0x715018A6 EQ PUSH2 0xFFB JUMPI DUP2 PUSH4 0x78547D5F EQ PUSH2 0xDF7 JUMPI DUP2 PUSH4 0x79CC6790 EQ PUSH2 0xD6F JUMPI DUP2 PUSH4 0x7AD37869 EQ PUSH2 0xD37 JUMPI DUP2 PUSH4 0x7C86819F EQ PUSH2 0xCF4 JUMPI DUP2 PUSH4 0x7CC1F867 EQ PUSH2 0xC9A JUMPI DUP2 PUSH4 0x82D97545 EQ PUSH2 0xC7E JUMPI DUP2 PUSH4 0x8456CB59 EQ PUSH2 0xBEA JUMPI DUP2 PUSH4 0x84A3A0F3 EQ PUSH2 0xBC6 JUMPI DUP2 PUSH4 0x8DA5CB5B EQ PUSH2 0xB99 JUMPI DUP2 PUSH4 0x95D89B41 EQ PUSH2 0xA7E JUMPI DUP2 PUSH4 0x9A7EC6C3 EQ PUSH2 0x9DC JUMPI DUP2 PUSH4 0x9CFC4EEB EQ PUSH2 0x742 JUMPI DUP2 PUSH4 0xA457C2D7 EQ PUSH2 0x69A JUMPI DUP2 PUSH4 0xA9059CBB EQ PUSH2 0x669 JUMPI DUP2 PUSH4 0xAA2FE91B EQ PUSH2 0x62B JUMPI DUP2 PUSH4 0xB510C589 EQ PUSH2 0x60F JUMPI DUP2 PUSH4 0xBA508EAC EQ PUSH2 0x4C0 JUMPI DUP2 PUSH4 0xC287FC73 EQ PUSH2 0x49D JUMPI DUP2 PUSH4 0xC4A5B743 EQ PUSH2 0x39A JUMPI DUP2 PUSH4 0xCB9EA337 EQ PUSH2 0x479 JUMPI DUP2 PUSH4 0xDB2E21BC EQ PUSH2 0x426 JUMPI DUP2 PUSH4 0xDD62ED3E EQ PUSH2 0x3DD JUMPI DUP2 PUSH4 0xEC0CDF62 EQ PUSH2 0x39F JUMPI DUP2 PUSH4 0xEF2F90CF EQ PUSH2 0x39A JUMPI DUP2 PUSH4 0xF2FDE38B EQ PUSH2 0x2BD JUMPI POP PUSH4 0xF5F550C2 EQ PUSH2 0x297 JUMPI PUSH1 0x0 DUP1 REVERT JUMPDEST CALLVALUE PUSH2 0x2B9 JUMPI DUP2 PUSH1 0x3 NOT CALLDATASIZE ADD SLT PUSH2 0x2B9 JUMPI PUSH1 0x20 SWAP1 MLOAD PUSH9 0xAD78EBC5AC6200000 DUP2 MSTORE RETURN JUMPDEST POP DUP1 REVERT JUMPDEST SWAP1 POP CALLVALUE PUSH2 0x396 JUMPI PUSH1 0x20 CALLDATASIZE PUSH1 0x3 NOT ADD SLT PUSH2 0x396 JUMPI PUSH2 0x2D8 PUSH2 0x1BDD JUMP JUMPDEST PUSH2 0x2E0 PUSH2 0x1D01 JUMP JUMPDEST PUSH1 0x1 PUSH1 0x1 PUSH1 0xA0 SHL SUB DUP2 DUP2 AND SWAP4 SWAP1 SWAP3 SWAP1 DUP5 ISZERO PUSH2 0x344 JUMPI POP POP PUSH1 0x5 DUP1 SLOAD PUSH2 0x100 PUSH1 0x1 PUSH1 0xA8 SHL SUB NOT DUP2 AND PUSH1 0x8 SWAP4 DUP5 SHL PUSH2 0x100 PUSH1 0x1 PUSH1 0xA8 SHL SUB AND OR SWAP1 SWAP2 SSTORE SWAP1 SHR AND PUSH32 0x8BE0079C531659141344CD1FD0A4F28419497F9722A3DAAFE3B4186F6B6457E0 DUP4 DUP1 LOG3 DUP1 RETURN JUMPDEST SWAP1 PUSH1 0x20 PUSH1 0x84 SWAP3 MLOAD SWAP2 PUSH3 0x461BCD PUSH1 0xE5 SHL DUP4 MSTORE DUP3 ADD MSTORE PUSH1 0x26 PUSH1 0x24 DUP3 ADD MSTORE PUSH32 0x4F776E61626C653A206E6577206F776E657220697320746865207A65726F2061 PUSH1 0x44 DUP3 ADD MSTORE PUSH6 0x646472657373 PUSH1 0xD0 SHL PUSH1 0x64 DUP3 ADD MSTORE REVERT JUMPDEST DUP3 DUP1 REVERT JUMPDEST PUSH2 0x1CDD JUMP JUMPDEST POP POP CALLVALUE PUSH2 0x2B9 JUMPI PUSH1 0x20 CALLDATASIZE PUSH1 0x3 NOT ADD SLT PUSH2 0x2B9 JUMPI PUSH1 0x20 SWAP2 PUSH1 0xFF SWAP1 DUP3 SWAP1 PUSH1 0x1 PUSH1 0x1 PUSH1 0xA0 SHL SUB PUSH2 0x3CA PUSH2 0x1BDD JUMP JUMPDEST AND DUP2 MSTORE PUSH1 0xF DUP6 MSTORE KECCAK256 SLOAD AND SWAP1 MLOAD SWAP1 ISZERO ISZERO DUP2 MSTORE RETURN JUMPDEST POP POP CALLVALUE PUSH2 0x2B9 JUMPI DUP1 PUSH1 0x3 NOT CALLDATASIZE ADD SLT PUSH2 0x2B9 JUMPI DUP1 PUSH1 0x20 SWAP3 PUSH2 0x3FB PUSH2 0x1BDD JUMP JUMPDEST PUSH2 0x403 PUSH2 0x1BF8 JUMP JUMPDEST PUSH1 0x1 PUSH1 0x1 PUSH1 0xA0 SHL SUB SWAP2 DUP3 AND DUP4 MSTORE PUSH1 0x1 DUP7 MSTORE DUP4 DUP4 KECCAK256 SWAP2 AND DUP3 MSTORE DUP5 MSTORE KECCAK256 SLOAD SWAP1 MLOAD SWAP1 DUP2 MSTORE RETURN JUMPDEST POP POP CALLVALUE PUSH2 0x2B9 JUMPI DUP2 PUSH1 0x3 NOT CALLDATASIZE ADD SLT PUSH2 0x2B9 JUMPI PUSH2 0x440 PUSH2 0x1D01 JUMP JUMPDEST DUP2 DUP1 DUP1 DUP1 PUSH1 0x1 DUP1 PUSH1 0xA0 SHL SUB PUSH1 0x5 SLOAD PUSH1 0x8 SHR AND SELFBALANCE SWAP1 DUP3 DUP3 ISZERO PUSH2 0x470 JUMPI JUMPDEST CALL ISZERO PUSH2 0x466 JUMPI POP DUP1 RETURN JUMPDEST MLOAD SWAP1 RETURNDATASIZE SWAP1 DUP3 RETURNDATACOPY RETURNDATASIZE SWAP1 REVERT JUMPDEST POP PUSH2 0x8FC PUSH2 0x45C JUMP JUMPDEST POP POP CALLVALUE PUSH2 0x2B9 JUMPI DUP2 PUSH1 0x3 NOT CALLDATASIZE ADD SLT PUSH2 0x2B9 JUMPI PUSH1 0x20 SWAP1 MLOAD PUSH9 0x1B1AE4D6E2EF500000 DUP2 MSTORE RETURN JUMPDEST POP POP CALLVALUE PUSH2 0x2B9 JUMPI DUP2 PUSH1 0x3 NOT CALLDATASIZE ADD SLT PUSH2 0x2B9 JUMPI PUSH1 0x20 SWAP1 MLOAD PUSH8 0x4563918244F40000 DUP2 MSTORE RETURN JUMPDEST SWAP1 POP CALLVALUE PUSH2 0x396 JUMPI PUSH1 0x60 CALLDATASIZE PUSH1 0x3 NOT ADD SLT PUSH2 0x396 JUMPI PUSH2 0x4DB PUSH2 0x1BDD JUMP JUMPDEST SWAP2 PUSH1 0x24 CALLDATALOAD SWAP3 DUP4 ISZERO ISZERO SWAP2 DUP3 DUP6 SUB PUSH2 0x60B JUMPI PUSH1 0x44 CALLDATALOAD PUSH8 0xFFFFFFFFFFFFFFFF DUP2 GT PUSH2 0x607 JUMPI PUSH32 0x4764D4B8C29F5F048DA0B6FB3A93A607EB94FCE1BC85A234D86352B9F70EB374 SWAP5 PUSH2 0x52B SWAP2 CALLDATASIZE SWAP2 ADD PUSH2 0x1C86 JUMP JUMPDEST SWAP3 CALLER DUP8 MSTORE PUSH1 0xE PUSH1 0x20 MSTORE PUSH2 0x543 PUSH1 0xFF DUP4 DUP10 KECCAK256 SLOAD AND PUSH2 0x21BC JUMP JUMPDEST PUSH2 0x54B PUSH2 0x2295 JUMP JUMPDEST PUSH1 0x1 PUSH1 0x1 PUSH1 0xA0 SHL SUB DUP4 AND SWAP6 PUSH2 0x561 DUP8 ISZERO ISZERO PUSH2 0x2201 JUMP JUMPDEST ISZERO PUSH2 0x5F4 JUMPI PUSH2 0x5CA PUSH9 0xAD78EBC5AC6200000 SWAP4 JUMPDEST PUSH2 0x597 PUSH8 0x6765C793FA10079D PUSH1 0x1B SHL PUSH2 0x590 DUP8 PUSH1 0x2 SLOAD PUSH2 0x1D5C JUMP JUMPDEST GT ISZERO PUSH2 0x2244 JUMP JUMPDEST DUP8 DUP10 MSTORE PUSH1 0x8 PUSH1 0x20 MSTORE DUP4 DUP10 KECCAK256 PUSH2 0x5AC DUP2 SLOAD PUSH2 0x2286 JUMP JUMPDEST SWAP1 SSTORE DUP8 DUP10 MSTORE PUSH1 0xD PUSH1 0x20 MSTORE TIMESTAMP DUP5 DUP11 KECCAK256 SSTORE PUSH2 0x5C5 DUP6 DUP3 PUSH2 0x22EB JUMP JUMPDEST PUSH2 0x2387 JUMP JUMPDEST PUSH2 0x5E5 DUP3 MLOAD SWAP5 DUP6 SWAP5 DUP6 MSTORE PUSH1 0x60 PUSH1 0x20 DUP7 ADD MSTORE PUSH1 0x60 DUP6 ADD SWAP1 PUSH2 0x1C0E JUMP JUMPDEST SWAP2 DUP4 ADD MSTORE SUB SWAP1 LOG2 PUSH1 0x1 PUSH1 0x6 SSTORE DUP1 RETURN JUMPDEST PUSH2 0x5CA PUSH9 0x56BC75E2D63100000 SWAP4 PUSH2 0x575 JUMP JUMPDEST DUP7 DUP1 REVERT JUMPDEST DUP6 DUP1 REVERT JUMPDEST POP POP CALLVALUE PUSH2 0x2B9 JUMPI DUP2 PUSH1 0x3 NOT CALLDATASIZE ADD SLT PUSH2 0x2B9 JUMPI PUSH1 0x20 SWAP1 MLOAD PUSH1 0x14 DUP2 MSTORE RETURN JUMPDEST POP POP CALLVALUE PUSH2 0x2B9 JUMPI PUSH1 0x20 CALLDATASIZE PUSH1 0x3 NOT ADD SLT PUSH2 0x2B9 JUMPI PUSH1 0x20 SWAP2 PUSH1 0xFF SWAP1 DUP3 SWAP1 PUSH1 0x1 PUSH1 0x1 PUSH1 0xA0 SHL SUB PUSH2 0x656 PUSH2 0x1BDD JUMP JUMPDEST AND DUP2 MSTORE PUSH1 0xE DUP6 MSTORE KECCAK256 SLOAD AND SWAP1 MLOAD SWAP1 ISZERO ISZERO DUP2 MSTORE RETURN JUMPDEST POP POP CALLVALUE PUSH2 0x2B9 JUMPI DUP1 PUSH1 0x3 NOT CALLDATASIZE ADD SLT PUSH2 0x2B9 JUMPI PUSH1 0x20 SWAP1 PUSH2 0x693 PUSH2 0x689 PUSH2 0x1BDD JUMP JUMPDEST PUSH1 0x24 CALLDATALOAD SWAP1 CALLER PUSH2 0x1D7F JUMP JUMPDEST MLOAD PUSH1 0x1 DUP2 MSTORE RETURN JUMPDEST SWAP1 POP DUP3 CALLVALUE PUSH2 0x73F JUMPI DUP3 PUSH1 0x3 NOT CALLDATASIZE ADD SLT PUSH2 0x73F JUMPI PUSH2 0x6B5 PUSH2 0x1BDD JUMP JUMPDEST SWAP2 DUP4 PUSH1 0x24 CALLDATALOAD SWAP3 CALLER DUP2 MSTORE PUSH1 0x1 PUSH1 0x20 MSTORE DUP2 DUP2 KECCAK256 PUSH1 0x1 DUP1 PUSH1 0xA0 SHL SUB DUP7 AND DUP3 MSTORE PUSH1 0x20 MSTORE KECCAK256 SLOAD SWAP1 DUP3 DUP3 LT PUSH2 0x6EE JUMPI PUSH1 0x20 DUP6 PUSH2 0x693 DUP6 DUP6 SUB DUP8 CALLER PUSH2 0x1F23 JUMP JUMPDEST PUSH1 0x84 SWAP1 PUSH1 0x20 DUP7 MLOAD SWAP2 PUSH3 0x461BCD PUSH1 0xE5 SHL DUP4 MSTORE DUP3 ADD MSTORE PUSH1 0x25 PUSH1 0x24 DUP3 ADD MSTORE PUSH32 0x45524332303A2064656372656173656420616C6C6F77616E63652062656C6F77 PUSH1 0x44 DUP3 ADD MSTORE PUSH5 0x207A65726F PUSH1 0xD8 SHL PUSH1 0x64 DUP3 ADD MSTORE REVERT JUMPDEST DUP1 REVERT JUMPDEST DUP4 DUP4 CALLVALUE PUSH2 0x2B9 JUMPI DUP1 PUSH1 0x3 NOT CALLDATASIZE ADD SLT PUSH2 0x2B9 JUMPI PUSH2 0x75C PUSH2 0x1BDD JUMP JUMPDEST SWAP1 PUSH2 0x765 PUSH2 0x1BF8 JUMP JUMPDEST CALLER DUP5 MSTORE PUSH1 0x20 SWAP1 PUSH1 0xE DUP3 MSTORE PUSH2 0x77E PUSH1 0xFF DUP5 DUP8 KECCAK256 SLOAD AND PUSH2 0x21BC JUMP JUMPDEST PUSH2 0x786 PUSH2 0x2295 JUMP JUMPDEST PUSH1 0x1 PUSH1 0x1 PUSH1 0xA0 SHL SUB DUP5 DUP2 AND SWAP4 DUP5 ISZERO SWAP3 SWAP1 SWAP2 SWAP1 DUP4 ISZERO DUP1 PUSH2 0x9D1 JUMPI JUMPDEST ISZERO PUSH2 0x99A JUMPI AND SWAP5 DUP6 DUP6 EQ PUSH2 0x95F JUMPI DUP6 DUP8 MSTORE PUSH1 0xC DUP5 MSTORE PUSH1 0xFF DUP3 DUP9 KECCAK256 SLOAD AND PUSH2 0x924 JUMPI PUSH1 0x2 SLOAD SWAP3 PUSH9 0x2B5E3AF16B1880000 SWAP4 DUP5 DUP2 ADD DUP1 SWAP2 GT PUSH2 0x911 JUMPI PUSH8 0x6765C793FA10079D PUSH1 0x1B SHL PUSH2 0x7F0 SWAP2 GT ISZERO PUSH2 0x2244 JUMP JUMPDEST DUP7 DUP9 MSTORE PUSH1 0xC DUP6 MSTORE DUP3 DUP9 KECCAK256 PUSH1 0x1 PUSH1 0xFF NOT DUP3 SLOAD AND OR SWAP1 SSTORE DUP6 DUP9 MSTORE PUSH1 0xD DUP6 MSTORE TIMESTAMP DUP4 DUP10 KECCAK256 SSTORE PUSH2 0x8E0 JUMPI PUSH1 0xFF PUSH1 0x5 SLOAD AND PUSH2 0x8A4 JUMPI PUSH1 0x2 SLOAD DUP4 DUP2 ADD DUP1 SWAP2 GT PUSH2 0x891 JUMPI PUSH32 0xB2DEE5F49E7A09A5D7C95CD4DD5DC6410EEA65D4E14519D6D3A6E14C8CF0E0E9 SWAP5 SWAP4 SWAP3 SWAP2 PUSH2 0x884 SWAP2 PUSH1 0x2 SSTORE DUP7 DUP10 MSTORE DUP9 DUP6 MSTORE DUP3 DUP10 KECCAK256 DUP5 DUP2 SLOAD ADD SWAP1 SSTORE DUP7 DUP10 PUSH1 0x0 DUP1 MLOAD PUSH1 0x20 PUSH2 0x24D0 DUP4 CODECOPY DUP2 MLOAD SWAP2 MSTORE DUP8 DUP7 MLOAD DUP9 DUP2 MSTORE LOG3 PUSH2 0x2387 JUMP JUMPDEST MLOAD SWAP1 DUP2 MSTORE LOG3 PUSH1 0x1 PUSH1 0x6 SSTORE DUP1 RETURN JUMPDEST PUSH4 0x4E487B71 PUSH1 0xE0 SHL DUP9 MSTORE PUSH1 0x11 DUP10 MSTORE PUSH1 0x24 DUP9 REVERT JUMPDEST DUP2 MLOAD PUSH3 0x461BCD PUSH1 0xE5 SHL DUP2 MSTORE DUP1 DUP10 ADD DUP6 SWAP1 MSTORE PUSH1 0x16 PUSH1 0x24 DUP3 ADD MSTORE PUSH22 0x151BDAD95B881D1C985B9CD9995C9CC81C185D5CD959 PUSH1 0x52 SHL PUSH1 0x44 DUP3 ADD MSTORE PUSH1 0x64 SWAP1 REVERT JUMPDEST DUP2 MLOAD PUSH3 0x461BCD PUSH1 0xE5 SHL DUP2 MSTORE DUP1 DUP10 ADD DUP6 SWAP1 MSTORE PUSH1 0x1F PUSH1 0x24 DUP3 ADD MSTORE PUSH1 0x0 DUP1 MLOAD PUSH1 0x20 PUSH2 0x24B0 DUP4 CODECOPY DUP2 MLOAD SWAP2 MSTORE PUSH1 0x44 DUP3 ADD MSTORE PUSH1 0x64 SWAP1 REVERT JUMPDEST PUSH4 0x4E487B71 PUSH1 0xE0 SHL DUP10 MSTORE PUSH1 0x11 DUP11 MSTORE PUSH1 0x24 DUP10 REVERT JUMPDEST DUP2 MLOAD PUSH3 0x461BCD PUSH1 0xE5 SHL DUP2 MSTORE DUP1 DUP10 ADD DUP6 SWAP1 MSTORE PUSH1 0x15 PUSH1 0x24 DUP3 ADD MSTORE PUSH21 0x155CD95C88185B1C9958591E481C9959995C9C9959 PUSH1 0x5A SHL PUSH1 0x44 DUP3 ADD MSTORE PUSH1 0x64 SWAP1 REVERT JUMPDEST DUP2 MLOAD PUSH3 0x461BCD PUSH1 0xE5 SHL DUP2 MSTORE DUP1 DUP10 ADD DUP6 SWAP1 MSTORE PUSH1 0x15 PUSH1 0x24 DUP3 ADD MSTORE PUSH21 0x21B0B73737BA103932B332B9103CB7BAB939B2B633 PUSH1 0x59 SHL PUSH1 0x44 DUP3 ADD MSTORE PUSH1 0x64 SWAP1 REVERT JUMPDEST DUP3 MLOAD PUSH3 0x461BCD PUSH1 0xE5 SHL DUP2 MSTORE DUP1 DUP11 ADD DUP7 SWAP1 MSTORE PUSH1 0x11 PUSH1 0x24 DUP3 ADD MSTORE PUSH17 0x496E76616C696420616464726573736573 PUSH1 0x78 SHL PUSH1 0x44 DUP3 ADD MSTORE PUSH1 0x64 SWAP1 REVERT JUMPDEST POP DUP2 DUP2 AND ISZERO ISZERO PUSH2 0x7A0 JUMP JUMPDEST DUP3 DUP5 CALLVALUE PUSH2 0x73F JUMPI DUP2 PUSH1 0x3 NOT CALLDATASIZE ADD SLT PUSH2 0x73F JUMPI PUSH2 0x9F6 PUSH2 0x1BDD JUMP JUMPDEST PUSH1 0x24 CALLDATALOAD SWAP3 PUSH1 0x14 DUP5 MUL SWAP3 DUP5 ISZERO SWAP4 DUP6 DUP2 DIV PUSH1 0x14 EQ DUP6 OR ISZERO PUSH2 0xA6B JUMPI PUSH1 0x64 SWAP1 DIV SWAP5 PUSH2 0xA1D DUP5 PUSH2 0x245C JUMP JUMPDEST SWAP5 PUSH1 0xA DUP3 MUL SWAP2 DUP3 DIV PUSH1 0xA EQ OR ISZERO PUSH2 0xA6B JUMPI PUSH1 0x80 SWAP7 POP DUP6 SWAP2 PUSH2 0x2710 PUSH2 0xA42 DUP8 DUP7 SWAP5 PUSH2 0x2374 JUMP JUMPDEST DIV SWAP5 PUSH1 0x1 DUP1 PUSH1 0xA0 SHL SUB AND DUP2 MSTORE DUP1 PUSH1 0x20 MSTORE KECCAK256 SLOAD LT ISZERO SWAP2 DUP2 MLOAD SWAP5 DUP6 MSTORE PUSH1 0x20 DUP6 ADD MSTORE DUP4 ADD MSTORE PUSH1 0x60 DUP3 ADD MSTORE RETURN JUMPDEST PUSH4 0x4E487B71 PUSH1 0xE0 SHL DUP3 MSTORE PUSH1 0x11 DUP8 MSTORE PUSH1 0x24 DUP3 REVERT JUMPDEST DUP3 DUP5 CALLVALUE PUSH2 0x73F JUMPI DUP1 PUSH1 0x3 NOT CALLDATASIZE ADD SLT PUSH2 0x73F JUMPI DUP2 MLOAD SWAP2 DUP2 DUP5 SLOAD SWAP3 PUSH1 0x1 DUP5 DUP2 SHR SWAP2 DUP2 DUP7 AND SWAP6 DUP7 ISZERO PUSH2 0xB8F JUMPI JUMPDEST PUSH1 0x20 SWAP7 DUP8 DUP6 LT DUP2 EQ PUSH2 0xB7C JUMPI SWAP1 DUP8 DUP10 SWAP11 SWAP3 DUP7 DUP12 SWAP10 SWAP11 SWAP12 MSTORE SWAP2 DUP3 PUSH1 0x0 EQ PUSH2 0xB52 JUMPI POP POP PUSH1 0x1 EQ PUSH2 0xAF7 JUMPI JUMPDEST DUP6 DUP9 PUSH2 0xAF3 DUP10 PUSH2 0xAE4 DUP5 DUP11 SUB DUP6 PUSH2 0x1C4E JUMP JUMPDEST MLOAD SWAP3 DUP3 DUP5 SWAP4 DUP5 MSTORE DUP4 ADD SWAP1 PUSH2 0x1C0E JUMP JUMPDEST SUB SWAP1 RETURN JUMPDEST DUP2 MSTORE DUP7 SWAP4 POP SWAP2 SWAP1 PUSH32 0x8A35ACFBC15FF81A39AE7D344FD709F28E8600B4AA8C65C6B64BFE7FE36BD19B JUMPDEST DUP3 DUP5 LT PUSH2 0xB3A JUMPI POP POP POP DUP3 ADD ADD DUP2 PUSH2 0xAE4 PUSH2 0xAF3 DUP9 PUSH2 0xAD2 JUMP JUMPDEST DUP1 SLOAD DUP5 DUP11 ADD DUP7 ADD MSTORE DUP9 SWAP6 POP DUP8 SWAP5 SWAP1 SWAP4 ADD SWAP3 DUP2 ADD PUSH2 0xB20 JUMP JUMPDEST PUSH1 0xFF NOT AND DUP9 DUP3 ADD MSTORE SWAP5 ISZERO ISZERO PUSH1 0x5 SHL DUP8 ADD SWAP1 SWAP5 ADD SWAP5 POP DUP6 SWAP4 POP PUSH2 0xAE4 SWAP3 POP PUSH2 0xAF3 SWAP2 POP DUP10 SWAP1 POP PUSH2 0xAD2 JUMP JUMPDEST PUSH4 0x4E487B71 PUSH1 0xE0 SHL DUP4 MSTORE PUSH1 0x22 DUP11 MSTORE PUSH1 0x24 DUP4 REVERT JUMPDEST SWAP3 PUSH1 0x7F AND SWAP3 PUSH2 0xAA8 JUMP JUMPDEST POP POP CALLVALUE PUSH2 0x2B9 JUMPI DUP2 PUSH1 0x3 NOT CALLDATASIZE ADD SLT PUSH2 0x2B9 JUMPI PUSH1 0x5 SLOAD SWAP1 MLOAD PUSH1 0x8 SWAP2 SWAP1 SWAP2 SHR PUSH1 0x1 PUSH1 0x1 PUSH1 0xA0 SHL SUB AND DUP2 MSTORE PUSH1 0x20 SWAP1 RETURN JUMPDEST POP POP CALLVALUE PUSH2 0x2B9 JUMPI DUP2 PUSH1 0x3 NOT CALLDATASIZE ADD SLT PUSH2 0x2B9 JUMPI PUSH1 0x20 SWAP1 MLOAD PUSH9 0x2B5E3AF16B1880000 DUP2 MSTORE RETURN JUMPDEST SWAP1 POP CALLVALUE PUSH2 0x396 JUMPI DUP3 PUSH1 0x3 NOT CALLDATASIZE ADD SLT PUSH2 0x396 JUMPI PUSH2 0xC04 PUSH2 0x1D01 JUMP JUMPDEST PUSH1 0x5 SLOAD SWAP1 PUSH1 0xFF DUP3 AND PUSH2 0xC48 JUMPI POP PUSH1 0xFF NOT AND PUSH1 0x1 OR PUSH1 0x5 SSTORE MLOAD CALLER DUP2 MSTORE PUSH32 0x62E78CEA01BEE320CD4E420270B5EA74000D11B0C9F74754EBDBFC544B05A258 SWAP1 PUSH1 0x20 SWAP1 LOG1 DUP1 RETURN JUMPDEST PUSH1 0x64 SWAP1 PUSH1 0x20 DUP5 MLOAD SWAP2 PUSH3 0x461BCD PUSH1 0xE5 SHL DUP4 MSTORE DUP3 ADD MSTORE PUSH1 0x10 PUSH1 0x24 DUP3 ADD MSTORE PUSH16 0x14185D5CD8589B194E881C185D5CD959 PUSH1 0x82 SHL PUSH1 0x44 DUP3 ADD MSTORE REVERT JUMPDEST POP POP CALLVALUE PUSH2 0x2B9 JUMPI DUP2 PUSH1 0x3 NOT CALLDATASIZE ADD SLT PUSH2 0x2B9 JUMPI PUSH1 0x20 SWAP1 MLOAD PUSH1 0xA DUP2 MSTORE RETURN JUMPDEST POP POP CALLVALUE PUSH2 0x2B9 JUMPI DUP2 PUSH1 0x3 NOT CALLDATASIZE ADD SLT PUSH2 0x2B9 JUMPI PUSH1 0xC0 SWAP1 PUSH8 0x4563918244F40000 PUSH1 0x2 SLOAD SWAP2 DUP1 MLOAD SWAP3 DUP4 MSTORE PUSH8 0x6765C793FA10079D PUSH1 0x1B SHL PUSH1 0x20 DUP5 ADD MSTORE DUP3 ADD MSTORE PUSH9 0x56BC75E2D63100000 PUSH1 0x60 DUP3 ADD MSTORE PUSH1 0x14 PUSH1 0x80 DUP3 ADD MSTORE PUSH1 0xA PUSH1 0xA0 DUP3 ADD MSTORE RETURN JUMPDEST POP POP CALLVALUE PUSH2 0x2B9 JUMPI PUSH1 0x20 CALLDATASIZE PUSH1 0x3 NOT ADD SLT PUSH2 0x2B9 JUMPI PUSH2 0xD0F PUSH2 0x1BDD JUMP JUMPDEST PUSH2 0xD17 PUSH2 0x1D01 JUMP JUMPDEST PUSH1 0x1 PUSH1 0x1 PUSH1 0xA0 SHL SUB AND DUP3 MSTORE PUSH1 0xF PUSH1 0x20 MSTORE DUP2 KECCAK256 DUP1 SLOAD PUSH1 0xFF NOT AND PUSH1 0x1 OR SWAP1 SSTORE DUP1 RETURN JUMPDEST POP POP CALLVALUE PUSH2 0x2B9 JUMPI PUSH1 0x20 CALLDATASIZE PUSH1 0x3 NOT ADD SLT PUSH2 0x2B9 JUMPI PUSH1 0x20 SWAP2 DUP2 SWAP1 PUSH1 0x1 PUSH1 0x1 PUSH1 0xA0 SHL SUB PUSH2 0xD5F PUSH2 0x1BDD JUMP JUMPDEST AND DUP2 MSTORE PUSH1 0x9 DUP5 MSTORE KECCAK256 SLOAD SWAP1 MLOAD SWAP1 DUP2 MSTORE RETURN JUMPDEST DUP4 SWAP2 POP CALLVALUE PUSH2 0x2B9 JUMPI DUP3 PUSH1 0x3 NOT CALLDATASIZE ADD SLT PUSH2 0x2B9 JUMPI PUSH2 0xD8A PUSH2 0x1BDD JUMP JUMPDEST PUSH1 0x24 CALLDATALOAD SWAP2 CALLER DUP5 MSTORE PUSH1 0xF PUSH1 0x20 MSTORE PUSH1 0xFF DUP6 DUP6 KECCAK256 SLOAD AND ISZERO PUSH2 0xDBB JUMPI POP SWAP1 PUSH2 0xDB8 SWAP2 PUSH2 0xDB3 DUP3 CALLER DUP4 PUSH2 0x2025 JUMP JUMPDEST PUSH2 0x20BD JUMP JUMPDEST DUP1 RETURN JUMPDEST PUSH1 0x64 SWAP1 PUSH1 0x20 DUP7 MLOAD SWAP2 PUSH3 0x461BCD PUSH1 0xE5 SHL DUP4 MSTORE DUP3 ADD MSTORE PUSH1 0x16 PUSH1 0x24 DUP3 ADD MSTORE PUSH22 0x2737BA1030BABA3437B934BD32B2103A3790313AB937 PUSH1 0x51 SHL PUSH1 0x44 DUP3 ADD MSTORE REVERT JUMPDEST SWAP1 POP DUP3 CALLVALUE PUSH2 0x73F JUMPI DUP3 PUSH1 0x3 NOT CALLDATASIZE ADD SLT PUSH2 0x73F JUMPI PUSH2 0xE12 PUSH2 0x1BDD JUMP JUMPDEST PUSH1 0x24 CALLDATALOAD SWAP1 CALLER DUP4 MSTORE PUSH1 0x20 SWAP2 PUSH1 0xE DUP4 MSTORE PUSH2 0xE2F PUSH1 0xFF DUP8 DUP7 KECCAK256 SLOAD AND PUSH2 0x21BC JUMP JUMPDEST PUSH2 0xE37 PUSH2 0x2295 JUMP JUMPDEST PUSH1 0x1 PUSH1 0x1 PUSH1 0xA0 SHL SUB DUP3 AND SWAP2 PUSH2 0xE4D DUP4 ISZERO ISZERO PUSH2 0x2201 JUMP JUMPDEST DUP2 ISZERO PUSH2 0xFB8 JUMPI PUSH1 0x14 DUP3 MUL DUP3 DUP2 DIV PUSH1 0x14 SUB PUSH2 0xFA5 JUMPI PUSH1 0x64 SWAP1 DIV SWAP6 PUSH1 0xA DUP4 MUL SWAP1 DUP4 DUP3 DIV PUSH1 0xA SUB PUSH2 0xF92 JUMPI POP PUSH2 0xE8D PUSH1 0x64 SWAP2 DUP3 PUSH2 0xE86 DUP6 PUSH2 0x245C JUMP JUMPDEST SWAP2 DIV PUSH2 0x2374 JUMP JUMPDEST DIV SWAP5 DUP4 DUP2 MSTORE DUP1 DUP6 MSTORE DUP7 DUP9 DUP3 KECCAK256 SLOAD LT ISZERO PUSH1 0x0 EQ PUSH2 0xF62 JUMPI SWAP2 PUSH2 0xF34 DUP3 PUSH32 0x1194345466E1634BE30DE2B1F42FF3942B5D68D85CF8776AF6DD47F3D45E4FE4 SWAP5 PUSH2 0xED6 DUP11 PUSH1 0x60 SWAP7 PUSH2 0x20BD JUMP JUMPDEST PUSH8 0x6765C793FA10079D PUSH1 0x1B SHL PUSH2 0xEEE DUP11 PUSH1 0x2 SLOAD PUSH2 0x1D5C JUMP JUMPDEST GT ISZERO PUSH2 0xF53 JUMPI JUMPDEST DUP7 DUP2 MSTORE PUSH1 0x9 DUP9 MSTORE DUP11 DUP2 KECCAK256 PUSH2 0xF0A DUP6 DUP3 SLOAD PUSH2 0x1D5C JUMP JUMPDEST SWAP1 SSTORE DUP7 DUP2 MSTORE PUSH1 0xA DUP9 MSTORE DUP11 DUP2 KECCAK256 PUSH2 0xF21 DUP12 DUP3 SLOAD PUSH2 0x1D5C JUMP JUMPDEST SWAP1 SSTORE DUP7 DUP2 MSTORE PUSH1 0xD DUP9 MSTORE DUP11 TIMESTAMP SWAP2 KECCAK256 SSTORE PUSH2 0x2387 JUMP JUMPDEST DUP8 MLOAD SWAP1 DUP2 MSTORE DUP7 DUP6 DUP3 ADD MSTORE DUP6 DUP9 DUP3 ADD MSTORE LOG2 PUSH1 0x1 PUSH1 0x6 SSTORE DUP4 MLOAD SWAP3 DUP4 MSTORE DUP3 ADD MSTORE RETURN JUMPDEST PUSH2 0xF5D DUP10 DUP4 PUSH2 0x22EB JUMP JUMPDEST PUSH2 0xEF5 JUMP JUMPDEST SWAP6 POP PUSH32 0x1194345466E1634BE30DE2B1F42FF3942B5D68D85CF8776AF6DD47F3D45E4FE4 SWAP2 PUSH2 0xF34 PUSH1 0x60 SWAP3 DUP9 PUSH2 0xED6 JUMP JUMPDEST PUSH4 0x4E487B71 PUSH1 0xE0 SHL DUP8 MSTORE PUSH1 0x11 SWAP1 MSTORE PUSH1 0x24 DUP7 REVERT JUMPDEST PUSH4 0x4E487B71 PUSH1 0xE0 SHL DUP7 MSTORE PUSH1 0x11 DUP8 MSTORE PUSH1 0x24 DUP7 REVERT JUMPDEST DUP7 MLOAD PUSH3 0x461BCD PUSH1 0xE5 SHL DUP2 MSTORE DUP1 DUP8 ADD DUP6 SWAP1 MSTORE PUSH1 0x17 PUSH1 0x24 DUP3 ADD MSTORE PUSH32 0x496E76616C696420707572636861736520616D6F756E74000000000000000000 PUSH1 0x44 DUP3 ADD MSTORE PUSH1 0x64 SWAP1 REVERT JUMPDEST DUP4 CALLVALUE PUSH2 0x73F JUMPI DUP1 PUSH1 0x3 NOT CALLDATASIZE ADD SLT PUSH2 0x73F JUMPI PUSH2 0x1014 PUSH2 0x1D01 JUMP JUMPDEST PUSH1 0x5 DUP1 SLOAD PUSH2 0x100 PUSH1 0x1 PUSH1 0xA8 SHL SUB NOT DUP2 AND SWAP1 SWAP2 SSTORE DUP2 SWAP1 PUSH1 0x8 SHR PUSH1 0x1 PUSH1 0x1 PUSH1 0xA0 SHL SUB AND PUSH32 0x8BE0079C531659141344CD1FD0A4F28419497F9722A3DAAFE3B4186F6B6457E0 DUP3 DUP1 LOG3 DUP1 RETURN JUMPDEST POP POP CALLVALUE PUSH2 0x2B9 JUMPI PUSH1 0x20 CALLDATASIZE PUSH1 0x3 NOT ADD SLT PUSH2 0x2B9 JUMPI PUSH1 0x20 SWAP2 DUP2 SWAP1 PUSH1 0x1 PUSH1 0x1 PUSH1 0xA0 SHL SUB PUSH2 0x1084 PUSH2 0x1BDD JUMP JUMPDEST AND DUP2 MSTORE DUP1 DUP5 MSTORE KECCAK256 SLOAD SWAP1 MLOAD SWAP1 DUP2 MSTORE RETURN JUMPDEST POP POP CALLVALUE PUSH2 0x2B9 JUMPI PUSH1 0x20 CALLDATASIZE PUSH1 0x3 NOT ADD SLT PUSH2 0x2B9 JUMPI PUSH2 0x10AE PUSH2 0x1BDD JUMP JUMPDEST PUSH2 0x10B6 PUSH2 0x1D01 JUMP JUMPDEST PUSH1 0x1 PUSH1 0x1 PUSH1 0xA0 SHL SUB AND DUP3 MSTORE PUSH1 0xF PUSH1 0x20 MSTORE DUP2 KECCAK256 DUP1 SLOAD PUSH1 0xFF NOT AND SWAP1 SSTORE DUP1 RETURN JUMPDEST POP POP CALLVALUE PUSH2 0x2B9 JUMPI PUSH1 0x20 CALLDATASIZE PUSH1 0x3 NOT ADD SLT PUSH2 0x2B9 JUMPI PUSH2 0x10EE PUSH2 0x1BDD JUMP JUMPDEST PUSH2 0x10F6 PUSH2 0x1D01 JUMP JUMPDEST PUSH1 0x1 PUSH1 0x1 PUSH1 0xA0 SHL SUB AND DUP1 DUP4 MSTORE PUSH1 0xE PUSH1 0x20 MSTORE SWAP1 DUP3 KECCAK256 DUP1 SLOAD PUSH1 0xFF NOT AND PUSH1 0x1 OR SWAP1 SSTORE PUSH32 0xE6BE4D6CC04EB0219337B22DB08C688969A9EC8E34D9A0A2BA38A114E050F1AE DUP3 DUP1 LOG2 DUP1 RETURN JUMPDEST POP POP CALLVALUE PUSH2 0x2B9 JUMPI DUP2 PUSH1 0x3 NOT CALLDATASIZE ADD SLT PUSH2 0x2B9 JUMPI PUSH1 0x20 SWAP1 MLOAD PUSH9 0x1158E460913D00000 DUP2 MSTORE RETURN JUMPDEST POP POP CALLVALUE PUSH2 0x2B9 JUMPI DUP2 PUSH1 0x3 NOT CALLDATASIZE ADD SLT PUSH2 0x2B9 JUMPI PUSH1 0x20 SWAP1 PUSH1 0xFF PUSH1 0x5 SLOAD AND SWAP1 MLOAD SWAP1 ISZERO ISZERO DUP2 MSTORE RETURN JUMPDEST DUP4 DUP4 CALLVALUE PUSH2 0x2B9 JUMPI PUSH1 0x20 SWAP1 DUP2 PUSH1 0x3 NOT CALLDATASIZE ADD SLT PUSH2 0x396 JUMPI PUSH2 0x11A1 PUSH2 0x1BDD JUMP JUMPDEST CALLER DUP5 MSTORE PUSH1 0xE DUP4 MSTORE PUSH2 0x11B7 PUSH1 0xFF DUP4 DUP7 KECCAK256 SLOAD AND PUSH2 0x21BC JUMP JUMPDEST PUSH2 0x11BF PUSH2 0x2295 JUMP JUMPDEST PUSH1 0x1 PUSH1 0x1 PUSH1 0xA0 SHL SUB DUP2 AND SWAP3 DUP4 ISZERO SWAP2 PUSH2 0x11D7 DUP4 ISZERO PUSH2 0x2201 JUMP JUMPDEST PUSH1 0x2 SLOAD SWAP3 PUSH9 0x1158E460913D00000 SWAP4 DUP5 DUP2 ADD DUP1 SWAP2 GT PUSH2 0x891 JUMPI PUSH8 0x6765C793FA10079D PUSH1 0x1B SHL PUSH2 0x1207 SWAP2 GT ISZERO PUSH2 0x2244 JUMP JUMPDEST DUP6 DUP8 MSTORE PUSH1 0xD DUP4 MSTORE TIMESTAMP DUP6 DUP9 KECCAK256 SSTORE PUSH2 0x12F2 JUMPI PUSH1 0xFF PUSH1 0x5 SLOAD AND PUSH2 0x12B6 JUMPI PUSH1 0x2 SLOAD DUP4 DUP2 ADD DUP1 SWAP2 GT PUSH2 0x12A3 JUMPI PUSH32 0xEA649950C183EEFA4A3AF9A5675131ECFB4793C91A300C4AA8E06EDDCDF4585A SWAP5 SWAP4 SWAP3 SWAP2 PUSH2 0x1286 SWAP2 PUSH1 0x2 SSTORE DUP7 DUP9 MSTORE DUP8 DUP4 MSTORE DUP5 DUP9 KECCAK256 DUP5 DUP2 SLOAD ADD SWAP1 SSTORE DUP7 DUP9 PUSH1 0x0 DUP1 MLOAD PUSH1 0x20 PUSH2 0x24D0 DUP4 CODECOPY DUP2 MLOAD SWAP2 MSTORE DUP6 DUP9 MLOAD DUP9 DUP2 MSTORE LOG3 PUSH2 0x2387 JUMP JUMPDEST DUP5 DUP7 MSTORE PUSH1 0x7 DUP2 MSTORE DUP3 DUP7 KECCAK256 SLOAD SWAP1 DUP4 MLOAD SWAP3 DUP4 MSTORE DUP3 ADD MSTORE LOG2 PUSH1 0x1 PUSH1 0x6 SSTORE DUP1 RETURN JUMPDEST PUSH4 0x4E487B71 PUSH1 0xE0 SHL DUP8 MSTORE PUSH1 0x11 DUP9 MSTORE PUSH1 0x24 DUP8 REVERT JUMPDEST DUP4 MLOAD PUSH3 0x461BCD PUSH1 0xE5 SHL DUP2 MSTORE DUP1 DUP9 ADD DUP4 SWAP1 MSTORE PUSH1 0x16 PUSH1 0x24 DUP3 ADD MSTORE PUSH22 0x151BDAD95B881D1C985B9CD9995C9CC81C185D5CD959 PUSH1 0x52 SHL PUSH1 0x44 DUP3 ADD MSTORE PUSH1 0x64 SWAP1 REVERT JUMPDEST DUP4 MLOAD PUSH3 0x461BCD PUSH1 0xE5 SHL DUP2 MSTORE DUP1 DUP9 ADD DUP4 SWAP1 MSTORE PUSH1 0x1F PUSH1 0x24 DUP3 ADD MSTORE PUSH1 0x0 DUP1 MLOAD PUSH1 0x20 PUSH2 0x24B0 DUP4 CODECOPY DUP2 MLOAD SWAP2 MSTORE PUSH1 0x44 DUP3 ADD MSTORE PUSH1 0x64 SWAP1 REVERT JUMPDEST POP POP CALLVALUE PUSH2 0x2B9 JUMPI DUP2 PUSH1 0x3 NOT CALLDATASIZE ADD SLT PUSH2 0x2B9 JUMPI PUSH1 0x20 SWAP1 MLOAD PUSH10 0x10F0CF064DD59200000 DUP2 MSTORE RETURN JUMPDEST POP POP CALLVALUE PUSH2 0x2B9 JUMPI PUSH1 0x20 DUP1 PUSH1 0x3 NOT CALLDATASIZE ADD SLT PUSH2 0x396 JUMPI PUSH1 0xE0 SWAP3 PUSH1 0x1 PUSH1 0x1 PUSH1 0xA0 SHL SUB PUSH2 0x136F PUSH2 0x1BDD JUMP JUMPDEST AND DUP2 MSTORE DUP1 DUP3 MSTORE DUP3 DUP2 KECCAK256 SLOAD SWAP3 PUSH1 0x7 DUP4 MSTORE DUP1 DUP3 KECCAK256 SLOAD SWAP1 PUSH1 0x8 DUP5 MSTORE DUP1 DUP4 KECCAK256 SLOAD PUSH1 0x9 DUP6 MSTORE DUP2 DUP5 KECCAK256 SLOAD SWAP2 PUSH1 0xA DUP7 MSTORE DUP1 DUP6 KECCAK256 SLOAD SWAP4 PUSH1 0xB DUP8 MSTORE DUP2 DUP1 DUP8 KECCAK256 SLOAD SWAP7 PUSH1 0xD DUP10 MSTORE KECCAK256 SLOAD SWAP7 DUP3 MLOAD SWAP9 DUP10 MSTORE DUP9 ADD MSTORE DUP7 ADD MSTORE PUSH1 0x60 DUP6 ADD MSTORE PUSH1 0x80 DUP5 ADD MSTORE PUSH1 0xA0 DUP4 ADD MSTORE PUSH1 0xC0 DUP3 ADD MSTORE RETURN JUMPDEST POP POP CALLVALUE PUSH2 0x2B9 JUMPI PUSH1 0x20 CALLDATASIZE PUSH1 0x3 NOT ADD SLT PUSH2 0x2B9 JUMPI PUSH2 0x13EA PUSH2 0x1BDD JUMP JUMPDEST PUSH2 0x13F2 PUSH2 0x1D01 JUMP JUMPDEST PUSH1 0x1 PUSH1 0x1 PUSH1 0xA0 SHL SUB AND DUP1 DUP4 MSTORE PUSH1 0xE PUSH1 0x20 MSTORE SWAP1 DUP3 KECCAK256 DUP1 SLOAD PUSH1 0xFF NOT AND SWAP1 SSTORE PUSH32 0xC6711413797B8A562634E98C95D50E7619D39702ED5B82CE335DC93546C3A88C DUP3 DUP1 LOG2 DUP1 RETURN JUMPDEST DUP4 SWAP1 CALLVALUE PUSH2 0x2B9 JUMPI PUSH1 0x20 CALLDATASIZE PUSH1 0x3 NOT ADD SLT PUSH2 0x2B9 JUMPI PUSH2 0xDB8 SWAP1 CALLDATALOAD CALLER PUSH2 0x20BD JUMP JUMPDEST POP POP CALLVALUE PUSH2 0x2B9 JUMPI DUP1 PUSH1 0x3 NOT CALLDATASIZE ADD SLT PUSH2 0x2B9 JUMPI PUSH2 0xDB8 SWAP1 PUSH2 0x1471 PUSH2 0x1BDD JUMP JUMPDEST PUSH2 0x148B PUSH1 0xFF PUSH1 0x24 CALLDATALOAD SWAP4 CALLER DUP8 MSTORE PUSH1 0xE PUSH1 0x20 MSTORE DUP7 KECCAK256 SLOAD AND PUSH2 0x21BC JUMP JUMPDEST PUSH2 0x14A6 PUSH8 0x6765C793FA10079D PUSH1 0x1B SHL PUSH2 0x590 DUP5 PUSH1 0x2 SLOAD PUSH2 0x1D5C JUMP JUMPDEST PUSH2 0x22EB JUMP JUMPDEST POP POP CALLVALUE PUSH2 0x2B9 JUMPI PUSH1 0x20 CALLDATASIZE PUSH1 0x3 NOT ADD SLT PUSH2 0x2B9 JUMPI PUSH1 0x20 SWAP2 DUP2 SWAP1 PUSH1 0x1 PUSH1 0x1 PUSH1 0xA0 SHL SUB PUSH2 0x14D3 PUSH2 0x1BDD JUMP JUMPDEST AND DUP2 MSTORE PUSH1 0x8 DUP5 MSTORE KECCAK256 SLOAD SWAP1 MLOAD SWAP1 DUP2 MSTORE RETURN JUMPDEST SWAP1 POP CALLVALUE PUSH2 0x396 JUMPI DUP3 PUSH1 0x3 NOT CALLDATASIZE ADD SLT PUSH2 0x396 JUMPI PUSH2 0x14FD PUSH2 0x1D01 JUMP JUMPDEST PUSH1 0x5 SLOAD SWAP1 PUSH1 0xFF DUP3 AND ISZERO PUSH2 0x153F JUMPI POP PUSH1 0xFF NOT AND PUSH1 0x5 SSTORE MLOAD CALLER DUP2 MSTORE PUSH32 0x5DB9EE0A495BF2E6FF9C91A7834C1BA4FDD244A5E8AA4E537BD38AEAE4B073AA SWAP1 PUSH1 0x20 SWAP1 LOG1 DUP1 RETURN JUMPDEST PUSH1 0x64 SWAP1 PUSH1 0x20 DUP5 MLOAD SWAP2 PUSH3 0x461BCD PUSH1 0xE5 SHL DUP4 MSTORE DUP3 ADD MSTORE PUSH1 0x14 PUSH1 0x24 DUP3 ADD MSTORE PUSH20 0x14185D5CD8589B194E881B9BDD081C185D5CD959 PUSH1 0x62 SHL PUSH1 0x44 DUP3 ADD MSTORE REVERT JUMPDEST POP POP CALLVALUE PUSH2 0x2B9 JUMPI DUP2 PUSH1 0x3 NOT CALLDATASIZE ADD SLT PUSH2 0x2B9 JUMPI PUSH1 0x20 SWAP1 MLOAD PUSH9 0x821AB0D4414980000 DUP2 MSTORE RETURN JUMPDEST DUP4 DUP4 CALLVALUE PUSH2 0x2B9 JUMPI DUP1 PUSH1 0x3 NOT CALLDATASIZE ADD SLT PUSH2 0x2B9 JUMPI PUSH2 0x15B7 PUSH2 0x1BDD JUMP JUMPDEST PUSH1 0x24 CALLDATALOAD PUSH8 0xFFFFFFFFFFFFFFFF DUP2 GT PUSH2 0x174E JUMPI PUSH2 0x15D6 SWAP1 CALLDATASIZE SWAP1 DUP7 ADD PUSH2 0x1C86 JUMP JUMPDEST SWAP1 CALLER DUP5 MSTORE PUSH1 0x20 SWAP2 PUSH1 0xE DUP4 MSTORE PUSH2 0x15F0 PUSH1 0xFF DUP6 DUP8 KECCAK256 SLOAD AND PUSH2 0x21BC JUMP JUMPDEST PUSH2 0x15F8 PUSH2 0x2295 JUMP JUMPDEST PUSH1 0x1 PUSH1 0x1 PUSH1 0xA0 SHL SUB DUP3 AND SWAP4 DUP5 ISZERO SWAP3 PUSH2 0x1610 DUP5 ISZERO PUSH2 0x2201 JUMP JUMPDEST PUSH1 0x2 SLOAD SWAP4 PUSH9 0x821AB0D4414980000 SWAP5 DUP6 DUP2 ADD DUP1 SWAP2 GT PUSH2 0x911 JUMPI PUSH8 0x6765C793FA10079D PUSH1 0x1B SHL PUSH2 0x1640 SWAP2 GT ISZERO PUSH2 0x2244 JUMP JUMPDEST DUP7 DUP9 MSTORE PUSH1 0xD DUP7 MSTORE TIMESTAMP DUP4 DUP10 KECCAK256 SSTORE PUSH2 0x171D JUMPI PUSH1 0xFF PUSH1 0x5 SLOAD AND PUSH2 0x16E1 JUMPI PUSH1 0x2 SLOAD DUP5 DUP2 ADD DUP1 SWAP2 GT PUSH2 0x891 JUMPI SWAP2 PUSH2 0x16C3 PUSH32 0xBD15E993EC2D091A085012A3EF36204A7AC264569DA5A0B56BAC12B10DEEBADB SWAP7 SWAP6 SWAP5 SWAP3 PUSH2 0x16D6 SWAP5 PUSH1 0x2 SSTORE DUP9 DUP11 MSTORE DUP10 DUP8 MSTORE DUP3 DUP11 KECCAK256 DUP7 DUP2 SLOAD ADD SWAP1 SSTORE DUP9 DUP11 PUSH1 0x0 DUP1 MLOAD PUSH1 0x20 PUSH2 0x24D0 DUP4 CODECOPY DUP2 MLOAD SWAP2 MSTORE DUP10 DUP7 MLOAD DUP11 DUP2 MSTORE LOG3 PUSH2 0x2387 JUMP JUMPDEST DUP1 DUP1 MLOAD SWAP6 DUP7 SWAP6 DUP7 MSTORE DUP6 ADD MSTORE DUP4 ADD SWAP1 PUSH2 0x1C0E JUMP JUMPDEST SUB SWAP1 LOG2 PUSH1 0x1 PUSH1 0x6 SSTORE DUP1 RETURN JUMPDEST DUP2 MLOAD PUSH3 0x461BCD PUSH1 0xE5 SHL DUP2 MSTORE DUP1 DUP10 ADD DUP7 SWAP1 MSTORE PUSH1 0x16 PUSH1 0x24 DUP3 ADD MSTORE PUSH22 0x151BDAD95B881D1C985B9CD9995C9CC81C185D5CD959 PUSH1 0x52 SHL PUSH1 0x44 DUP3 ADD MSTORE PUSH1 0x64 SWAP1 REVERT JUMPDEST DUP2 MLOAD PUSH3 0x461BCD PUSH1 0xE5 SHL DUP2 MSTORE DUP1 DUP10 ADD DUP7 SWAP1 MSTORE PUSH1 0x1F PUSH1 0x24 DUP3 ADD MSTORE PUSH1 0x0 DUP1 MLOAD PUSH1 0x20 PUSH2 0x24B0 DUP4 CODECOPY DUP2 MLOAD SWAP2 MSTORE PUSH1 0x44 DUP3 ADD MSTORE PUSH1 0x64 SWAP1 REVERT JUMPDEST DUP4 DUP1 REVERT JUMPDEST POP POP CALLVALUE PUSH2 0x2B9 JUMPI DUP1 PUSH1 0x3 NOT CALLDATASIZE ADD SLT PUSH2 0x2B9 JUMPI PUSH2 0x693 PUSH1 0x20 SWAP3 PUSH2 0x179B PUSH2 0x1775 PUSH2 0x1BDD JUMP JUMPDEST CALLER DUP4 MSTORE PUSH1 0x1 DUP7 MSTORE DUP5 DUP4 KECCAK256 PUSH1 0x1 PUSH1 0x1 PUSH1 0xA0 SHL SUB DUP3 AND DUP5 MSTORE DUP7 MSTORE SWAP2 DUP5 SWAP1 KECCAK256 SLOAD PUSH1 0x24 CALLDATALOAD SWAP1 PUSH2 0x1D5C JUMP JUMPDEST SWAP1 CALLER PUSH2 0x1F23 JUMP JUMPDEST POP POP CALLVALUE PUSH2 0x2B9 JUMPI DUP2 PUSH1 0x3 NOT CALLDATASIZE ADD SLT PUSH2 0x2B9 JUMPI PUSH1 0x20 SWAP1 MLOAD PUSH8 0x6765C793FA10079D PUSH1 0x1B SHL DUP2 MSTORE RETURN JUMPDEST POP POP CALLVALUE PUSH2 0x2B9 JUMPI PUSH1 0x20 CALLDATASIZE PUSH1 0x3 NOT ADD SLT PUSH2 0x2B9 JUMPI PUSH1 0x20 SWAP2 PUSH1 0xFF SWAP1 DUP3 SWAP1 PUSH1 0x1 PUSH1 0x1 PUSH1 0xA0 SHL SUB PUSH2 0x17F3 PUSH2 0x1BDD JUMP JUMPDEST AND DUP2 MSTORE PUSH1 0xC DUP6 MSTORE KECCAK256 SLOAD AND SWAP1 MLOAD SWAP1 ISZERO ISZERO DUP2 MSTORE RETURN JUMPDEST POP POP CALLVALUE PUSH2 0x2B9 JUMPI DUP2 PUSH1 0x3 NOT CALLDATASIZE ADD SLT PUSH2 0x2B9 JUMPI PUSH1 0x20 SWAP1 MLOAD PUSH1 0x12 DUP2 MSTORE RETURN JUMPDEST POP POP CALLVALUE PUSH2 0x2B9 JUMPI DUP2 PUSH1 0x3 NOT CALLDATASIZE ADD SLT PUSH2 0x2B9 JUMPI PUSH1 0x20 SWAP1 MLOAD PUSH11 0x52B7D2DCC80CD2E4000000 DUP2 MSTORE RETURN JUMPDEST POP POP CALLVALUE PUSH2 0x2B9 JUMPI PUSH1 0x20 CALLDATASIZE PUSH1 0x3 NOT ADD SLT PUSH2 0x2B9 JUMPI PUSH1 0x20 SWAP2 DUP2 SWAP1 PUSH1 0x1 PUSH1 0x1 PUSH1 0xA0 SHL SUB PUSH2 0x1870 PUSH2 0x1BDD JUMP JUMPDEST AND DUP2 MSTORE PUSH1 0x7 DUP5 MSTORE KECCAK256 SLOAD SWAP1 MLOAD SWAP1 DUP2 MSTORE RETURN JUMPDEST POP POP CALLVALUE PUSH2 0x2B9 JUMPI PUSH1 0x20 CALLDATASIZE PUSH1 0x3 NOT ADD SLT PUSH2 0x2B9 JUMPI PUSH1 0x20 SWAP2 DUP2 SWAP1 PUSH1 0x1 PUSH1 0x1 PUSH1 0xA0 SHL SUB PUSH2 0x18A8 PUSH2 0x1BDD JUMP JUMPDEST AND DUP2 MSTORE PUSH1 0xD DUP5 MSTORE KECCAK256 SLOAD SWAP1 MLOAD SWAP1 DUP2 MSTORE RETURN JUMPDEST POP POP CALLVALUE PUSH2 0x2B9 JUMPI PUSH1 0x60 CALLDATASIZE PUSH1 0x3 NOT ADD SLT PUSH2 0x2B9 JUMPI PUSH1 0x20 SWAP1 PUSH2 0x693 PUSH2 0x18D9 PUSH2 0x1BDD JUMP JUMPDEST PUSH2 0x18E1 PUSH2 0x1BF8 JUMP JUMPDEST PUSH1 0x44 CALLDATALOAD SWAP2 PUSH2 0x18F0 DUP4 CALLER DUP4 PUSH2 0x2025 JUMP JUMPDEST PUSH2 0x1D7F JUMP JUMPDEST POP POP CALLVALUE PUSH2 0x2B9 JUMPI PUSH1 0x20 CALLDATASIZE PUSH1 0x3 NOT ADD SLT PUSH2 0x2B9 JUMPI PUSH1 0x20 SWAP2 DUP2 SWAP1 PUSH1 0x1 PUSH1 0x1 PUSH1 0xA0 SHL SUB PUSH2 0x191D PUSH2 0x1BDD JUMP JUMPDEST AND DUP2 MSTORE PUSH1 0xB DUP5 MSTORE KECCAK256 SLOAD SWAP1 MLOAD SWAP1 DUP2 MSTORE RETURN JUMPDEST POP POP CALLVALUE PUSH2 0x2B9 JUMPI PUSH1 0x20 CALLDATASIZE PUSH1 0x3 NOT ADD SLT PUSH2 0x2B9 JUMPI PUSH1 0x20 SWAP2 DUP2 SWAP1 PUSH1 0x1 PUSH1 0x1 PUSH1 0xA0 SHL SUB PUSH2 0x1955 PUSH2 0x1BDD JUMP JUMPDEST AND DUP2 MSTORE PUSH1 0xA DUP5 MSTORE KECCAK256 SLOAD SWAP1 MLOAD SWAP1 DUP2 MSTORE RETURN JUMPDEST POP POP CALLVALUE PUSH2 0x2B9 JUMPI DUP2 PUSH1 0x3 NOT CALLDATASIZE ADD SLT PUSH2 0x2B9 JUMPI PUSH1 0x20 SWAP1 PUSH1 0x2 SLOAD SWAP1 MLOAD SWAP1 DUP2 MSTORE RETURN JUMPDEST POP POP CALLVALUE PUSH2 0x2B9 JUMPI DUP1 PUSH1 0x3 NOT CALLDATASIZE ADD SLT PUSH2 0x2B9 JUMPI PUSH1 0x20 SWAP1 PUSH2 0x693 PUSH2 0x19A4 PUSH2 0x1BDD JUMP JUMPDEST PUSH1 0x24 CALLDATALOAD SWAP1 CALLER PUSH2 0x1F23 JUMP JUMPDEST DUP3 DUP5 CALLVALUE PUSH2 0x73F JUMPI DUP1 PUSH1 0x3 NOT CALLDATASIZE ADD SLT PUSH2 0x73F JUMPI DUP2 MLOAD SWAP2 DUP2 PUSH1 0x3 SLOAD SWAP3 PUSH1 0x1 DUP5 DUP2 SHR SWAP2 DUP2 DUP7 AND SWAP6 DUP7 ISZERO PUSH2 0x1A99 JUMPI JUMPDEST PUSH1 0x20 SWAP7 DUP8 DUP6 LT DUP2 EQ PUSH2 0xB7C JUMPI DUP9 SWAP10 POP SWAP7 DUP9 SWAP7 SWAP8 DUP6 DUP3 SWAP11 MSTORE SWAP2 DUP3 PUSH1 0x0 EQ PUSH2 0x1A72 JUMPI POP POP PUSH1 0x1 EQ PUSH2 0x1A16 JUMPI JUMPDEST POP POP POP PUSH2 0xAF3 SWAP3 SWAP2 PUSH2 0xAE4 SWAP2 SUB DUP6 PUSH2 0x1C4E JUMP JUMPDEST SWAP2 SWAP1 DUP7 SWAP4 POP PUSH1 0x3 DUP4 MSTORE PUSH32 0xC2575A0E9E593C00F959F8C92F12DB2869C3395A3B0502D05E2516446F71F85B JUMPDEST DUP3 DUP5 LT PUSH2 0x1A5A JUMPI POP POP POP DUP3 ADD ADD DUP2 PUSH2 0xAE4 PUSH2 0xAF3 PUSH2 0x1A03 JUMP JUMPDEST DUP1 SLOAD DUP5 DUP11 ADD DUP7 ADD MSTORE DUP9 SWAP6 POP DUP8 SWAP5 SWAP1 SWAP4 ADD SWAP3 DUP2 ADD PUSH2 0x1A41 JUMP JUMPDEST PUSH1 0xFF NOT AND DUP8 DUP3 ADD MSTORE SWAP4 ISZERO ISZERO PUSH1 0x5 SHL DUP7 ADD SWAP1 SWAP4 ADD SWAP4 POP DUP5 SWAP3 POP PUSH2 0xAE4 SWAP2 POP PUSH2 0xAF3 SWAP1 POP PUSH2 0x1A03 JUMP JUMPDEST SWAP3 PUSH1 0x7F AND SWAP3 PUSH2 0x19D9 JUMP JUMPDEST DUP4 DUP4 CALLVALUE PUSH2 0x2B9 JUMPI PUSH1 0x20 SWAP1 DUP2 PUSH1 0x3 NOT CALLDATASIZE ADD SLT PUSH2 0x396 JUMPI PUSH2 0x1AC0 PUSH2 0x1BDD JUMP JUMPDEST CALLER DUP5 MSTORE PUSH1 0xE DUP4 MSTORE PUSH2 0x1AD6 PUSH1 0xFF DUP4 DUP7 KECCAK256 SLOAD AND PUSH2 0x21BC JUMP JUMPDEST PUSH2 0x1ADE PUSH2 0x2295 JUMP JUMPDEST PUSH1 0x1 PUSH1 0x1 PUSH1 0xA0 SHL SUB DUP2 AND SWAP3 DUP4 ISZERO SWAP2 PUSH2 0x1AF6 DUP4 ISZERO PUSH2 0x2201 JUMP JUMPDEST PUSH1 0x2 SLOAD SWAP3 PUSH8 0x4563918244F40000 SWAP4 DUP5 DUP2 ADD DUP1 SWAP2 GT PUSH2 0x891 JUMPI PUSH8 0x6765C793FA10079D PUSH1 0x1B SHL PUSH2 0x1B25 SWAP2 GT ISZERO PUSH2 0x2244 JUMP JUMPDEST DUP6 DUP8 MSTORE PUSH1 0x7 DUP4 MSTORE DUP5 DUP8 KECCAK256 PUSH2 0x1B39 DUP2 SLOAD PUSH2 0x2286 JUMP JUMPDEST SWAP1 SSTORE DUP6 DUP8 MSTORE PUSH1 0xD DUP4 MSTORE TIMESTAMP DUP6 DUP9 KECCAK256 SSTORE PUSH2 0x12F2 JUMPI PUSH1 0xFF PUSH1 0x5 SLOAD AND PUSH2 0x12B6 JUMPI PUSH1 0x2 SLOAD DUP4 DUP2 ADD DUP1 SWAP2 GT PUSH2 0x12A3 JUMPI PUSH32 0xEA649950C183EEFA4A3AF9A5675131ECFB4793C91A300C4AA8E06EDDCDF4585A SWAP5 SWAP4 SWAP3 SWAP2 PUSH2 0x1286 SWAP2 PUSH1 0x2 SSTORE DUP7 DUP9 MSTORE DUP8 DUP4 MSTORE DUP5 DUP9 KECCAK256 DUP5 DUP2 SLOAD ADD SWAP1 SSTORE DUP7 DUP9 PUSH1 0x0 DUP1 MLOAD PUSH1 0x20 PUSH2 0x24D0 DUP4 CODECOPY DUP2 MLOAD SWAP2 MSTORE DUP6 DUP9 MLOAD DUP9 DUP2 MSTORE LOG3 PUSH2 0x2387 JUMP JUMPDEST DUP5 SWAP1 CALLVALUE PUSH2 0x2B9 JUMPI DUP2 PUSH1 0x3 NOT CALLDATASIZE ADD SLT PUSH2 0x2B9 JUMPI DUP1 PUSH9 0x3635C9ADC5DEA00000 PUSH1 0x20 SWAP3 MSTORE RETURN JUMPDEST PUSH1 0x4 CALLDATALOAD SWAP1 PUSH1 0x1 PUSH1 0x1 PUSH1 0xA0 SHL SUB DUP3 AND DUP3 SUB PUSH2 0x1BF3 JUMPI JUMP JUMPDEST PUSH1 0x0 DUP1 REVERT JUMPDEST PUSH1 0x24 CALLDATALOAD SWAP1 PUSH1 0x1 PUSH1 0x1 PUSH1 0xA0 SHL SUB DUP3 AND DUP3 SUB PUSH2 0x1BF3 JUMPI JUMP JUMPDEST SWAP2 SWAP1 DUP3 MLOAD SWAP3 DUP4 DUP3 MSTORE PUSH1 0x0 JUMPDEST DUP5 DUP2 LT PUSH2 0x1C3A JUMPI POP POP DUP3 PUSH1 0x0 PUSH1 0x20 DUP1 SWAP5 SWAP6 DUP5 ADD ADD MSTORE PUSH1 0x1F DUP1 NOT SWAP2 ADD AND ADD ADD SWAP1 JUMP JUMPDEST PUSH1 0x20 DUP2 DUP4 ADD DUP2 ADD MLOAD DUP5 DUP4 ADD DUP3 ADD MSTORE ADD PUSH2 0x1C19 JUMP JUMPDEST SWAP1 PUSH1 0x1F DUP1 NOT SWAP2 ADD AND DUP2 ADD SWAP1 DUP2 LT PUSH8 0xFFFFFFFFFFFFFFFF DUP3 GT OR PUSH2 0x1C70 JUMPI PUSH1 0x40 MSTORE JUMP JUMPDEST PUSH4 0x4E487B71 PUSH1 0xE0 SHL PUSH1 0x0 MSTORE PUSH1 0x41 PUSH1 0x4 MSTORE PUSH1 0x24 PUSH1 0x0 REVERT JUMPDEST DUP2 PUSH1 0x1F DUP3 ADD SLT ISZERO PUSH2 0x1BF3 JUMPI DUP1 CALLDATALOAD SWAP1 PUSH8 0xFFFFFFFFFFFFFFFF DUP3 GT PUSH2 0x1C70 JUMPI PUSH1 0x40 MLOAD SWAP3 PUSH2 0x1CBB PUSH1 0x1F DUP5 ADD PUSH1 0x1F NOT AND PUSH1 0x20 ADD DUP6 PUSH2 0x1C4E JUMP JUMPDEST DUP3 DUP5 MSTORE PUSH1 0x20 DUP4 DUP4 ADD ADD GT PUSH2 0x1BF3 JUMPI DUP2 PUSH1 0x0 SWAP3 PUSH1 0x20 DUP1 SWAP4 ADD DUP4 DUP7 ADD CALLDATACOPY DUP4 ADD ADD MSTORE SWAP1 JUMP JUMPDEST CALLVALUE PUSH2 0x1BF3 JUMPI PUSH1 0x0 CALLDATASIZE PUSH1 0x3 NOT ADD SLT PUSH2 0x1BF3 JUMPI PUSH1 0x20 PUSH1 0x40 MLOAD PUSH9 0x56BC75E2D63100000 DUP2 MSTORE RETURN JUMPDEST PUSH1 0x5 SLOAD PUSH1 0x8 SHR PUSH1 0x1 PUSH1 0x1 PUSH1 0xA0 SHL SUB AND CALLER SUB PUSH2 0x1D18 JUMPI JUMP JUMPDEST PUSH1 0x64 PUSH1 0x40 MLOAD PUSH3 0x461BCD PUSH1 0xE5 SHL DUP2 MSTORE PUSH1 0x20 PUSH1 0x4 DUP3 ADD MSTORE PUSH1 0x20 PUSH1 0x24 DUP3 ADD MSTORE PUSH32 0x4F776E61626C653A2063616C6C6572206973206E6F7420746865206F776E6572 PUSH1 0x44 DUP3 ADD MSTORE REVERT JUMPDEST SWAP2 SWAP1 DUP3 ADD DUP1 SWAP3 GT PUSH2 0x1D69 JUMPI JUMP JUMPDEST PUSH4 0x4E487B71 PUSH1 0xE0 SHL PUSH1 0x0 MSTORE PUSH1 0x11 PUSH1 0x4 MSTORE PUSH1 0x24 PUSH1 0x0 REVERT JUMPDEST PUSH1 0x1 PUSH1 0x1 PUSH1 0xA0 SHL SUB SWAP1 DUP2 AND SWAP2 DUP3 ISZERO PUSH2 0x1ED0 JUMPI AND SWAP2 DUP3 ISZERO PUSH2 0x1E7F JUMPI PUSH1 0xFF PUSH1 0x5 SLOAD AND PUSH2 0x1E41 JUMPI PUSH1 0x0 DUP3 DUP2 MSTORE DUP1 PUSH1 0x20 MSTORE PUSH1 0x40 DUP2 KECCAK256 SLOAD SWAP2 DUP1 DUP4 LT PUSH2 0x1DED JUMPI PUSH1 0x40 DUP3 DUP3 PUSH1 0x0 DUP1 MLOAD PUSH1 0x20 PUSH2 0x24D0 DUP4 CODECOPY DUP2 MLOAD SWAP2 MSTORE SWAP6 DUP8 PUSH1 0x20 SWAP7 MSTORE DUP3 DUP7 MSTORE SUB DUP3 DUP3 KECCAK256 SSTORE DUP7 DUP2 MSTORE KECCAK256 DUP2 DUP2 SLOAD ADD SWAP1 SSTORE PUSH1 0x40 MLOAD SWAP1 DUP2 MSTORE LOG3 JUMP JUMPDEST PUSH1 0x40 MLOAD PUSH3 0x461BCD PUSH1 0xE5 SHL DUP2 MSTORE PUSH1 0x20 PUSH1 0x4 DUP3 ADD MSTORE PUSH1 0x26 PUSH1 0x24 DUP3 ADD MSTORE PUSH32 0x45524332303A207472616E7366657220616D6F756E7420657863656564732062 PUSH1 0x44 DUP3 ADD MSTORE PUSH6 0x616C616E6365 PUSH1 0xD0 SHL PUSH1 0x64 DUP3 ADD MSTORE PUSH1 0x84 SWAP1 REVERT JUMPDEST PUSH1 0x40 MLOAD PUSH3 0x461BCD PUSH1 0xE5 SHL DUP2 MSTORE PUSH1 0x20 PUSH1 0x4 DUP3 ADD MSTORE PUSH1 0x16 PUSH1 0x24 DUP3 ADD MSTORE PUSH22 0x151BDAD95B881D1C985B9CD9995C9CC81C185D5CD959 PUSH1 0x52 SHL PUSH1 0x44 DUP3 ADD MSTORE PUSH1 0x64 SWAP1 REVERT JUMPDEST PUSH1 0x40 MLOAD PUSH3 0x461BCD PUSH1 0xE5 SHL DUP2 MSTORE PUSH1 0x20 PUSH1 0x4 DUP3 ADD MSTORE PUSH1 0x23 PUSH1 0x24 DUP3 ADD MSTORE PUSH32 0x45524332303A207472616E7366657220746F20746865207A65726F2061646472 PUSH1 0x44 DUP3 ADD MSTORE PUSH3 0x657373 PUSH1 0xE8 SHL PUSH1 0x64 DUP3 ADD MSTORE PUSH1 0x84 SWAP1 REVERT JUMPDEST PUSH1 0x40 MLOAD PUSH3 0x461BCD PUSH1 0xE5 SHL DUP2 MSTORE PUSH1 0x20 PUSH1 0x4 DUP3 ADD MSTORE PUSH1 0x25 PUSH1 0x24 DUP3 ADD MSTORE PUSH32 0x45524332303A207472616E736665722066726F6D20746865207A65726F206164 PUSH1 0x44 DUP3 ADD MSTORE PUSH5 0x6472657373 PUSH1 0xD8 SHL PUSH1 0x64 DUP3 ADD MSTORE PUSH1 0x84 SWAP1 REVERT JUMPDEST PUSH1 0x1 PUSH1 0x1 PUSH1 0xA0 SHL SUB SWAP1 DUP2 AND SWAP2 DUP3 ISZERO PUSH2 0x1FD4 JUMPI AND SWAP2 DUP3 ISZERO PUSH2 0x1F84 JUMPI PUSH1 0x20 PUSH32 0x8C5BE1E5EBEC7D5BD14F71427D1E84F3DD0314C0F7B2291E5B200AC8C7C3B925 SWAP2 DUP4 PUSH1 0x0 MSTORE PUSH1 0x1 DUP3 MSTORE PUSH1 0x40 PUSH1 0x0 KECCAK256 DUP6 PUSH1 0x0 MSTORE DUP3 MSTORE DUP1 PUSH1 0x40 PUSH1 0x0 KECCAK256 SSTORE PUSH1 0x40 MLOAD SWAP1 DUP2 MSTORE LOG3 JUMP JUMPDEST PUSH1 0x40 MLOAD PUSH3 0x461BCD PUSH1 0xE5 SHL DUP2 MSTORE PUSH1 0x20 PUSH1 0x4 DUP3 ADD MSTORE PUSH1 0x22 PUSH1 0x24 DUP3 ADD MSTORE PUSH32 0x45524332303A20617070726F766520746F20746865207A65726F206164647265 PUSH1 0x44 DUP3 ADD MSTORE PUSH2 0x7373 PUSH1 0xF0 SHL PUSH1 0x64 DUP3 ADD MSTORE PUSH1 0x84 SWAP1 REVERT JUMPDEST PUSH1 0x40 MLOAD PUSH3 0x461BCD PUSH1 0xE5 SHL DUP2 MSTORE PUSH1 0x20 PUSH1 0x4 DUP3 ADD MSTORE PUSH1 0x24 DUP1 DUP3 ADD MSTORE PUSH32 0x45524332303A20617070726F76652066726F6D20746865207A65726F20616464 PUSH1 0x44 DUP3 ADD MSTORE PUSH4 0x72657373 PUSH1 0xE0 SHL PUSH1 0x64 DUP3 ADD MSTORE PUSH1 0x84 SWAP1 REVERT JUMPDEST SWAP1 PUSH1 0x1 DUP1 PUSH1 0xA0 SHL SUB DUP1 DUP4 AND PUSH1 0x0 MSTORE PUSH1 0x1 PUSH1 0x20 MSTORE PUSH1 0x40 PUSH1 0x0 KECCAK256 SWAP1 DUP3 AND PUSH1 0x0 MSTORE PUSH1 0x20 MSTORE PUSH1 0x40 PUSH1 0x0 KECCAK256 SLOAD SWAP3 PUSH1 0x0 NOT DUP5 SUB PUSH2 0x205D JUMPI JUMPDEST POP POP POP POP JUMP JUMPDEST DUP1 DUP5 LT PUSH2 0x2078 JUMPI PUSH2 0x206F SWAP4 SUB SWAP2 PUSH2 0x1F23 JUMP JUMPDEST CODESIZE DUP1 DUP1 DUP1 PUSH2 0x2057 JUMP JUMPDEST PUSH1 0x40 MLOAD PUSH3 0x461BCD PUSH1 0xE5 SHL DUP2 MSTORE PUSH1 0x20 PUSH1 0x4 DUP3 ADD MSTORE PUSH1 0x1D PUSH1 0x24 DUP3 ADD MSTORE PUSH32 0x45524332303A20696E73756666696369656E7420616C6C6F77616E6365000000 PUSH1 0x44 DUP3 ADD MSTORE PUSH1 0x64 SWAP1 REVERT JUMPDEST PUSH1 0x1 PUSH1 0x1 PUSH1 0xA0 SHL SUB AND DUP1 ISZERO PUSH2 0x216D JUMPI PUSH1 0xFF PUSH1 0x5 SLOAD AND PUSH2 0x1E41 JUMPI PUSH1 0x0 SWAP2 DUP2 DUP4 MSTORE DUP3 PUSH1 0x20 MSTORE PUSH1 0x40 DUP4 KECCAK256 SLOAD DUP2 DUP2 LT PUSH2 0x211D JUMPI DUP2 PUSH1 0x0 DUP1 MLOAD PUSH1 0x20 PUSH2 0x24D0 DUP4 CODECOPY DUP2 MLOAD SWAP2 MSTORE SWAP3 PUSH1 0x20 SWAP3 DUP6 DUP8 MSTORE DUP7 DUP5 MSTORE SUB PUSH1 0x40 DUP7 KECCAK256 SSTORE DUP1 PUSH1 0x2 SLOAD SUB PUSH1 0x2 SSTORE PUSH1 0x40 MLOAD SWAP1 DUP2 MSTORE LOG3 JUMP JUMPDEST PUSH1 0x40 MLOAD PUSH3 0x461BCD PUSH1 0xE5 SHL DUP2 MSTORE PUSH1 0x20 PUSH1 0x4 DUP3 ADD MSTORE PUSH1 0x22 PUSH1 0x24 DUP3 ADD MSTORE PUSH32 0x45524332303A206275726E20616D6F756E7420657863656564732062616C616E PUSH1 0x44 DUP3 ADD MSTORE PUSH2 0x6365 PUSH1 0xF0 SHL PUSH1 0x64 DUP3 ADD MSTORE PUSH1 0x84 SWAP1 REVERT JUMPDEST PUSH1 0x40 MLOAD PUSH3 0x461BCD PUSH1 0xE5 SHL DUP2 MSTORE PUSH1 0x20 PUSH1 0x4 DUP3 ADD MSTORE PUSH1 0x21 PUSH1 0x24 DUP3 ADD MSTORE PUSH32 0x45524332303A206275726E2066726F6D20746865207A65726F20616464726573 PUSH1 0x44 DUP3 ADD MSTORE PUSH1 0x73 PUSH1 0xF8 SHL PUSH1 0x64 DUP3 ADD MSTORE PUSH1 0x84 SWAP1 REVERT JUMPDEST ISZERO PUSH2 0x21C3 JUMPI JUMP JUMPDEST PUSH1 0x40 MLOAD PUSH3 0x461BCD PUSH1 0xE5 SHL DUP2 MSTORE PUSH1 0x20 PUSH1 0x4 DUP3 ADD MSTORE PUSH1 0x16 PUSH1 0x24 DUP3 ADD MSTORE PUSH22 0x139BDD08185D5D1A1BDC9A5E9959081D1BC81B5A5B9D PUSH1 0x52 SHL PUSH1 0x44 DUP3 ADD MSTORE PUSH1 0x64 SWAP1 REVERT JUMPDEST ISZERO PUSH2 0x2208 JUMPI JUMP JUMPDEST PUSH1 0x40 MLOAD PUSH3 0x461BCD PUSH1 0xE5 SHL DUP2 MSTORE PUSH1 0x20 PUSH1 0x4 DUP3 ADD MSTORE PUSH1 0x14 PUSH1 0x24 DUP3 ADD MSTORE PUSH20 0x496E76616C696420757365722061646472657373 PUSH1 0x60 SHL PUSH1 0x44 DUP3 ADD MSTORE PUSH1 0x64 SWAP1 REVERT JUMPDEST ISZERO PUSH2 0x224B JUMPI JUMP JUMPDEST PUSH1 0x40 MLOAD PUSH3 0x461BCD PUSH1 0xE5 SHL DUP2 MSTORE PUSH1 0x20 PUSH1 0x4 DUP3 ADD MSTORE PUSH1 0x13 PUSH1 0x24 DUP3 ADD MSTORE PUSH19 0x13585E081CDD5C1C1B1E48195E18D959591959 PUSH1 0x6A SHL PUSH1 0x44 DUP3 ADD MSTORE PUSH1 0x64 SWAP1 REVERT JUMPDEST PUSH1 0x0 NOT DUP2 EQ PUSH2 0x1D69 JUMPI PUSH1 0x1 ADD SWAP1 JUMP JUMPDEST PUSH1 0x2 PUSH1 0x6 SLOAD EQ PUSH2 0x22A6 JUMPI PUSH1 0x2 PUSH1 0x6 SSTORE JUMP JUMPDEST PUSH1 0x40 MLOAD PUSH3 0x461BCD PUSH1 0xE5 SHL DUP2 MSTORE PUSH1 0x20 PUSH1 0x4 DUP3 ADD MSTORE PUSH1 0x1F PUSH1 0x24 DUP3 ADD MSTORE PUSH32 0x5265656E7472616E637947756172643A207265656E7472616E742063616C6C00 PUSH1 0x44 DUP3 ADD MSTORE PUSH1 0x64 SWAP1 REVERT JUMPDEST PUSH1 0x1 PUSH1 0x1 PUSH1 0xA0 SHL SUB AND SWAP1 DUP2 ISZERO PUSH2 0x2341 JUMPI PUSH1 0xFF PUSH1 0x5 SLOAD AND PUSH2 0x1E41 JUMPI PUSH1 0x0 DUP1 MLOAD PUSH1 0x20 PUSH2 0x24D0 DUP4 CODECOPY DUP2 MLOAD SWAP2 MSTORE PUSH1 0x20 DUP3 PUSH2 0x2325 PUSH1 0x0 SWAP5 PUSH1 0x2 SLOAD PUSH2 0x1D5C JUMP JUMPDEST PUSH1 0x2 SSTORE DUP5 DUP5 MSTORE DUP4 DUP3 MSTORE PUSH1 0x40 DUP5 KECCAK256 DUP2 DUP2 SLOAD ADD SWAP1 SSTORE PUSH1 0x40 MLOAD SWAP1 DUP2 MSTORE LOG3 JUMP JUMPDEST PUSH1 0x40 MLOAD PUSH3 0x461BCD PUSH1 0xE5 SHL DUP2 MSTORE PUSH1 0x20 PUSH1 0x4 DUP3 ADD MSTORE PUSH1 0x1F PUSH1 0x24 DUP3 ADD MSTORE PUSH1 0x0 DUP1 MLOAD PUSH1 0x20 PUSH2 0x24B0 DUP4 CODECOPY DUP2 MLOAD SWAP2 MSTORE PUSH1 0x44 DUP3 ADD MSTORE PUSH1 0x64 SWAP1 REVERT JUMPDEST DUP2 DUP2 MUL SWAP3 SWAP2 DUP2 ISZERO SWAP2 DUP5 DIV EQ OR ISZERO PUSH2 0x1D69 JUMPI JUMP JUMPDEST PUSH1 0x1 PUSH1 0x1 PUSH1 0xA0 SHL SUB AND PUSH1 0x0 DUP2 DUP2 MSTORE PUSH1 0x20 DUP2 DUP2 MSTORE PUSH1 0x40 DUP1 DUP4 KECCAK256 SLOAD PUSH1 0xB SWAP1 SWAP3 MSTORE DUP3 KECCAK256 DUP1 SLOAD SWAP3 SWAP1 SWAP2 PUSH10 0x10F0CF064DD59200000 DUP2 LT PUSH2 0x240B JUMPI POP POP PUSH1 0x4 SWAP2 JUMPDEST DUP1 DUP4 SUB PUSH2 0x23D0 JUMPI POP POP POP POP JUMP JUMPDEST DUP3 PUSH32 0xF406C17C43E8510021F8E9D634ACA0C743B8343139C1E9B0FF49314654BE0049 SWAP4 PUSH1 0x40 SWAP4 SSTORE DUP3 MLOAD SWAP2 DUP3 MSTORE PUSH1 0x20 DUP3 ADD MSTORE LOG2 CODESIZE DUP1 DUP1 DUP1 PUSH2 0x2057 JUMP JUMPDEST PUSH9 0x3635C9ADC5DEA00000 DUP2 LT PUSH2 0x2426 JUMPI POP POP PUSH1 0x3 SWAP2 JUMPDEST PUSH2 0x23C3 JUMP JUMPDEST PUSH9 0x1B1AE4D6E2EF500000 DUP2 LT PUSH2 0x2440 JUMPI POP POP PUSH1 0x2 SWAP2 PUSH2 0x23C3 JUMP JUMPDEST PUSH9 0x56BC75E2D63100000 SWAP1 SWAP4 SWAP2 SWAP4 LT PUSH2 0x2421 JUMPI PUSH1 0x1 SWAP3 POP PUSH2 0x23C3 JUMP JUMPDEST PUSH1 0x1 PUSH1 0x1 PUSH1 0xA0 SHL SUB AND PUSH1 0x0 SWAP1 DUP2 MSTORE PUSH1 0xB PUSH1 0x20 MSTORE PUSH1 0x40 SWAP1 KECCAK256 SLOAD PUSH1 0x4 DUP2 EQ PUSH2 0x24A9 JUMPI PUSH1 0x3 DUP2 EQ PUSH2 0x24A3 JUMPI PUSH1 0x2 DUP2 EQ PUSH2 0x249D JUMPI PUSH1 0x1 EQ PUSH2 0x2498 JUMPI PUSH1 0x64 SWAP1 JUMP JUMPDEST PUSH1 0x6E SWAP1 JUMP JUMPDEST POP PUSH1 0x78 SWAP1 JUMP JUMPDEST POP PUSH1 0x82 SWAP1 JUMP JUMPDEST POP PUSH1 0x96 SWAP1 JUMP INVALID GASLIMIT MSTORE NUMBER ORIGIN ADDRESS GASPRICE KECCAK256 PUSH14 0x696E7420746F20746865207A6572 PUSH16 0x206164647265737300DDF252AD1BE2C8 SWAP12 PUSH10 0xC2B068FC378DAA952BA7 CALL PUSH4 0xC4A11628 CREATE2 GAS 0x4D CREATE2 0x23 0xB3 0xEF LOG2 PUSH5 0x6970667358 0x22 SLT KECCAK256 AND 0xE6 ADDMOD DUP8 PUSH13 0xAD35AB2662E405056756046B07 SWAP16 MLOAD 0xCC PUSH19 0x7936520E15B9579F2EE164736F6C6343000813 STOP CALLER "},"methodIdentifiers":{"CASHBACK_RATE()":"82d97545","DISCOUNT_RATE()":"b510c589","DISEASE_BONUS()":"c4a5b743","EARLY_DETECTION_BONUS()":"f5f550c2","HEALTHY_BONUS()":"5d67cdfd","INITIAL_SUPPLY()":"2ff2e9dc","MAX_SUPPLY()":"32cb6b0c","PHOTO_REWARD()":"c287fc73","REFERRAL_REWARD()":"84a3a0f3","TIER_1_THRESHOLD()":"ef2f90cf","TIER_2_THRESHOLD()":"cb9ea337","TIER_3_THRESHOLD()":"00bb6e92","TIER_4_THRESHOLD()":"57eb05f3","TREATMENT_SUCCESS_BONUS()":"3b8569c7","addAuthorizedBurner(address)":"7c86819f","addAuthorizedMinter(address)":"5f710f5c","allowance(address,address)":"dd62ed3e","approve(address,uint256)":"095ea7b3","authorizedBurners(address)":"ec0cdf62","authorizedMinters(address)":"aa2fe91b","balanceOf(address)":"70a08231","burn(uint256)":"42966c68","burnFrom(address,uint256)":"79cc6790","calculateDiscount(address,uint256)":"9a7ec6c3","decimals()":"313ce567","decreaseAllowance(address,uint256)":"a457c2d7","diseaseDetections(address)":"3fb0289a","emergencyWithdraw()":"db2e21bc","getContractInfo()":"7cc1f867","getUserStats(address)":"4e43603a","hasReferralBonus(address)":"3152dcd8","increaseAllowance(address,uint256)":"39509351","lastActivityTime(address)":"268257df","mint(address,uint256)":"40c10f19","name()":"06fdde03","owner()":"8da5cb5b","pause()":"8456cb59","paused()":"5c975abb","photoCount(address)":"2f731e57","processPurchase(address,uint256)":"78547d5f","removeAuthorizedBurner(address)":"6902ee94","removeAuthorizedMinter(address)":"475ae039","renounceOwnership()":"715018a6","rewardDiseaseDetection(address,bool,string)":"ba508eac","rewardHealthyPlant(address)":"5af6c137","rewardPhotoUpload(address)":"0364ecb1","rewardReferral(address,address)":"9cfc4eeb","rewardTreatmentSuccess(address,string)":"398d8f9d","symbol()":"95d89b41","totalPurchases(address)":"7ad37869","totalSavings(address)":"2134ec27","totalSupply()":"18160ddd","transfer(address,uint256)":"a9059cbb","transferFrom(address,address,uint256)":"23b872dd","transferOwnership(address)":"f2fde38b","unpause()":"3f4ba83a","userTier(address)":"21c7557c"}}}}}