{"contracts/AgroAICore.sol":{"AgroAICore":{"abi":[{"inputs":[{"internalType":"address","name":"_functionsRouter","type":"address"},{"internalType":"address","name":"_vrfCoordinator","type":"address"},{"internalType":"address","name":"_agroToken","type":"address"},{"internalType":"bytes32","name":"_donID","type":"bytes32"},{"internalType":"uint64","name":"_subscriptionId","type":"uint64"},{"internalType":"uint64","name":"_vrfSubscriptionId","type":"uint64"},{"internalType":"bytes32","name":"_keyHash","type":"bytes32"},{"internalType":"address","name":"_ethUsdPriceFeed","type":"address"}],"stateMutability":"nonpayable","type":"constructor"},{"inputs":[],"name":"EmptyArgs","type":"error"},{"inputs":[],"name":"EmptySource","type":"error"},{"inputs":[],"name":"NoInlineSecrets","type":"error"},{"inputs":[{"internalType":"address","name":"have","type":"address"},{"internalType":"address","name":"want","type":"address"}],"name":"OnlyCoordinatorCanFulfill","type":"error"},{"inputs":[],"name":"OnlyRouterCanFulfill","type":"error"},{"anonymous":false,"inputs":[{"indexed":true,"internalType":"string","name":"disease","type":"string"},{"indexed":false,"internalType":"string","name":"location","type":"string"},{"indexed":false,"internalType":"uint256","name":"severity","type":"uint256"}],"name":"CommunityAlertTriggered","type":"event"},{"anonymous":false,"inputs":[{"indexed":true,"internalType":"address","name":"from","type":"address"},{"indexed":true,"internalType":"address","name":"to","type":"address"}],"name":"OwnershipTransferRequested","type":"event"},{"anonymous":false,"inputs":[{"indexed":true,"internalType":"address","name":"from","type":"address"},{"indexed":true,"internalType":"address","name":"to","type":"address"}],"name":"OwnershipTransferred","type":"event"},{"anonymous":false,"inputs":[{"indexed":true,"internalType":"bytes32","name":"requestId","type":"bytes32"},{"indexed":true,"internalType":"address","name":"user","type":"address"},{"indexed":false,"internalType":"uint256","name":"reward","type":"uint256"}],"name":"PhotoAnalysisCompleted","type":"event"},{"anonymous":false,"inputs":[{"indexed":true,"internalType":"bytes32","name":"requestId","type":"bytes32"},{"indexed":true,"internalType":"address","name":"user","type":"address"},{"indexed":false,"internalType":"string","name":"ipfsHash","type":"string"}],"name":"PhotoAnalysisRequested","type":"event"},{"anonymous":false,"inputs":[{"indexed":true,"internalType":"address","name":"user","type":"address"},{"indexed":false,"internalType":"string","name":"productId","type":"string"},{"indexed":false,"internalType":"uint256","name":"amount","type":"uint256"},{"indexed":false,"internalType":"uint256","name":"discount","type":"uint256"}],"name":"PurchaseProcessed","type":"event"},{"anonymous":false,"inputs":[{"indexed":true,"internalType":"uint256","name":"requestId","type":"uint256"},{"indexed":false,"internalType":"uint256","name":"randomValue","type":"uint256"}],"name":"RandomnessReceived","type":"event"},{"anonymous":false,"inputs":[{"indexed":true,"internalType":"uint256","name":"requestId","type":"uint256"},{"indexed":true,"internalType":"address","name":"user","type":"address"}],"name":"RandomnessRequested","type":"event"},{"anonymous":false,"inputs":[{"indexed":true,"internalType":"bytes32","name":"id","type":"bytes32"}],"name":"RequestFulfilled","type":"event"},{"anonymous":false,"inputs":[{"indexed":true,"internalType":"bytes32","name":"id","type":"bytes32"}],"name":"RequestSent","type":"event"},{"anonymous":false,"inputs":[{"indexed":true,"internalType":"address","name":"user","type":"address"},{"indexed":false,"internalType":"string","name":"treatmentId","type":"string"},{"indexed":false,"internalType":"bool","name":"successful","type":"bool"}],"name":"TreatmentCompleted","type":"event"},{"anonymous":false,"inputs":[{"indexed":true,"internalType":"address","name":"user","type":"address"},{"indexed":false,"internalType":"string","name":"treatmentId","type":"string"},{"indexed":false,"internalType":"string","name":"disease","type":"string"}],"name":"TreatmentStarted","type":"event"},{"anonymous":false,"inputs":[{"indexed":false,"internalType":"uint256","name":"timestamp","type":"uint256"},{"indexed":false,"internalType":"uint256","name":"alertsChecked","type":"uint256"}],"name":"UpkeepPerformed","type":"event"},{"inputs":[],"name":"acceptOwnership","outputs":[],"stateMutability":"nonpayable","type":"function"},{"inputs":[{"internalType":"uint256","name":"","type":"uint256"}],"name":"activeAlerts","outputs":[{"internalType":"string","name":"","type":"string"}],"stateMutability":"view","type":"function"},{"inputs":[{"internalType":"uint256","name":"","type":"uint256"}],"name":"activeTreatments","outputs":[{"internalType":"string","name":"","type":"string"}],"stateMutability":"view","type":"function"},{"inputs":[],"name":"agroToken","outputs":[{"internalType":"contract AgroAIToken","name":"","type":"address"}],"stateMutability":"view","type":"function"},{"inputs":[{"internalType":"uint256","name":"","type":"uint256"}],"name":"allDetections","outputs":[{"internalType":"bytes32","name":"","type":"bytes32"}],"stateMutability":"view","type":"function"},{"inputs":[],"name":"callbackGasLimit","outputs":[{"internalType":"uint32","name":"","type":"uint32"}],"stateMutability":"view","type":"function"},{"inputs":[{"internalType":"bytes","name":"","type":"bytes"}],"name":"checkUpkeep","outputs":[{"internalType":"bool","name":"upkeepNeeded","type":"bool"},{"internalType":"bytes","name":"","type":"bytes"}],"stateMutability":"view","type":"function"},{"inputs":[{"internalType":"string","name":"","type":"string"}],"name":"communityAlerts","outputs":[{"internalType":"string","name":"disease","type":"string"},{"internalType":"string","name":"location","type":"string"},{"internalType":"uint256","name":"severity","type":"uint256"},{"internalType":"uint256","name":"timestamp","type":"uint256"},{"internalType":"uint256","name":"affectedUsers","type":"uint256"},{"internalType":"bool","name":"active","type":"bool"}],"stateMutability":"view","type":"function"},{"inputs":[],"name":"communityAlertsSource","outputs":[{"internalType":"string","name":"","type":"string"}],"stateMutability":"view","type":"function"},{"inputs":[{"internalType":"string","name":"treatmentId","type":"string"},{"internalType":"bool","name":"successful","type":"bool"},{"internalType":"uint256","name":"effectivenessScore","type":"uint256"}],"name":"completeTreatment","outputs":[],"stateMutability":"nonpayable","type":"function"},{"inputs":[{"internalType":"bytes32","name":"","type":"bytes32"}],"name":"detections","outputs":[{"internalType":"address","name":"user","type":"address"},{"internalType":"string","name":"ipfsHash","type":"string"},{"internalType":"string","name":"cropType","type":"string"},{"internalType":"string","name":"location","type":"string"},{"internalType":"string","name":"disease","type":"string"},{"internalType":"uint256","name":"confidence","type":"uint256"},{"internalType":"uint256","name":"timestamp","type":"uint256"},{"internalType":"bool","name":"verified","type":"bool"},{"internalType":"uint256","name":"rewardAmount","type":"uint256"},{"internalType":"bytes32","name":"chainlinkRequestId","type":"bytes32"}],"stateMutability":"view","type":"function"},{"inputs":[],"name":"donID","outputs":[{"internalType":"bytes32","name":"","type":"bytes32"}],"stateMutability":"view","type":"function"},{"inputs":[],"name":"emergencyPause","outputs":[],"stateMutability":"nonpayable","type":"function"},{"inputs":[],"name":"ethUsdPriceFeed","outputs":[{"internalType":"contract AggregatorV3Interface","name":"","type":"address"}],"stateMutability":"view","type":"function"},{"inputs":[],"name":"gasLimit","outputs":[{"internalType":"uint32","name":"","type":"uint32"}],"stateMutability":"view","type":"function"},{"inputs":[],"name":"getActiveCommunityAlerts","outputs":[{"internalType":"string[]","name":"","type":"string[]"}],"stateMutability":"view","type":"function"},{"inputs":[{"internalType":"address","name":"user","type":"address"}],"name":"getUserDetections","outputs":[{"internalType":"bytes32[]","name":"","type":"bytes32[]"}],"stateMutability":"view","type":"function"},{"inputs":[{"internalType":"bytes32","name":"requestId","type":"bytes32"},{"internalType":"bytes","name":"response","type":"bytes"},{"internalType":"bytes","name":"err","type":"bytes"}],"name":"handleOracleFulfillment","outputs":[],"stateMutability":"nonpayable","type":"function"},{"inputs":[],"name":"keyHash","outputs":[{"internalType":"bytes32","name":"","type":"bytes32"}],"stateMutability":"view","type":"function"},{"inputs":[],"name":"lastUpkeepTime","outputs":[{"internalType":"uint256","name":"","type":"uint256"}],"stateMutability":"view","type":"function"},{"inputs":[],"name":"marketIntelligenceSource","outputs":[{"internalType":"string","name":"","type":"string"}],"stateMutability":"view","type":"function"},{"inputs":[],"name":"numWords","outputs":[{"internalType":"uint32","name":"","type":"uint32"}],"stateMutability":"view","type":"function"},{"inputs":[],"name":"owner","outputs":[{"internalType":"address","name":"","type":"address"}],"stateMutability":"view","type":"function"},{"inputs":[{"internalType":"bytes32","name":"","type":"bytes32"}],"name":"pendingRequests","outputs":[{"internalType":"address","name":"","type":"address"}],"stateMutability":"view","type":"function"},{"inputs":[{"internalType":"bytes","name":"","type":"bytes"}],"name":"performUpkeep","outputs":[],"stateMutability":"nonpayable","type":"function"},{"inputs":[],"name":"photoVerificationSource","outputs":[{"internalType":"string","name":"","type":"string"}],"stateMutability":"view","type":"function"},{"inputs":[{"internalType":"string","name":"productId","type":"string"},{"internalType":"uint256","name":"baseAmount","type":"uint256"}],"name":"processPurchase","outputs":[{"internalType":"uint256","name":"discount","type":"uint256"},{"internalType":"uint256","name":"cashback","type":"uint256"}],"stateMutability":"nonpayable","type":"function"},{"inputs":[],"name":"purchaseOptimizationSource","outputs":[{"internalType":"string","name":"","type":"string"}],"stateMutability":"view","type":"function"},{"inputs":[{"internalType":"uint256","name":"requestId","type":"uint256"},{"internalType":"uint256[]","name":"randomWords","type":"uint256[]"}],"name":"rawFulfillRandomWords","outputs":[],"stateMutability":"nonpayable","type":"function"},{"inputs":[],"name":"requestConfirmations","outputs":[{"internalType":"uint16","name":"","type":"uint16"}],"stateMutability":"view","type":"function"},{"inputs":[{"internalType":"string","name":"backendUrl","type":"string"},{"internalType":"string","name":"ipfsHash","type":"string"},{"internalType":"string","name":"cropType","type":"string"},{"internalType":"string","name":"location","type":"string"},{"internalType":"string","name":"latitude","type":"string"},{"internalType":"string","name":"longitude","type":"string"}],"name":"requestPhotoAnalysis","outputs":[{"internalType":"bytes32","name":"requestId","type":"bytes32"}],"stateMutability":"nonpayable","type":"function"},{"inputs":[],"name":"requestRandomness","outputs":[{"internalType":"uint256","name":"requestId","type":"uint256"}],"stateMutability":"nonpayable","type":"function"},{"inputs":[{"internalType":"string","name":"treatmentId","type":"string"},{"internalType":"string","name":"disease","type":"string"},{"internalType":"uint256","name":"expectedDuration","type":"uint256"}],"name":"startTreatment","outputs":[],"stateMutability":"nonpayable","type":"function"},{"inputs":[],"name":"subscriptionId","outputs":[{"internalType":"uint64","name":"","type":"uint64"}],"stateMutability":"view","type":"function"},{"inputs":[{"internalType":"address","name":"to","type":"address"}],"name":"transferOwnership","outputs":[],"stateMutability":"nonpayable","type":"function"},{"inputs":[],"name":"treatmentTrackingSource","outputs":[{"internalType":"string","name":"","type":"string"}],"stateMutability":"view","type":"function"},{"inputs":[{"internalType":"string","name":"","type":"string"}],"name":"treatments","outputs":[{"internalType":"address","name":"user","type":"address"},{"internalType":"string","name":"treatmentId","type":"string"},{"internalType":"string","name":"disease","type":"string"},{"internalType":"uint256","name":"startTime","type":"uint256"},{"internalType":"uint256","name":"expectedDuration","type":"uint256"},{"internalType":"bool","name":"completed","type":"bool"},{"internalType":"bool","name":"successful","type":"bool"},{"internalType":"uint256","name":"effectivenessScore","type":"uint256"}],"stateMutability":"view","type":"function"},{"inputs":[{"internalType":"uint32","name":"_gasLimit","type":"uint32"},{"internalType":"uint256","name":"_upkeepInterval","type":"uint256"},{"internalType":"bytes32","name":"_donID","type":"bytes32"},{"internalType":"uint64","name":"_subscriptionId","type":"uint64"}],"name":"updateConfig","outputs":[],"stateMutability":"nonpayable","type":"function"},{"inputs":[],"name":"upkeepInterval","outputs":[{"internalType":"uint256","name":"","type":"uint256"}],"stateMutability":"view","type":"function"},{"inputs":[{"internalType":"address","name":"","type":"address"}],"name":"userAlertCount","outputs":[{"internalType":"uint256","name":"","type":"uint256"}],"stateMutability":"view","type":"function"},{"inputs":[{"internalType":"address","name":"","type":"address"},{"internalType":"uint256","name":"","type":"uint256"}],"name":"userPurchases","outputs":[{"internalType":"address","name":"user","type":"address"},{"internalType":"string","name":"productId","type":"string"},{"internalType":"uint256","name":"amount","type":"uint256"},{"internalType":"uint256","name":"tokensUsed","type":"uint256"},{"internalType":"uint256","name":"discount","type":"uint256"},{"internalType":"uint256","name":"cashback","type":"uint256"},{"internalType":"uint256","name":"timestamp","type":"uint256"}],"stateMutability":"view","type":"function"},{"inputs":[],"name":"vrfCoordinator","outputs":[{"internalType":"contract VRFCoordinatorV2Interface","name":"","type":"address"}],"stateMutability":"view","type":"function"},{"inputs":[{"internalType":"uint256","name":"","type":"uint256"}],"name":"vrfRequests","outputs":[{"internalType":"uint256","name":"","type":"uint256"}],"stateMutability":"view","type":"function"},{"inputs":[],"name":"vrfSubscriptionId","outputs":[{"internalType":"uint64","name":"","type":"uint64"}],"stateMutability":"view","type":"function"},{"inputs":[],"name":"weatherDataFeed","outputs":[{"internalType":"contract AggregatorV3Interface","name":"","type":"address"}],"stateMutability":"view","type":"function"},{"inputs":[],"name":"withdrawLink","outputs":[],"stateMutability":"nonpayable","type":"function"}],"evm":{"bytecode":{"linkReferences":{},"object":"6101003462000872576001600160401b0390601f620049ae38819003918201601f191683019184831184841017620008775780849261010094604052833981010312620008725762000051816200088d565b90602090620000628282016200088d565b9362000071604083016200088d565b9160608101516200008560808301620008a2565b6200009360a08401620008a2565b93620000a760e060c086015195016200088d565b6001600160a01b039889166080529433156200082d57600080546001600160a01b03199081163317825560a08c905260038054600580546203f4806008559b8e1660c0526002989098559c909b1660e05292909316999091169890981760609890981b73ffffffffffffffff00000000000000000000000016979097176a0493e00000000000000000179095556004556001600160f01b031990911660509190911b600160501b600160f01b03161766010003000186a0178255426007556013546200017390620008b7565b601f8111620007fe575b5061057360135560138352808320927f636f6e737420726573706f6e7365203d2061776169742046756e6374696f6e7384557f737472696e6769667928766572696669636174696f6e29293b0000000000000060156001957f2e6d616b654874747052657175657374287b75726c3a20617267735b305d2c6d878201557f6574686f643a2027504f5354272c686561646572733a207b27436f6e74656e7460028201557f2d54797065273a20276170706c69636174696f6e2f6a736f6e277d2c6461746160038201557f3a207b696d616765486173683a20617267735b315d2c2063726f70547970653a60048201557f20617267735b325d2c206c6f636174696f6e3a20617267735b335d7d7d293b63868201557f6f6e73742077656174686572203d2061776169742046756e6374696f6e732e6d60068201557f616b654874747052657175657374287b75726c3a202768747470733a2f2f617060078201557f692e6f70656e776561746865726d61702e6f72672f646174612f322e352f776560088201557f6174686572272c706172616d733a207b6c61743a20617267735b345d2c206c6f60098201557f6e3a20617267735b355d2c2061707069643a20736563726574732e7765617468600a8201557f65724b65797d7d293b636f6e737420726573756c74203d20726573706f6e7365600b8201557f2e646174613b636f6e737420766572696669636174696f6e203d207b64697365600c8201557f6173653a20726573756c742e646973656173652c636f6e666964656e63653a20600d8201557f726573756c742e636f6e666964656e63652c76657269666965643a2072657375600e8201557f6c742e636f6e666964656e6365203e2037302c776561746865725269736b3a20600f8201557f776561746865722e646174612e6d61696e2e68756d6964697479203e2038302060108201557f3f20276869676827203a20276c6f77272c7265776172643a20726573756c742e60118201557f636f6e666964656e6365203e203930203f20323030203a2028726573756c742e60128201557f636f6e666964656e6365203e203730203f20313030203a203230297d3b72657460138201557f75726e2046756e6374696f6e732e656e636f6465537472696e67284a534f4e2e60148201550155620004da601454620008b7565b601f8111620007d0575b7f6e67696679286f7074696d697a6174696f6e29293b00000000000000000000006010867f2070726f6475637444617461203d2061776169742046756e6374696f6e732e6d877f6e732e6d616b654874747052657175657374287b75726c3a202768747470733a888861042b6014556014815220937f636f6e7374206d61726b657444617461203d2061776169742046756e6374696f85558401557f2f2f6170692e636f696e6765636b6f2e636f6d2f6170692f76332f73696d706c60028401557f652f7072696365272c706172616d733a207b6964733a2027657468657265756d60038401557f272c2076735f63757272656e636965733a2027757364277d7d293b636f6e737460048401558201557f616b654874747052657175657374287b75726c3a20617267735b305d2c6d657460068201557f686f643a2027474554272c706172616d733a207b70726f6475637449643a206160078201557f7267735b315d2c2075736572546965723a20617267735b325d7d7d293b636f6e60088201557f7374206f7074696d697a6174696f6e203d207b6261736550726963653a20707260098201557f6f64756374446174612e646174612e70726963652c74696572446973636f756e600a8201557f743a207061727365496e7428617267735b325d29202a20352c6d61726b65744d600b8201557f756c7469706c6965723a206d61726b6574446174612e646174612e6574686572600c8201557f65756d2e757364203e2033303030203f20302e3935203a20312e302c7265636f600d8201557f6d6d656e6465645061796d656e743a20276d69786564277d3b72657475726e20600e8201557f46756e6374696f6e732e656e636f6465537472696e67284a534f4e2e73747269600f82015501556040516140b99081620008f582396080518181816104c70152612dc5015260a05181612285015260c05181818161052a01528181610ded01528181611373015281816115810152612f36015260e0518181816119d301526120ea0152f35b601482526011601f8484209201851c820191015b818110620007f35750620004e4565b8281558501620007e4565b601384526016601f8386209201841c820191015b8181106200082157506200017d565b84815560010162000812565b60405162461bcd60e51b815260048101899052601860248201527f43616e6e6f7420736574206f776e657220746f207a65726f00000000000000006044820152606490fd5b600080fd5b634e487b7160e01b600052604160045260246000fd5b51906001600160a01b03821682036200087257565b51906001600160401b03821682036200087257565b90600182811c92168015620008e9575b6020831014620008d357565b634e487b7160e01b600052602260045260246000fd5b91607f1691620008c756fe6080604052600436101561001257600080fd5b60003560e01c806309c1ba2e146102f25780630ca76175146102ed5780630d46664c146102e857806317964b1f146102e35780631a1d9252146102de5780631fe543e3146102d957806324f74697146102d45780632795ad20146102cf57806327e4e93c146102ca5780632f7c5411146102c55780633cd3af69146102c05780633d9a7f90146102bb57806342f6fb29146102b65780634585e33b146102b15780634613c2e3146102ac57806348e6cad6146102a75780634bfccac4146102a25780634f49ae381461029d57806351858e27146102705780635a74373c1461029857806361728f39146102935780636e04ff0d1461028e5780636e74336b1461028957806379ba5097146102845780637ccfd7fc1461027f5780638662cfde1461027a5780638da5cb5b146102755780638dc654a2146102705780638ea348601461026b5780639c0e913714610266578063a3e56fa814610261578063a6701d651461025c578063b0fb162f14610257578063b8f1ea2814610252578063cb9248661461024d578063cbe2bfe314610248578063cf2c033414610243578063d33868091461023e578063d3c4e9e514610239578063deff12a814610234578063e91a26881461022f578063ed647d211461022a578063f2fde38b14610225578063f68016b714610220578063f8413b071461021b5763fc2e6fc11461021657600080fd5b612189565b61205f565b612038565b611f74565b611f4a565b611eef565b611e76565b611e3c565b611e1e565b611d91565b611cc3565b611c01565b611b5a565b611b36565b611a64565b6119bd565b6118e9565b611851565b611657565b611828565b6117ff565b6117d8565b61171c565b6116fe565b6116ac565b61168e565b611670565b6115b0565b61156b565b6114a6565b611284565b611196565b611120565b611079565b610f98565b610d33565b610c8b565b6109ea565b6109c6565b610939565b6108f6565b6108a5565b610728565b61046f565b610307565b600091031261030257565b600080fd5b346103025760003660031901126103025760206001600160401b0360035416604051908152f35b634e487b7160e01b600052604160045260246000fd5b6001600160401b03811161035757604052565b61032e565b61010081019081106001600160401b0382111761035757604052565b604081019081106001600160401b0382111761035757604052565b60e081019081106001600160401b0382111761035757604052565b602081019081106001600160401b0382111761035757604052565b90601f801991011681019081106001600160401b0382111761035757604052565b604051906103f782610393565b565b6040519061014082018281106001600160401b0382111761035757604052565b81601f82011215610302578035906001600160401b038211610357576040519261044d601f8401601f1916602001856103c9565b8284526020838301011161030257816000926020809301838601378301015290565b346103025760603660031901126103025760048035906001600160401b03602435818111610302576104a49036908401610419565b50604435908111610302576104bc9036908301610419565b906001600160a01b037f0000000000000000000000000000000000000000000000000000000000000000811633036106c75761051261050585600052600a602052604060002090565b546001600160a01b031690565b9080821693610522851515612bfd565b51156106b6577f000000000000000000000000000000000000000000000000000000000000000016803b1561030257604051630364ecb160e01b81526001600160a01b0390921683830190815260009083908190602001038183855af19182156106985760209261069d575b5060405163c287fc7360e01b815292839182905afa9081156106985760009161066a575b5060086105c9846000526009602052604060002090565b01555b6105f36105e383600052600a602052604060002090565b80546001600160a01b0319169055565b817f90d2b702db1ba873e2c5444f7924f774a61f9be4bc267920a582d84aabb022f2610640600861062e846000526009602052604060002090565b01546040519081529081906020820190565b0390a37f85e1543bf2f84fe80c6badbce3648c8539ad1df4d2b3d822938ca0538be727e6600080a2005b61068b915060203d8111610691575b61068381836103c9565b810190612bee565b386105b2565b503d610679565b612a73565b806106aa6106b092610344565b806102f7565b3861058e565b5050506106c282612ee6565b6105cc565b5060405163c6829f8360e01b8152fd5b600435906001600160a01b038216820361030257565b6020908160408183019282815285518094520193019160005b828110610714575050505090565b835185529381019392810192600101610706565b34610302576020366003190112610302576107416106d7565b6010549061074e82612d3b565b916000916001600160a01b0390811690835b8381106107b357858561077281612d3b565b9160005b82811061078f576040518061078b86826106ed565b0390f35b8061079d6107ae9284612455565b516107a88287612455565b52612c99565b610776565b82826107e16105056107d16107c786610832565b90549060031b1c90565b6000526009602052604060002090565b16146107f6575b6107f190612c99565b610760565b936108146107f19161080a6107c788610832565b6107a8828a612455565b9490506107e8565b634e487b7160e01b600052603260045260246000fd5b6010548110156108695760106000527f1b6847dc741a1b0cd08d278845f9d819d87b734759afb55fe2de5cb82a9ae6720190600090565b61081c565b6011548110156108695760116000527f31ecc21a745e3968a04e9570e4425bc18fa8019c68028196b546d1669c200c680190600090565b34610302576020366003190112610302576004356010548110156103025760209060106000527f1b6847dc741a1b0cd08d278845f9d819d87b734759afb55fe2de5cb82a9ae6720154604051908152f35b3461030257602036600319011261030257600435600052600f6020526020604060002054604051908152f35b6001600160401b0381116103575760051b60200190565b34610302576040366003190112610302576024356001600160401b03811161030257366023820112156103025780600401359061097582610922565b9061098360405192836103c9565b82825260209260248484019160051b8301019136831161030257602401905b8282106109b7576109b584600435612282565b005b813581529084019084016109a2565b3461030257600036600319011261030257602063ffffffff60055416604051908152f35b3461030257602036600319011261030257600435600052600a602052602060018060a01b0360406000205416604051908152f35b90600182811c92168015610a4e575b6020831014610a3857565b634e487b7160e01b600052602260045260246000fd5b91607f1691610a2d565b9060009291805491610a6983610a1e565b918282526001938481169081600014610acb5750600114610a8b575b50505050565b90919394506000526020928360002092846000945b838610610ab7575050505001019038808080610a85565b805485870183015294019385908201610aa0565b9294505050602093945060ff191683830152151560051b01019038808080610a85565b6040519060008260135491610b0283610a1e565b80835292600190818116908115610b885750600114610b29575b506103f7925003836103c9565b6013600090815291507f66de8ffda797e3de9c05e8fc57b3bf0ec28a930d40b0d285d93c06501cf6a0905b848310610b6d57506103f7935050810160200138610b1c565b81935090816020925483858a01015201910190918592610b54565b9050602092506103f794915060ff191682840152151560051b82010138610b1c565b906103f7610bbe9260405193848092610a58565b03836103c9565b60005b838110610bd85750506000910152565b8181015183820152602001610bc8565b90602091610c0181518092818552858086019101610bc5565b601f01601f1916010190565b9693610c53610c6f94610c456101209b9895999e9d9c99610c619560018060a01b03168c5260208c61014091829101528c0190610be8565b908a820360408c0152610be8565b9088820360608a0152610be8565b908682036080880152610be8565b9760a085015260c0840152151560e08301526101008201520152565b34610302576020366003190112610302576004356000526009602052604060002060018060a01b0381541661078b60405192610cd584610cce8160018501610a58565b03856103c9565b60405190610cea82610bbe8160028501610a58565b610cf660038201610baa565b610d0260048301610baa565b6005830154600684015491610d1b600786015460ff1690565b9360096008870154960154966040519a8b9a8b610c0d565b346103025760408060031936011261030257600435906001600160401b03821161030257610d6660049236908401610419565b6005549091906024359060a090610d909060501c6001600160a01b03165b6001600160a01b031690565b8351633fabe5a360e21b815295869182905afa93841561069857600094610f39575b506445d964b800819413610f1c575b5080516378547d5f60e01b81523360048201526024810184905290808260448160006001600160a01b037f0000000000000000000000000000000000000000000000000000000000000000165af1928315610698576000928394610ec5575b507f58729d6a35c4824fdd6b8a48fe452f93dd3df1b46c96ca25e27aef1b183e5eb88361078b949596610e9c610e683360018060a01b0316600052600d602052604060002090565b610e706103ea565b3381529086602083015283888301528460608301528460808301528a60a08301524260c0830152612b40565b610eac8551928392339684612bcc565b0390a25191825260208201929092529081906040820190565b7f58729d6a35c4824fdd6b8a48fe452f93dd3df1b46c96ca25e27aef1b183e5eb8945061078b9350610f0c90833d8511610f15575b610f0481836103c9565b810190612b2a565b94909350610e20565b503d610efa565b610f32919350610f2b90612afe565b6064900490565b9138610dc1565b610f5b91945060a03d8111610f67575b610f5381836103c9565b810190612ab6565b50505090509238610db2565b503d610f49565b634e487b7160e01b600052600060045260246000fd5b906020610f95928181520190610be8565b90565b3461030257600080600319360112611076576040519080601654610fbb81610a1e565b8085529160019180831690811561104c5750600114610ff1575b61078b85610fe5818703826103c9565b60405191829182610f84565b9250601683527fd833147d7dc355ba459fc788f669e58cfaf9dc25ddcd0702e87d69c7b51242895b828410611034575050508101602001610fe58261078b610fd5565b80546020858701810191909152909301928101611019565b86955061078b96935060209250610fe594915060ff191682840152151560051b8201019293610fd5565b80fd5b346103025760008060031936011261107657604051908060175461109c81610a1e565b8085529160019180831690811561104c57506001146110c55761078b85610fe5818703826103c9565b9250601783527fc624b66cc0138b8fabc209247f72d758e1cf3343756d543badbf24212bed8c155b828410611108575050508101602001610fe58261078b610fd5565b805460208587018101919091529093019281016110ed565b346103025760003660031901126103025760055460405160509190911c6001600160a01b03168152602090f35b906020600319830112610302576004356001600160401b039283821161030257806023830112156103025781600401359384116103025760248483010111610302576024019190565b34610302576111a43661114d565b50506111be6111b560075442612c4c565b60085410612c59565b6111c742600755565b6000805b601154811015611250576111e76111e18261086e565b50612ca8565b60058101906111f7825460ff1690565b9081611235575b50611213575b5061120e90612c99565b6111cb565b805460ff191690559061120e9061122e90612c99565b612c99565b9190611204565b62093a809150600361124991015442612c4c565b11386111fe565b60408051428152602081018490527f9fbc2aeb5bf6200e5499d345acddf1dd462c37becb4673d661250b89ced7ff6a9190a1005b34610302576060366003190112610302576004356001600160401b038111610302576112b4903690600401610419565b602435801515810361030257604435816112cd8461145a565b80546001600160a01b0393918291600691906112ec90871633146129c3565b61132a856005830161130e611309611305835460ff1690565b1590565b612a05565b805461ffff191691151560081b61ff0016919091176001179055565b01558161140e575b50611371575b5061136c7f954026a8087daf30855f55c67b75ecf77b250be0b8a98b914e2473b72f16c22491604051918291339583612a7f565b0390a2005b7f00000000000000000000000000000000000000000000000000000000000000001690813b15610302576000604051809363398d8f9d60e01b82528183816113bd893360048401612a51565b03925af1908115610698577f954026a8087daf30855f55c67b75ecf77b250be0b8a98b914e2473b72f16c2249261136c926113fb575b509150611338565b806106aa61140892610344565b386113f3565b604691501138611332565b602060031982011261030257600435906001600160401b03821161030257610f9591600401610419565b9061145660209282815194859201610bc5565b0190565b6020611473918160405193828580945193849201610bc5565b8101600c81520301902090565b6020611499918160405193828580945193849201610bc5565b8101600b81520301902090565b34610302576114bc6114b736611419565b61145a565b60018060a01b03815416604051916114e2836114db8160018501610a58565b03846103c9565b6040516114fd816114f68160028601610a58565b03826103c9565b60ff60038301549260048101546115426006600584015493015494611534604051998a998a526101008060208c01528a0190610be8565b9088820360408a0152610be8565b9460608701526080860152818116151560a086015260081c16151560c084015260e08301520390f35b34610302576000366003190112610302576040517f00000000000000000000000000000000000000000000000000000000000000006001600160a01b03168152602090f35b34610302576000806003193601126110765760405190806015546115d381610a1e565b8085529160019180831690811561104c57506001146115fc5761078b85610fe5818703826103c9565b9250601583527f55f448fdea98c4d29eb340757ef0a66cd03dbb9538908a6a81d96026b71ec4755b82841061163f575050508101602001610fe58261078b610fd5565b80546020858701810191909152909301928101611624565b34610302576000366003190112610302576109b5612230565b34610302576000366003190112610302576020600854604051908152f35b34610302576000366003190112610302576020600454604051908152f35b34610302576116ba3661114d565b505060075442034281116116f95760085410604051906116d9826103ae565b6000825261078b6040519283928352604060208401526040830190610be8565b612ae8565b34610302576000366003190112610302576020600254604051908152f35b3461030257600080600319360112611076576001546001600160a01b03908116330361179a5781546001600160a01b0316600080546001600160a01b0319163317905590600180546001600160a01b03191690553391167f8be0079c531659141344cd1fd0a4f28419497f9722a3daafe3b4186f6b6457e08380a380f35b60405162461bcd60e51b815260206004820152601660248201527526bab9ba10313290383937b837b9b2b21037bbb732b960511b6044820152606490fd5b3461030257600036600319011261030257602063ffffffff60055460301c16604051908152f35b34610302576000366003190112610302576006546040516001600160a01b039091168152602090f35b34610302576000366003190112610302576000546040516001600160a01b039091168152602090f35b34610302576118c061186a61186536611419565b611480565b6040519061187c82610bbe8184610a58565b604051611890816114f68160018601610a58565b60028201549160038101546118ce60ff60056004850154940154169360405197889760c0895260c0890190610be8565b908782036020890152610be8565b93604086015260608501526080840152151560a08301520390f35b34610302576060366003190112610302576001600160401b036004358181116103025761191a903690600401610419565b906024359081116103025761136c6119577fdb684493790c86d37cec11af4bb999d4d3907b50fd83afd6d77e02980a76d756923690600401610419565b6119a66040516119668161035c565b3381528560208201528260408201524260608201526044356080820152600060a0820152600060c0820152600060e08201526119a18661145a565b612859565b6119af84612900565b60405191829133958361299e565b34610302576000366003190112610302576040517f00000000000000000000000000000000000000000000000000000000000000006001600160a01b03168152602090f35b602080820190808352835180925260408301928160408460051b8301019501936000915b848310611a365750505050505090565b9091929394958480611a54600193603f198682030187528a51610be8565b9801930193019194939290611a26565b346103025760008060031936011261107657601154611a82816123ae565b8291835b818110611ade575050611a98826123ae565b925b828110611aaf576040518061078b8682611a02565b80611abd611ad99284612455565b51611ac88287612455565b52611ad38186612455565b50612c99565b611a9a565b611af76005611aef6111e18461086e565b015460ff1690565b611b0a575b611b0590612c99565b611a86565b92611b2e611b0591611b24611b1e8761086e565b50610baa565b611ac88287612455565b939050611afc565b3461030257600036600319011261030257602060055461ffff60405191831c168152f35b3461030257600080600319360112611076576040519080601454611b7d81610a1e565b8085529160019180831690811561104c5750600114611ba65761078b85610fe5818703826103c9565b9250601483527fce6d7b5282bd9a3661ae061feed1dbda4e52ab073b1f9285be6e155d9c38d4ec5b828410611be9575050508101602001610fe58261078b610fd5565b80546020858701810191909152909301928101611bce565b346103025760c0366003190112610302576001600160401b036004803582811161030257611c329036908301610419565b60243583811161030257611c499036908401610419565b60443584811161030257611c609036908501610419565b60643585811161030257611c779036908601610419565b9060843586811161030257611c8f9036908701610419565b9260a43596871161030257611cad611cb39661078b98369101610419565b946126a1565b6040519081529081906020820190565b3461030257602036600319011261030257600435601254811015610302576114f6611d1e61078b926012600052604051928380927fbb8a6a4669ba250d26cd7a459eca9d215f8307e33aebe50379bc5a3617ec344401610a58565b604051918291602083526020830190610be8565b8054821015610869576000526007602060002091020190600090565b939060c09592611d7891999897949960018060a01b0316865260e0602087015260e0860190610be8565b9760408501526060840152608083015260a08201520152565b3461030257604036600319011261030257611daa6106d7565b6001600160a01b039081166000908152600d6020526040902080546024359081101561030257611dd991611d32565b509081541661078b60405192611df684610cce8160018501610a58565b6002810154906003810154600482015490600660058401549301549360405197889788611d4e565b34610302576000366003190112610302576020600754604051908152f35b34610302576020366003190112610302576001600160a01b03611e5d6106d7565b16600052600e6020526020604060002054604051908152f35b346103025760803660031901126103025760043563ffffffff8116810361030257606435906001600160401b03821680920361030257611eb4612230565b6bffffffff00000000000000006003549160243560085560443560025560401b16906bffffffffffffffffffffffff19161717600355600080f35b3461030257602036600319011261030257600435601154811015610302576114f6611d1e61078b926011600052604051928380927f31ecc21a745e3968a04e9570e4425bc18fa8019c68028196b546d1669c200c6801610a58565b346103025760003660031901126103025760206001600160401b0360035460601c16604051908152f35b3461030257602036600319011261030257611f8d6106d7565b611f95612230565b6001600160a01b0316338114611ff357600180546001600160a01b03191682179055600054611fcc906001600160a01b0316610d84565b7fed8889f560326eb138920d842192f0eb3dd22b4f139c87a2c57538e05bae1278600080a3005b60405162461bcd60e51b815260206004820152601760248201527f43616e6e6f74207472616e7366657220746f2073656c660000000000000000006044820152606490fd5b3461030257600036600319011261030257602060035463ffffffff6040519160401c168152f35b34610302576000806003193601126110765760045490602061208d6003546001600160401b039060601c1690565b6005546040516305d3b1d360e41b815260048101959095526001600160401b0391909116602485015261ffff81831c16604485015263ffffffff808216606486015260309190911c1660848401528260a481846001600160a01b037f0000000000000000000000000000000000000000000000000000000000000000165af1918215610698578192612169575b504261213083600052600f602052604060002090565b5561078b604051928392817f28f521cf7abd0044cba5bb040c5217ff69a4e5865f5262905018698e68fe7d00339280a382526020820190565b61218291925060203d81116106915761068381836103c9565b903861211a565b34610302576000806003193601126110765760405190806013546121ac81610a1e565b8085529160019180831690811561104c57506001146121d55761078b85610fe5818703826103c9565b9250601383527f66de8ffda797e3de9c05e8fc57b3bf0ec28a930d40b0d285d93c06501cf6a0905b828410612218575050508101602001610fe58261078b610fd5565b805460208587018101919091529093019281016121fd565b6000546001600160a01b0316330361224457565b60405162461bcd60e51b815260206004820152601660248201527527b7363c9031b0b63630b1363290313c9037bbb732b960511b6044820152606490fd5b907f00000000000000000000000000000000000000000000000000000000000000006001600160a01b031633819003612315575081600052600f6020526122cf6040600020541515612bfd565b805115610869576020807f4235fc540c899ae91eade70d636591126a477a30a8dc25ae4489f396de2a510392015183600052600f825260006040812055604051908152a2565b6044906040519063073e64fd60e21b82523360048301526024820152fd5b6040519060e082018281106001600160401b0382111761035757604052606060c08360008152600060208201526000604082015282808201528260808201528260a08201520152565b6040519061238982610393565b600682528160005b60c0811061239d575050565b806060602080938501015201612391565b906123b882610922565b6123c560405191826103c9565b82815280926123d6601f1991610922565b019060005b8281106123e757505050565b8060606020809385010152016123db565b8051156108695760200190565b8051600110156108695760400190565b8051600210156108695760600190565b8051600310156108695760800190565b8051600410156108695760a00190565b8051600510156108695760c00190565b80518210156108695760209160051b010190565b60405190612476826103ae565b60008252565b818110612487575050565b6000815560010161247c565b9190601f81116124a257505050565b6103f7926000526020600020906020601f840160051c830193106124ce575b601f0160051c019061247c565b90915081906124c1565b91909182516001600160401b038111610357576124ff816124f98454610a1e565b84612493565b602080601f831160011461253b575081929394600092612530575b50508160011b916000199060031b1c1916179055565b01519050388061251a565b90601f1983169561255185600052602060002090565b926000905b88821061258e57505083600195969710612575575b505050811b019055565b015160001960f88460031b161c1916905538808061256b565b80600185968294968601518155019501930190612556565b815181546001600160a01b0319166001600160a01b0390911617815590600990610120906125db6020820151600186016124d8565b6125ec6040820151600286016124d8565b6125fd6060820151600386016124d8565b61260e6080820151600486016124d8565b60a0810151600585015560c0810151600685015561264761263260e0830151151590565b600786019060ff801983541691151516179055565b61010081015160088501550151910155565b601054600160401b8110156103575760018101806010558110156108695760106000527f1b6847dc741a1b0cd08d278845f9d819d87b734759afb55fe2de5cb82a9ae6720155565b61277c919461275661275b926127e296986126ba612333565b936126cc6126c6610aee565b8661403b565b6126d461237c565b926126de846123f8565b526126e8836123f8565b50896126f384612405565b526126fd83612405565b508761270884612415565b5261271283612415565b508a61271d84612425565b5261272783612425565b5061273183612435565b5261273b82612435565b5061274582612445565b5261274f81612445565b5082614064565b6133da565b600354600254916001600160401b0363ffffffff8360401c16921690612d6d565b936127856103f9565b33815291846020840152604083015260608201526127a1612469565b6080820152600060a08201524260c0820152600060e08201526000610100820152836101208201526127dd846000526009602052604060002090565b6125a6565b612819336127fa84600052600a602052604060002090565b80546001600160a01b0319166001600160a01b03909216919091179055565b61282282612659565b817f62b9f473701a7e7a80fff1ef44f9a6d28b5ad15e51e709ca62b8df0942c37cb460405180612853339582610f84565b0390a390565b815181546001600160a01b0319166001600160a01b03919091161781559060069060e09061288e6020820151600186016124d8565b61289f6040820151600286016124d8565b60608101516003850155608081015160048501556128f9600585016128dc6128ca60a0850151151590565b829060ff801983541691151516179055565b60c08301511515815461ff00191690151560081b61ff0016179055565b0151910155565b60125490600160401b821015610357576001820180601255821015610869576103f79160126000527fbb8a6a4669ba250d26cd7a459eca9d215f8307e33aebe50379bc5a3617ec3444016124d8565b60115490600160401b821015610357576001820180601155821015610869576103f79160116000527f31ecc21a745e3968a04e9570e4425bc18fa8019c68028196b546d1669c200c68016124d8565b90916129b5610f9593604084526040840190610be8565b916020818403910152610be8565b156129ca57565b60405162461bcd60e51b81526020600482015260136024820152722737ba103a3932b0ba36b2b73a1037bbb732b960691b6044820152606490fd5b15612a0c57565b60405162461bcd60e51b815260206004820152601b60248201527f54726561746d656e7420616c726561647920636f6d706c6574656400000000006044820152606490fd5b6001600160a01b039091168152604060208201819052610f9592910190610be8565b6040513d6000823e3d90fd5b90612a97602091949394604084526040840190610be8565b931515910152565b519069ffffffffffffffffffff8216820361030257565b908160a091031261030257612aca81612a9f565b91602082015191604081015191610f95608060608401519301612a9f565b634e487b7160e01b600052601160045260246000fd5b90605f820291808304605f14901517156116f957565b908160011b91808304600214901517156116f957565b9190826040910312610302576020825192015190565b8054600160401b81101561035757612b5d91600182018155611d32565b919091612bc757805182546001600160a01b0319166001600160a01b039190911617825560069060c090612b986020820151600186016124d8565b60408101516002850155606081015160038501556080810151600485015560a081015160058501550151910155565b610f6e565b612be460409295949395606083526060830190610be8565b9460208201520152565b90816020910312610302575190565b15612c0457565b60405162461bcd60e51b815260206004820152601160248201527014995c5d595cdd081b9bdd08199bdd5b99607a1b6044820152606490fd5b601f198101919082116116f957565b919082039182116116f957565b15612c6057565b60405162461bcd60e51b8152602060048201526011602482015270155c1ad9595c081b9bdd081b9959591959607a1b6044820152606490fd5b60001981146116f95760010190565b604051908160008254612cba81610a1e565b93600191808316908115612d1f5750600114612ce2575b505060209250600b81520301902090565b90915060005260209081600020906000915b858310612d0b575050505060209181013880612cd1565b805487840152869450918301918101612cf4565b92505050602093915060ff191682528015150281013880612cd1565b90612d4582610922565b612d5260405191826103c9565b8281528092612d63601f1991610922565b0190602036910137565b92906020926001600160401b039263ffffffff612dac604051978896879663230e93b160e11b885216600487015260a0602487015260a4860190610be8565b60016044860152921660648401526084830152038160007f00000000000000000000000000000000000000000000000000000000000000006001600160a01b03165af190811561069857600091612e28575b50807f1131472297a800fee664d1d89cfa8f7676ff07189ecc53f80bbb5f4969099db8600080a290565b612e40915060203d81116106915761068381836103c9565b38612dfe565b612e508154610a1e565b601f8111612e7f575b507f4e6f72746865726e20436f726e204c65616620426c69676874000000000000329055565b612e9b9082600052601f6020600020910160051c81019061247c565b38612e59565b6001600160a01b0390911681529015156020820152606060408201819052610f9592910190610a58565b90602082018092116116f957565b919082018092116116f957565b612efa906000526009602052604060002090565b80546001600160a01b031660078201805460ff19166001179055906005810190612f248260559055565b60049283820193612f3485612e46565b7f00000000000000000000000000000000000000000000000000000000000000006001600160a01b031691823b1561030257604051630364ecb160e01b81526001600160a01b03821683820190815260009190829082908190602001038183895af180156106985761311c575b5060405163c287fc7360e01b81529360209283868681855afa9586156106985783966130fd575b5085975460468111612fe5575b5050505050505060089192500155565b605a91929394959698501190823b156130f9579083818a949361301b6040519687938493632e9423ab60e21b85528c8501612ea1565b038183865af19283156106985785936130e6575b50156130af57604051637afaa86160e11b815294859182905afa94851561069857600895613085946130739461306d9492613092575b505090612ed9565b94610baa565b61307f60038401610baa565b9061316b565b8291388080808080612fd5565b6130a89250803d106106915761068381836103c9565b3880613065565b60405163c4a5b74360e01b815294859182905afa94851561069857600895613085946130739461306d949261309257505090612ed9565b806106aa6130f392610344565b3861302f565b8380fd5b613115919650843d86116106915761068381836103c9565b9438612fc8565b806106aa61312992610344565b38612fa1565b61314790602060405192828480945193849201610bc5565b810103902090565b929190613166602091604086526040860190610be8565b930152565b60026040516131a88161319a6131946131876020840188611443565b605f60f81b815260010190565b87611443565b03601f1981018352826103c9565b6131b181611480565b9060058201906131c5611305835460ff1690565b1561325c5761320861320d926131db87866124d8565b6131e888600187016124d8565b60018587015542600386015560016004860155805460ff19166001179055565b61294f565b0154600281101561321d57505050565b6132477f880d252fc51a53b2a4a12178e75a01b3d083a590c92550a883ccb4bef6ea4d839261312f565b926132576040519283928361314f565b0390a2565b50506004810161326c8154612c99565b8091556000906005811160001461328e57505060ff60035b168282015561320d565b839150116000146132a15760ff82613284565b60ff6001613284565b604051906132b782610378565b600c82526b31b7b232a637b1b0ba34b7b760a11b6020830152565b634e487b7160e01b600052602160045260246000fd5b600311156132f257565b6132d2565b6040519061330482610378565b60088252676c616e677561676560c01b6020830152565b600111156132f257565b6040519061333282610378565b6006825265736f7572636560d01b6020830152565b6040519061335482610378565b60048252636172677360e01b6020830152565b6040519061337482610378565b600f82526e39b2b1b932ba39a637b1b0ba34b7b760891b6020830152565b6040519061339f82610378565b60078252667365637265747360c81b6020830152565b604051906133c282610378565b600982526862797465734172677360b81b6020830152565b6133e26135c2565b906133f46133ee6132aa565b83613775565b6134118151613402816132e8565b61340b816132e8565b83613612565b61341c6133ee6132f7565b613436604082015161342d8161331b565b61340b8161331b565b6134416133ee613325565b61344f606082015183613775565b60a0810180515161354f575b5060808101908151516134cf575b60c091500180515161347c575b50515190565b916134886133ee6133b5565b613491826137f9565b60005b835180518210156134bc57906112296134b0826134b794612455565b51856136b3565b613494565b505091506134c981613885565b38613476565b6020810180516134de816132e8565b6134e7816132e8565b1561353d5760c09261352061353892613507613501613367565b88613775565b51613511816132e8565b61351a816132e8565b86613612565b61353161352b613392565b86613775565b51846136b3565b613469565b60405163a80d31f760e01b8152600490fd5b9261356161355b613347565b84613775565b61356a836137f9565b60005b8451805182101561359557906112296135898261359094612455565b5186613775565b61356d565b505092506135a282613885565b3861345b565b604051906135b582610378565b6000602083606081520152565b6040516135ce81610378565b6135d66135a8565b80825260208201600081526135e96135a8565b506101006020830152604051809252600082526101208201918210610302576000916040525290565b9081519161361e6135a8565b5082515160018101908181116116f9576020850151811015613677575b60c260206103f7965192830101538051821161366f575b50506040519160208301526020825261366a82610378565b6136b3565b523880613652565b8160011b94828604600214831517156116f9576020816136a96103f7986136a260c295519184613912565b5082613964565b509650505061363b565b81516136f79291906001600160401b03811690601782116136fa576136e29150604060ff845192161790613e12565b505b51906136ee6135a8565b50805191613a28565b50565b5060ff811161371f57613719906137118351613c19565b508251613fce565b506136e4565b61ffff811161373e57613719906137368351613bb4565b508251613f60565b63ffffffff811161375f57613719906137578351613b4f565b508251613ef0565b6137199061376d8351613adf565b508251613e7d565b81516136f79291906001600160401b03811690601782116137a4576136e29150606060ff845192161790613e12565b5060ff81116137bb57613719906137118351613dad565b61ffff81116137d257613719906137368351613d48565b63ffffffff81116137eb57613719906137578351613ce3565b6137199061376d8351613c7e565b8051906138046135a8565b5081515160018101908181116116f9576020840151811015613852575b609f602080955192830101538051821161384a575b505001805190600182018092116116f95752565b523880613836565b8160011b93828504600214831517156116f95760208161387b82976136a2609f95519184613912565b5095505050613821565b8051906138906135a8565b5081515160018101908181116116f95760208401518110156138df575b60ff60208095519283010153805182116138d7575b50500180516000198101919082116116f95752565b5238806138c2565b8160011b93828504600214831517156116f95760208161390882976136a260ff95519184613912565b50955050506138ad565b9061391b6135a8565b50601f81168061394a575b50806020830152604051908183526000825281016020019081106103025760405290565b602003602081116116f95781018091116116f95738613926565b9061396d6135a8565b5080516139786135a8565b506139868251821115613a21565b825151916139948284612ed9565b6020918291828701518111613a0a575b865183815197820101968211613a02575b505001915b818110156139dc5760001991036101000a019081199051169082511617905290565b91926139f76139f16139fd9286518152612ecb565b94612ecb565b92612c3d565b6139ba565b5238806139b5565b613a1c613a1682612b14565b88613ac8565b6139a4565b1561030257565b91613a316135a8565b50613a3f8251821115613a21565b82515191613a4d8284612ed9565b6020918291828701518111613ab7575b865183815197820101968211613aaf575b505001915b81811015613a955760001991036101000a019081199051169082511617905290565b91926139f76139f1613aaa9286518152612ecb565b613a73565b523880613a6e565b613ac3613a1682612b14565b613a5d565b906136f791613ad981519282613912565b50613964565b613ae76135a8565b5080515160018101908181116116f9576020830151811015613b20575b605b60208451928301015380518211613b1c57505090565b5290565b8160011b828104600214831517156116f957613b4990613b4285519186613912565b5084613964565b50613b04565b613b576135a8565b5080515160018101908181116116f9576020830151811015613b8c575b605a60208451928301015380518211613b1c57505090565b8160011b828104600214831517156116f957613bae90613b4285519186613912565b50613b74565b613bbc6135a8565b5080515160018101908181116116f9576020830151811015613bf1575b605960208451928301015380518211613b1c57505090565b8160011b828104600214831517156116f957613c1390613b4285519186613912565b50613bd9565b613c216135a8565b5080515160018101908181116116f9576020830151811015613c56575b605860208451928301015380518211613b1c57505090565b8160011b828104600214831517156116f957613c7890613b4285519186613912565b50613c3e565b613c866135a8565b5080515160018101908181116116f9576020830151811015613cbb575b607b60208451928301015380518211613b1c57505090565b8160011b828104600214831517156116f957613cdd90613b4285519186613912565b50613ca3565b613ceb6135a8565b5080515160018101908181116116f9576020830151811015613d20575b607a60208451928301015380518211613b1c57505090565b8160011b828104600214831517156116f957613d4290613b4285519186613912565b50613d08565b613d506135a8565b5080515160018101908181116116f9576020830151811015613d85575b607960208451928301015380518211613b1c57505090565b8160011b828104600214831517156116f957613da790613b4285519186613912565b50613d6d565b613db56135a8565b5080515160018101908181116116f9576020830151811015613dea575b607860208451928301015380518211613b1c57505090565b8160011b828104600214831517156116f957613e0c90613b4285519186613912565b50613dd2565b90613e1b6135a8565b5081515160018101918282116116f9576020840151821015613e4e575b60208451928301015380518211613b1c57505090565b8260011b838104600214841517156116f957613e7790613e7086519187613912565b5085613964565b50613e38565b90613e866135a8565b508151518060080191826008116116f95760208401518311613ec8575b6008845192830101906001600160401b031982511617905280518211613b1c57505090565b8260011b838104600214841517156116f957613eea90613e7086519187613912565b50613ea3565b90613ef96135a8565b508151518060040191826004116116f95760208401518311613f38575b60048451928301019063ffffffff1982511617905280518211613b1c57505090565b8260011b838104600214841517156116f957613f5a90613e7086519187613912565b50613f16565b90613f696135a8565b508151518060020191826002116116f95760208401518311613fa6575b60028451928301019061ffff1982511617905280518211613b1c57505090565b8260011b838104600214841517156116f957613fc890613e7086519187613912565b50613f86565b90613fd76135a8565b508151518060010191826001116116f95760208401518311614013575b60018451928301019060ff1982511617905280518211613b1c57505090565b8260011b838104600214841517156116f95761403590613e7086519187613912565b50613ff4565b815115614052576000808252604082015260600152565b6040516322ce3edd60e01b8152600490fd5b8151156140715760a00152565b60405163fe936cb760e01b8152600490fdfea2646970667358221220e90bbe2431c1bb9c62e0f6cd7f7b12a72615101519d173a9de5b5b8b090ac3e764736f6c63430008130033","opcodes":"PUSH2 0x100 CALLVALUE PUSH3 0x872 JUMPI PUSH1 0x1 PUSH1 0x1 PUSH1 0x40 SHL SUB SWAP1 PUSH1 0x1F PUSH3 0x49AE CODESIZE DUP2 SWAP1 SUB SWAP2 DUP3 ADD PUSH1 0x1F NOT AND DUP4 ADD SWAP2 DUP5 DUP4 GT DUP5 DUP5 LT OR PUSH3 0x877 JUMPI DUP1 DUP5 SWAP3 PUSH2 0x100 SWAP5 PUSH1 0x40 MSTORE DUP4 CODECOPY DUP2 ADD SUB SLT PUSH3 0x872 JUMPI PUSH3 0x51 DUP2 PUSH3 0x88D JUMP JUMPDEST SWAP1 PUSH1 0x20 SWAP1 PUSH3 0x62 DUP3 DUP3 ADD PUSH3 0x88D JUMP JUMPDEST SWAP4 PUSH3 0x71 PUSH1 0x40 DUP4 ADD PUSH3 0x88D JUMP JUMPDEST SWAP2 PUSH1 0x60 DUP2 ADD MLOAD PUSH3 0x85 PUSH1 0x80 DUP4 ADD PUSH3 0x8A2 JUMP JUMPDEST PUSH3 0x93 PUSH1 0xA0 DUP5 ADD PUSH3 0x8A2 JUMP JUMPDEST SWAP4 PUSH3 0xA7 PUSH1 0xE0 PUSH1 0xC0 DUP7 ADD MLOAD SWAP6 ADD PUSH3 0x88D JUMP JUMPDEST PUSH1 0x1 PUSH1 0x1 PUSH1 0xA0 SHL SUB SWAP9 DUP10 AND PUSH1 0x80 MSTORE SWAP5 CALLER ISZERO PUSH3 0x82D JUMPI PUSH1 0x0 DUP1 SLOAD PUSH1 0x1 PUSH1 0x1 PUSH1 0xA0 SHL SUB NOT SWAP1 DUP2 AND CALLER OR DUP3 SSTORE PUSH1 0xA0 DUP13 SWAP1 MSTORE PUSH1 0x3 DUP1 SLOAD PUSH1 0x5 DUP1 SLOAD PUSH3 0x3F480 PUSH1 0x8 SSTORE SWAP12 DUP15 AND PUSH1 0xC0 MSTORE PUSH1 0x2 SWAP9 SWAP1 SWAP9 SSTORE SWAP13 SWAP1 SWAP12 AND PUSH1 0xE0 MSTORE SWAP3 SWAP1 SWAP4 AND SWAP10 SWAP1 SWAP2 AND SWAP9 SWAP1 SWAP9 OR PUSH1 0x60 SWAP9 SWAP1 SWAP9 SHL PUSH20 0xFFFFFFFFFFFFFFFF000000000000000000000000 AND SWAP8 SWAP1 SWAP8 OR PUSH11 0x493E00000000000000000 OR SWAP1 SWAP6 SSTORE PUSH1 0x4 SSTORE PUSH1 0x1 PUSH1 0x1 PUSH1 0xF0 SHL SUB NOT SWAP1 SWAP2 AND PUSH1 0x50 SWAP2 SWAP1 SWAP2 SHL PUSH1 0x1 PUSH1 0x50 SHL PUSH1 0x1 PUSH1 0xF0 SHL SUB AND OR PUSH7 0x10003000186A0 OR DUP3 SSTORE TIMESTAMP PUSH1 0x7 SSTORE PUSH1 0x13 SLOAD PUSH3 0x173 SWAP1 PUSH3 0x8B7 JUMP JUMPDEST PUSH1 0x1F DUP2 GT PUSH3 0x7FE JUMPI JUMPDEST POP PUSH2 0x573 PUSH1 0x13 SSTORE PUSH1 0x13 DUP4 MSTORE DUP1 DUP4 KECCAK256 SWAP3 PUSH32 0x636F6E737420726573706F6E7365203D2061776169742046756E6374696F6E73 DUP5 SSTORE PUSH32 0x737472696E6769667928766572696669636174696F6E29293B00000000000000 PUSH1 0x15 PUSH1 0x1 SWAP6 PUSH32 0x2E6D616B654874747052657175657374287B75726C3A20617267735B305D2C6D DUP8 DUP3 ADD SSTORE PUSH32 0x6574686F643A2027504F5354272C686561646572733A207B27436F6E74656E74 PUSH1 0x2 DUP3 ADD SSTORE PUSH32 0x2D54797065273A20276170706C69636174696F6E2F6A736F6E277D2C64617461 PUSH1 0x3 DUP3 ADD SSTORE PUSH32 0x3A207B696D616765486173683A20617267735B315D2C2063726F70547970653A PUSH1 0x4 DUP3 ADD SSTORE PUSH32 0x20617267735B325D2C206C6F636174696F6E3A20617267735B335D7D7D293B63 DUP7 DUP3 ADD SSTORE PUSH32 0x6F6E73742077656174686572203D2061776169742046756E6374696F6E732E6D PUSH1 0x6 DUP3 ADD SSTORE PUSH32 0x616B654874747052657175657374287B75726C3A202768747470733A2F2F6170 PUSH1 0x7 DUP3 ADD SSTORE PUSH32 0x692E6F70656E776561746865726D61702E6F72672F646174612F322E352F7765 PUSH1 0x8 DUP3 ADD SSTORE PUSH32 0x6174686572272C706172616D733A207B6C61743A20617267735B345D2C206C6F PUSH1 0x9 DUP3 ADD SSTORE PUSH32 0x6E3A20617267735B355D2C2061707069643A20736563726574732E7765617468 PUSH1 0xA DUP3 ADD SSTORE PUSH32 0x65724B65797D7D293B636F6E737420726573756C74203D20726573706F6E7365 PUSH1 0xB DUP3 ADD SSTORE PUSH32 0x2E646174613B636F6E737420766572696669636174696F6E203D207B64697365 PUSH1 0xC DUP3 ADD SSTORE PUSH32 0x6173653A20726573756C742E646973656173652C636F6E666964656E63653A20 PUSH1 0xD DUP3 ADD SSTORE PUSH32 0x726573756C742E636F6E666964656E63652C76657269666965643A2072657375 PUSH1 0xE DUP3 ADD SSTORE PUSH32 0x6C742E636F6E666964656E6365203E2037302C776561746865725269736B3A20 PUSH1 0xF DUP3 ADD SSTORE PUSH32 0x776561746865722E646174612E6D61696E2E68756D6964697479203E20383020 PUSH1 0x10 DUP3 ADD SSTORE PUSH32 0x3F20276869676827203A20276C6F77272C7265776172643A20726573756C742E PUSH1 0x11 DUP3 ADD SSTORE PUSH32 0x636F6E666964656E6365203E203930203F20323030203A2028726573756C742E PUSH1 0x12 DUP3 ADD SSTORE PUSH32 0x636F6E666964656E6365203E203730203F20313030203A203230297D3B726574 PUSH1 0x13 DUP3 ADD SSTORE PUSH32 0x75726E2046756E6374696F6E732E656E636F6465537472696E67284A534F4E2E PUSH1 0x14 DUP3 ADD SSTORE ADD SSTORE PUSH3 0x4DA PUSH1 0x14 SLOAD PUSH3 0x8B7 JUMP JUMPDEST PUSH1 0x1F DUP2 GT PUSH3 0x7D0 JUMPI JUMPDEST PUSH32 0x6E67696679286F7074696D697A6174696F6E29293B0000000000000000000000 PUSH1 0x10 DUP7 PUSH32 0x2070726F6475637444617461203D2061776169742046756E6374696F6E732E6D DUP8 PUSH32 0x6E732E6D616B654874747052657175657374287B75726C3A202768747470733A DUP9 DUP9 PUSH2 0x42B PUSH1 0x14 SSTORE PUSH1 0x14 DUP2 MSTORE KECCAK256 SWAP4 PUSH32 0x636F6E7374206D61726B657444617461203D2061776169742046756E6374696F DUP6 SSTORE DUP5 ADD SSTORE PUSH32 0x2F2F6170692E636F696E6765636B6F2E636F6D2F6170692F76332F73696D706C PUSH1 0x2 DUP5 ADD SSTORE PUSH32 0x652F7072696365272C706172616D733A207B6964733A2027657468657265756D PUSH1 0x3 DUP5 ADD SSTORE PUSH32 0x272C2076735F63757272656E636965733A2027757364277D7D293B636F6E7374 PUSH1 0x4 DUP5 ADD SSTORE DUP3 ADD SSTORE PUSH32 0x616B654874747052657175657374287B75726C3A20617267735B305D2C6D6574 PUSH1 0x6 DUP3 ADD SSTORE PUSH32 0x686F643A2027474554272C706172616D733A207B70726F6475637449643A2061 PUSH1 0x7 DUP3 ADD SSTORE PUSH32 0x7267735B315D2C2075736572546965723A20617267735B325D7D7D293B636F6E PUSH1 0x8 DUP3 ADD SSTORE PUSH32 0x7374206F7074696D697A6174696F6E203D207B6261736550726963653A207072 PUSH1 0x9 DUP3 ADD SSTORE PUSH32 0x6F64756374446174612E646174612E70726963652C74696572446973636F756E PUSH1 0xA DUP3 ADD SSTORE PUSH32 0x743A207061727365496E7428617267735B325D29202A20352C6D61726B65744D PUSH1 0xB DUP3 ADD SSTORE PUSH32 0x756C7469706C6965723A206D61726B6574446174612E646174612E6574686572 PUSH1 0xC DUP3 ADD SSTORE PUSH32 0x65756D2E757364203E2033303030203F20302E3935203A20312E302C7265636F PUSH1 0xD DUP3 ADD SSTORE PUSH32 0x6D6D656E6465645061796D656E743A20276D69786564277D3B72657475726E20 PUSH1 0xE DUP3 ADD SSTORE PUSH32 0x46756E6374696F6E732E656E636F6465537472696E67284A534F4E2E73747269 PUSH1 0xF DUP3 ADD SSTORE ADD SSTORE PUSH1 0x40 MLOAD PUSH2 0x40B9 SWAP1 DUP2 PUSH3 0x8F5 DUP3 CODECOPY PUSH1 0x80 MLOAD DUP2 DUP2 DUP2 PUSH2 0x4C7 ADD MSTORE PUSH2 0x2DC5 ADD MSTORE PUSH1 0xA0 MLOAD DUP2 PUSH2 0x2285 ADD MSTORE PUSH1 0xC0 MLOAD DUP2 DUP2 DUP2 PUSH2 0x52A ADD MSTORE DUP2 DUP2 PUSH2 0xDED ADD MSTORE DUP2 DUP2 PUSH2 0x1373 ADD MSTORE DUP2 DUP2 PUSH2 0x1581 ADD MSTORE PUSH2 0x2F36 ADD MSTORE PUSH1 0xE0 MLOAD DUP2 DUP2 DUP2 PUSH2 0x19D3 ADD MSTORE PUSH2 0x20EA ADD MSTORE RETURN JUMPDEST PUSH1 0x14 DUP3 MSTORE PUSH1 0x11 PUSH1 0x1F DUP5 DUP5 KECCAK256 SWAP3 ADD DUP6 SHR DUP3 ADD SWAP2 ADD JUMPDEST DUP2 DUP2 LT PUSH3 0x7F3 JUMPI POP PUSH3 0x4E4 JUMP JUMPDEST DUP3 DUP2 SSTORE DUP6 ADD PUSH3 0x7E4 JUMP JUMPDEST PUSH1 0x13 DUP5 MSTORE PUSH1 0x16 PUSH1 0x1F DUP4 DUP7 KECCAK256 SWAP3 ADD DUP5 SHR DUP3 ADD SWAP2 ADD JUMPDEST DUP2 DUP2 LT PUSH3 0x821 JUMPI POP PUSH3 0x17D JUMP JUMPDEST DUP5 DUP2 SSTORE PUSH1 0x1 ADD PUSH3 0x812 JUMP JUMPDEST PUSH1 0x40 MLOAD PUSH3 0x461BCD PUSH1 0xE5 SHL DUP2 MSTORE PUSH1 0x4 DUP2 ADD DUP10 SWAP1 MSTORE PUSH1 0x18 PUSH1 0x24 DUP3 ADD MSTORE PUSH32 0x43616E6E6F7420736574206F776E657220746F207A65726F0000000000000000 PUSH1 0x44 DUP3 ADD MSTORE PUSH1 0x64 SWAP1 REVERT JUMPDEST PUSH1 0x0 DUP1 REVERT JUMPDEST PUSH4 0x4E487B71 PUSH1 0xE0 SHL PUSH1 0x0 MSTORE PUSH1 0x41 PUSH1 0x4 MSTORE PUSH1 0x24 PUSH1 0x0 REVERT JUMPDEST MLOAD SWAP1 PUSH1 0x1 PUSH1 0x1 PUSH1 0xA0 SHL SUB DUP3 AND DUP3 SUB PUSH3 0x872 JUMPI JUMP JUMPDEST MLOAD SWAP1 PUSH1 0x1 PUSH1 0x1 PUSH1 0x40 SHL SUB DUP3 AND DUP3 SUB PUSH3 0x872 JUMPI JUMP JUMPDEST SWAP1 PUSH1 0x1 DUP3 DUP2 SHR SWAP3 AND DUP1 ISZERO PUSH3 0x8E9 JUMPI JUMPDEST PUSH1 0x20 DUP4 LT EQ PUSH3 0x8D3 JUMPI JUMP JUMPDEST PUSH4 0x4E487B71 PUSH1 0xE0 SHL PUSH1 0x0 MSTORE PUSH1 0x22 PUSH1 0x4 MSTORE PUSH1 0x24 PUSH1 0x0 REVERT JUMPDEST SWAP2 PUSH1 0x7F AND SWAP2 PUSH3 0x8C7 JUMP INVALID PUSH1 0x80 PUSH1 0x40 MSTORE PUSH1 0x4 CALLDATASIZE LT ISZERO PUSH2 0x12 JUMPI PUSH1 0x0 DUP1 REVERT JUMPDEST PUSH1 0x0 CALLDATALOAD PUSH1 0xE0 SHR DUP1 PUSH4 0x9C1BA2E EQ PUSH2 0x2F2 JUMPI DUP1 PUSH4 0xCA76175 EQ PUSH2 0x2ED JUMPI DUP1 PUSH4 0xD46664C EQ PUSH2 0x2E8 JUMPI DUP1 PUSH4 0x17964B1F EQ PUSH2 0x2E3 JUMPI DUP1 PUSH4 0x1A1D9252 EQ PUSH2 0x2DE JUMPI DUP1 PUSH4 0x1FE543E3 EQ PUSH2 0x2D9 JUMPI DUP1 PUSH4 0x24F74697 EQ PUSH2 0x2D4 JUMPI DUP1 PUSH4 0x2795AD20 EQ PUSH2 0x2CF JUMPI DUP1 PUSH4 0x27E4E93C EQ PUSH2 0x2CA JUMPI DUP1 PUSH4 0x2F7C5411 EQ PUSH2 0x2C5 JUMPI DUP1 PUSH4 0x3CD3AF69 EQ PUSH2 0x2C0 JUMPI DUP1 PUSH4 0x3D9A7F90 EQ PUSH2 0x2BB JUMPI DUP1 PUSH4 0x42F6FB29 EQ PUSH2 0x2B6 JUMPI DUP1 PUSH4 0x4585E33B EQ PUSH2 0x2B1 JUMPI DUP1 PUSH4 0x4613C2E3 EQ PUSH2 0x2AC JUMPI DUP1 PUSH4 0x48E6CAD6 EQ PUSH2 0x2A7 JUMPI DUP1 PUSH4 0x4BFCCAC4 EQ PUSH2 0x2A2 JUMPI DUP1 PUSH4 0x4F49AE38 EQ PUSH2 0x29D JUMPI DUP1 PUSH4 0x51858E27 EQ PUSH2 0x270 JUMPI DUP1 PUSH4 0x5A74373C EQ PUSH2 0x298 JUMPI DUP1 PUSH4 0x61728F39 EQ PUSH2 0x293 JUMPI DUP1 PUSH4 0x6E04FF0D EQ PUSH2 0x28E JUMPI DUP1 PUSH4 0x6E74336B EQ PUSH2 0x289 JUMPI DUP1 PUSH4 0x79BA5097 EQ PUSH2 0x284 JUMPI DUP1 PUSH4 0x7CCFD7FC EQ PUSH2 0x27F JUMPI DUP1 PUSH4 0x8662CFDE EQ PUSH2 0x27A JUMPI DUP1 PUSH4 0x8DA5CB5B EQ PUSH2 0x275 JUMPI DUP1 PUSH4 0x8DC654A2 EQ PUSH2 0x270 JUMPI DUP1 PUSH4 0x8EA34860 EQ PUSH2 0x26B JUMPI DUP1 PUSH4 0x9C0E9137 EQ PUSH2 0x266 JUMPI DUP1 PUSH4 0xA3E56FA8 EQ PUSH2 0x261 JUMPI DUP1 PUSH4 0xA6701D65 EQ PUSH2 0x25C JUMPI DUP1 PUSH4 0xB0FB162F EQ PUSH2 0x257 JUMPI DUP1 PUSH4 0xB8F1EA28 EQ PUSH2 0x252 JUMPI DUP1 PUSH4 0xCB924866 EQ PUSH2 0x24D JUMPI DUP1 PUSH4 0xCBE2BFE3 EQ PUSH2 0x248 JUMPI DUP1 PUSH4 0xCF2C0334 EQ PUSH2 0x243 JUMPI DUP1 PUSH4 0xD3386809 EQ PUSH2 0x23E JUMPI DUP1 PUSH4 0xD3C4E9E5 EQ PUSH2 0x239 JUMPI DUP1 PUSH4 0xDEFF12A8 EQ PUSH2 0x234 JUMPI DUP1 PUSH4 0xE91A2688 EQ PUSH2 0x22F JUMPI DUP1 PUSH4 0xED647D21 EQ PUSH2 0x22A JUMPI DUP1 PUSH4 0xF2FDE38B EQ PUSH2 0x225 JUMPI DUP1 PUSH4 0xF68016B7 EQ PUSH2 0x220 JUMPI DUP1 PUSH4 0xF8413B07 EQ PUSH2 0x21B JUMPI PUSH4 0xFC2E6FC1 EQ PUSH2 0x216 JUMPI PUSH1 0x0 DUP1 REVERT JUMPDEST PUSH2 0x2189 JUMP JUMPDEST PUSH2 0x205F JUMP JUMPDEST PUSH2 0x2038 JUMP JUMPDEST PUSH2 0x1F74 JUMP JUMPDEST PUSH2 0x1F4A JUMP JUMPDEST PUSH2 0x1EEF JUMP JUMPDEST PUSH2 0x1E76 JUMP JUMPDEST PUSH2 0x1E3C JUMP JUMPDEST PUSH2 0x1E1E JUMP JUMPDEST PUSH2 0x1D91 JUMP JUMPDEST PUSH2 0x1CC3 JUMP JUMPDEST PUSH2 0x1C01 JUMP JUMPDEST PUSH2 0x1B5A JUMP JUMPDEST PUSH2 0x1B36 JUMP JUMPDEST PUSH2 0x1A64 JUMP JUMPDEST PUSH2 0x19BD JUMP JUMPDEST PUSH2 0x18E9 JUMP JUMPDEST PUSH2 0x1851 JUMP JUMPDEST PUSH2 0x1657 JUMP JUMPDEST PUSH2 0x1828 JUMP JUMPDEST PUSH2 0x17FF JUMP JUMPDEST PUSH2 0x17D8 JUMP JUMPDEST PUSH2 0x171C JUMP JUMPDEST PUSH2 0x16FE JUMP JUMPDEST PUSH2 0x16AC JUMP JUMPDEST PUSH2 0x168E JUMP JUMPDEST PUSH2 0x1670 JUMP JUMPDEST PUSH2 0x15B0 JUMP JUMPDEST PUSH2 0x156B JUMP JUMPDEST PUSH2 0x14A6 JUMP JUMPDEST PUSH2 0x1284 JUMP JUMPDEST PUSH2 0x1196 JUMP JUMPDEST PUSH2 0x1120 JUMP JUMPDEST PUSH2 0x1079 JUMP JUMPDEST PUSH2 0xF98 JUMP JUMPDEST PUSH2 0xD33 JUMP JUMPDEST PUSH2 0xC8B JUMP JUMPDEST PUSH2 0x9EA JUMP JUMPDEST PUSH2 0x9C6 JUMP JUMPDEST PUSH2 0x939 JUMP JUMPDEST PUSH2 0x8F6 JUMP JUMPDEST PUSH2 0x8A5 JUMP JUMPDEST PUSH2 0x728 JUMP JUMPDEST PUSH2 0x46F JUMP JUMPDEST PUSH2 0x307 JUMP JUMPDEST PUSH1 0x0 SWAP2 SUB SLT PUSH2 0x302 JUMPI JUMP JUMPDEST PUSH1 0x0 DUP1 REVERT JUMPDEST CALLVALUE PUSH2 0x302 JUMPI PUSH1 0x0 CALLDATASIZE PUSH1 0x3 NOT ADD SLT PUSH2 0x302 JUMPI PUSH1 0x20 PUSH1 0x1 PUSH1 0x1 PUSH1 0x40 SHL SUB PUSH1 0x3 SLOAD AND PUSH1 0x40 MLOAD SWAP1 DUP2 MSTORE RETURN JUMPDEST PUSH4 0x4E487B71 PUSH1 0xE0 SHL PUSH1 0x0 MSTORE PUSH1 0x41 PUSH1 0x4 MSTORE PUSH1 0x24 PUSH1 0x0 REVERT JUMPDEST PUSH1 0x1 PUSH1 0x1 PUSH1 0x40 SHL SUB DUP2 GT PUSH2 0x357 JUMPI PUSH1 0x40 MSTORE JUMP JUMPDEST PUSH2 0x32E JUMP JUMPDEST PUSH2 0x100 DUP2 ADD SWAP1 DUP2 LT PUSH1 0x1 PUSH1 0x1 PUSH1 0x40 SHL SUB DUP3 GT OR PUSH2 0x357 JUMPI PUSH1 0x40 MSTORE JUMP JUMPDEST PUSH1 0x40 DUP2 ADD SWAP1 DUP2 LT PUSH1 0x1 PUSH1 0x1 PUSH1 0x40 SHL SUB DUP3 GT OR PUSH2 0x357 JUMPI PUSH1 0x40 MSTORE JUMP JUMPDEST PUSH1 0xE0 DUP2 ADD SWAP1 DUP2 LT PUSH1 0x1 PUSH1 0x1 PUSH1 0x40 SHL SUB DUP3 GT OR PUSH2 0x357 JUMPI PUSH1 0x40 MSTORE JUMP JUMPDEST PUSH1 0x20 DUP2 ADD SWAP1 DUP2 LT PUSH1 0x1 PUSH1 0x1 PUSH1 0x40 SHL SUB DUP3 GT OR PUSH2 0x357 JUMPI PUSH1 0x40 MSTORE JUMP JUMPDEST SWAP1 PUSH1 0x1F DUP1 NOT SWAP2 ADD AND DUP2 ADD SWAP1 DUP2 LT PUSH1 0x1 PUSH1 0x1 PUSH1 0x40 SHL SUB DUP3 GT OR PUSH2 0x357 JUMPI PUSH1 0x40 MSTORE JUMP JUMPDEST PUSH1 0x40 MLOAD SWAP1 PUSH2 0x3F7 DUP3 PUSH2 0x393 JUMP JUMPDEST JUMP JUMPDEST PUSH1 0x40 MLOAD SWAP1 PUSH2 0x140 DUP3 ADD DUP3 DUP2 LT PUSH1 0x1 PUSH1 0x1 PUSH1 0x40 SHL SUB DUP3 GT OR PUSH2 0x357 JUMPI PUSH1 0x40 MSTORE JUMP JUMPDEST DUP2 PUSH1 0x1F DUP3 ADD SLT ISZERO PUSH2 0x302 JUMPI DUP1 CALLDATALOAD SWAP1 PUSH1 0x1 PUSH1 0x1 PUSH1 0x40 SHL SUB DUP3 GT PUSH2 0x357 JUMPI PUSH1 0x40 MLOAD SWAP3 PUSH2 0x44D PUSH1 0x1F DUP5 ADD PUSH1 0x1F NOT AND PUSH1 0x20 ADD DUP6 PUSH2 0x3C9 JUMP JUMPDEST DUP3 DUP5 MSTORE PUSH1 0x20 DUP4 DUP4 ADD ADD GT PUSH2 0x302 JUMPI DUP2 PUSH1 0x0 SWAP3 PUSH1 0x20 DUP1 SWAP4 ADD DUP4 DUP7 ADD CALLDATACOPY DUP4 ADD ADD MSTORE SWAP1 JUMP JUMPDEST CALLVALUE PUSH2 0x302 JUMPI PUSH1 0x60 CALLDATASIZE PUSH1 0x3 NOT ADD SLT PUSH2 0x302 JUMPI PUSH1 0x4 DUP1 CALLDATALOAD SWAP1 PUSH1 0x1 PUSH1 0x1 PUSH1 0x40 SHL SUB PUSH1 0x24 CALLDATALOAD DUP2 DUP2 GT PUSH2 0x302 JUMPI PUSH2 0x4A4 SWAP1 CALLDATASIZE SWAP1 DUP5 ADD PUSH2 0x419 JUMP JUMPDEST POP PUSH1 0x44 CALLDATALOAD SWAP1 DUP2 GT PUSH2 0x302 JUMPI PUSH2 0x4BC SWAP1 CALLDATASIZE SWAP1 DUP4 ADD PUSH2 0x419 JUMP JUMPDEST SWAP1 PUSH1 0x1 PUSH1 0x1 PUSH1 0xA0 SHL SUB PUSH32 0x0 DUP2 AND CALLER SUB PUSH2 0x6C7 JUMPI PUSH2 0x512 PUSH2 0x505 DUP6 PUSH1 0x0 MSTORE PUSH1 0xA PUSH1 0x20 MSTORE PUSH1 0x40 PUSH1 0x0 KECCAK256 SWAP1 JUMP JUMPDEST SLOAD PUSH1 0x1 PUSH1 0x1 PUSH1 0xA0 SHL SUB AND SWAP1 JUMP JUMPDEST SWAP1 DUP1 DUP3 AND SWAP4 PUSH2 0x522 DUP6 ISZERO ISZERO PUSH2 0x2BFD JUMP JUMPDEST MLOAD ISZERO PUSH2 0x6B6 JUMPI PUSH32 0x0 AND DUP1 EXTCODESIZE ISZERO PUSH2 0x302 JUMPI PUSH1 0x40 MLOAD PUSH4 0x364ECB1 PUSH1 0xE0 SHL DUP2 MSTORE PUSH1 0x1 PUSH1 0x1 PUSH1 0xA0 SHL SUB SWAP1 SWAP3 AND DUP4 DUP4 ADD SWAP1 DUP2 MSTORE PUSH1 0x0 SWAP1 DUP4 SWAP1 DUP2 SWAP1 PUSH1 0x20 ADD SUB DUP2 DUP4 DUP6 GAS CALL SWAP2 DUP3 ISZERO PUSH2 0x698 JUMPI PUSH1 0x20 SWAP3 PUSH2 0x69D JUMPI JUMPDEST POP PUSH1 0x40 MLOAD PUSH4 0xC287FC73 PUSH1 0xE0 SHL DUP2 MSTORE SWAP3 DUP4 SWAP2 DUP3 SWAP1 GAS STATICCALL SWAP1 DUP2 ISZERO PUSH2 0x698 JUMPI PUSH1 0x0 SWAP2 PUSH2 0x66A JUMPI JUMPDEST POP PUSH1 0x8 PUSH2 0x5C9 DUP5 PUSH1 0x0 MSTORE PUSH1 0x9 PUSH1 0x20 MSTORE PUSH1 0x40 PUSH1 0x0 KECCAK256 SWAP1 JUMP JUMPDEST ADD SSTORE JUMPDEST PUSH2 0x5F3 PUSH2 0x5E3 DUP4 PUSH1 0x0 MSTORE PUSH1 0xA PUSH1 0x20 MSTORE PUSH1 0x40 PUSH1 0x0 KECCAK256 SWAP1 JUMP JUMPDEST DUP1 SLOAD PUSH1 0x1 PUSH1 0x1 PUSH1 0xA0 SHL SUB NOT AND SWAP1 SSTORE JUMP JUMPDEST DUP2 PUSH32 0x90D2B702DB1BA873E2C5444F7924F774A61F9BE4BC267920A582D84AABB022F2 PUSH2 0x640 PUSH1 0x8 PUSH2 0x62E DUP5 PUSH1 0x0 MSTORE PUSH1 0x9 PUSH1 0x20 MSTORE PUSH1 0x40 PUSH1 0x0 KECCAK256 SWAP1 JUMP JUMPDEST ADD SLOAD PUSH1 0x40 MLOAD SWAP1 DUP2 MSTORE SWAP1 DUP2 SWAP1 PUSH1 0x20 DUP3 ADD SWAP1 JUMP JUMPDEST SUB SWAP1 LOG3 PUSH32 0x85E1543BF2F84FE80C6BADBCE3648C8539AD1DF4D2B3D822938CA0538BE727E6 PUSH1 0x0 DUP1 LOG2 STOP JUMPDEST PUSH2 0x68B SWAP2 POP PUSH1 0x20 RETURNDATASIZE DUP2 GT PUSH2 0x691 JUMPI JUMPDEST PUSH2 0x683 DUP2 DUP4 PUSH2 0x3C9 JUMP JUMPDEST DUP2 ADD SWAP1 PUSH2 0x2BEE JUMP JUMPDEST CODESIZE PUSH2 0x5B2 JUMP JUMPDEST POP RETURNDATASIZE PUSH2 0x679 JUMP JUMPDEST PUSH2 0x2A73 JUMP JUMPDEST DUP1 PUSH2 0x6AA PUSH2 0x6B0 SWAP3 PUSH2 0x344 JUMP JUMPDEST DUP1 PUSH2 0x2F7 JUMP JUMPDEST CODESIZE PUSH2 0x58E JUMP JUMPDEST POP POP POP PUSH2 0x6C2 DUP3 PUSH2 0x2EE6 JUMP JUMPDEST PUSH2 0x5CC JUMP JUMPDEST POP PUSH1 0x40 MLOAD PUSH4 0xC6829F83 PUSH1 0xE0 SHL DUP2 MSTORE REVERT JUMPDEST PUSH1 0x4 CALLDATALOAD SWAP1 PUSH1 0x1 PUSH1 0x1 PUSH1 0xA0 SHL SUB DUP3 AND DUP3 SUB PUSH2 0x302 JUMPI JUMP JUMPDEST PUSH1 0x20 SWAP1 DUP2 PUSH1 0x40 DUP2 DUP4 ADD SWAP3 DUP3 DUP2 MSTORE DUP6 MLOAD DUP1 SWAP5 MSTORE ADD SWAP4 ADD SWAP2 PUSH1 0x0 JUMPDEST DUP3 DUP2 LT PUSH2 0x714 JUMPI POP POP POP POP SWAP1 JUMP JUMPDEST DUP4 MLOAD DUP6 MSTORE SWAP4 DUP2 ADD SWAP4 SWAP3 DUP2 ADD SWAP3 PUSH1 0x1 ADD PUSH2 0x706 JUMP JUMPDEST CALLVALUE PUSH2 0x302 JUMPI PUSH1 0x20 CALLDATASIZE PUSH1 0x3 NOT ADD SLT PUSH2 0x302 JUMPI PUSH2 0x741 PUSH2 0x6D7 JUMP JUMPDEST PUSH1 0x10 SLOAD SWAP1 PUSH2 0x74E DUP3 PUSH2 0x2D3B JUMP JUMPDEST SWAP2 PUSH1 0x0 SWAP2 PUSH1 0x1 PUSH1 0x1 PUSH1 0xA0 SHL SUB SWAP1 DUP2 AND SWAP1 DUP4 JUMPDEST DUP4 DUP2 LT PUSH2 0x7B3 JUMPI DUP6 DUP6 PUSH2 0x772 DUP2 PUSH2 0x2D3B JUMP JUMPDEST SWAP2 PUSH1 0x0 JUMPDEST DUP3 DUP2 LT PUSH2 0x78F JUMPI PUSH1 0x40 MLOAD DUP1 PUSH2 0x78B DUP7 DUP3 PUSH2 0x6ED JUMP JUMPDEST SUB SWAP1 RETURN JUMPDEST DUP1 PUSH2 0x79D PUSH2 0x7AE SWAP3 DUP5 PUSH2 0x2455 JUMP JUMPDEST MLOAD PUSH2 0x7A8 DUP3 DUP8 PUSH2 0x2455 JUMP JUMPDEST MSTORE PUSH2 0x2C99 JUMP JUMPDEST PUSH2 0x776 JUMP JUMPDEST DUP3 DUP3 PUSH2 0x7E1 PUSH2 0x505 PUSH2 0x7D1 PUSH2 0x7C7 DUP7 PUSH2 0x832 JUMP JUMPDEST SWAP1 SLOAD SWAP1 PUSH1 0x3 SHL SHR SWAP1 JUMP JUMPDEST PUSH1 0x0 MSTORE PUSH1 0x9 PUSH1 0x20 MSTORE PUSH1 0x40 PUSH1 0x0 KECCAK256 SWAP1 JUMP JUMPDEST AND EQ PUSH2 0x7F6 JUMPI JUMPDEST PUSH2 0x7F1 SWAP1 PUSH2 0x2C99 JUMP JUMPDEST PUSH2 0x760 JUMP JUMPDEST SWAP4 PUSH2 0x814 PUSH2 0x7F1 SWAP2 PUSH2 0x80A PUSH2 0x7C7 DUP9 PUSH2 0x832 JUMP JUMPDEST PUSH2 0x7A8 DUP3 DUP11 PUSH2 0x2455 JUMP JUMPDEST SWAP5 SWAP1 POP PUSH2 0x7E8 JUMP JUMPDEST PUSH4 0x4E487B71 PUSH1 0xE0 SHL PUSH1 0x0 MSTORE PUSH1 0x32 PUSH1 0x4 MSTORE PUSH1 0x24 PUSH1 0x0 REVERT JUMPDEST PUSH1 0x10 SLOAD DUP2 LT ISZERO PUSH2 0x869 JUMPI PUSH1 0x10 PUSH1 0x0 MSTORE PUSH32 0x1B6847DC741A1B0CD08D278845F9D819D87B734759AFB55FE2DE5CB82A9AE672 ADD SWAP1 PUSH1 0x0 SWAP1 JUMP JUMPDEST PUSH2 0x81C JUMP JUMPDEST PUSH1 0x11 SLOAD DUP2 LT ISZERO PUSH2 0x869 JUMPI PUSH1 0x11 PUSH1 0x0 MSTORE PUSH32 0x31ECC21A745E3968A04E9570E4425BC18FA8019C68028196B546D1669C200C68 ADD SWAP1 PUSH1 0x0 SWAP1 JUMP JUMPDEST CALLVALUE PUSH2 0x302 JUMPI PUSH1 0x20 CALLDATASIZE PUSH1 0x3 NOT ADD SLT PUSH2 0x302 JUMPI PUSH1 0x4 CALLDATALOAD PUSH1 0x10 SLOAD DUP2 LT ISZERO PUSH2 0x302 JUMPI PUSH1 0x20 SWAP1 PUSH1 0x10 PUSH1 0x0 MSTORE PUSH32 0x1B6847DC741A1B0CD08D278845F9D819D87B734759AFB55FE2DE5CB82A9AE672 ADD SLOAD PUSH1 0x40 MLOAD SWAP1 DUP2 MSTORE RETURN JUMPDEST CALLVALUE PUSH2 0x302 JUMPI PUSH1 0x20 CALLDATASIZE PUSH1 0x3 NOT ADD SLT PUSH2 0x302 JUMPI PUSH1 0x4 CALLDATALOAD PUSH1 0x0 MSTORE PUSH1 0xF PUSH1 0x20 MSTORE PUSH1 0x20 PUSH1 0x40 PUSH1 0x0 KECCAK256 SLOAD PUSH1 0x40 MLOAD SWAP1 DUP2 MSTORE RETURN JUMPDEST PUSH1 0x1 PUSH1 0x1 PUSH1 0x40 SHL SUB DUP2 GT PUSH2 0x357 JUMPI PUSH1 0x5 SHL PUSH1 0x20 ADD SWAP1 JUMP JUMPDEST CALLVALUE PUSH2 0x302 JUMPI PUSH1 0x40 CALLDATASIZE PUSH1 0x3 NOT ADD SLT PUSH2 0x302 JUMPI PUSH1 0x24 CALLDATALOAD PUSH1 0x1 PUSH1 0x1 PUSH1 0x40 SHL SUB DUP2 GT PUSH2 0x302 JUMPI CALLDATASIZE PUSH1 0x23 DUP3 ADD SLT ISZERO PUSH2 0x302 JUMPI DUP1 PUSH1 0x4 ADD CALLDATALOAD SWAP1 PUSH2 0x975 DUP3 PUSH2 0x922 JUMP JUMPDEST SWAP1 PUSH2 0x983 PUSH1 0x40 MLOAD SWAP3 DUP4 PUSH2 0x3C9 JUMP JUMPDEST DUP3 DUP3 MSTORE PUSH1 0x20 SWAP3 PUSH1 0x24 DUP5 DUP5 ADD SWAP2 PUSH1 0x5 SHL DUP4 ADD ADD SWAP2 CALLDATASIZE DUP4 GT PUSH2 0x302 JUMPI PUSH1 0x24 ADD SWAP1 JUMPDEST DUP3 DUP3 LT PUSH2 0x9B7 JUMPI PUSH2 0x9B5 DUP5 PUSH1 0x4 CALLDATALOAD PUSH2 0x2282 JUMP JUMPDEST STOP JUMPDEST DUP2 CALLDATALOAD DUP2 MSTORE SWAP1 DUP5 ADD SWAP1 DUP5 ADD PUSH2 0x9A2 JUMP JUMPDEST CALLVALUE PUSH2 0x302 JUMPI PUSH1 0x0 CALLDATASIZE PUSH1 0x3 NOT ADD SLT PUSH2 0x302 JUMPI PUSH1 0x20 PUSH4 0xFFFFFFFF PUSH1 0x5 SLOAD AND PUSH1 0x40 MLOAD SWAP1 DUP2 MSTORE RETURN JUMPDEST CALLVALUE PUSH2 0x302 JUMPI PUSH1 0x20 CALLDATASIZE PUSH1 0x3 NOT ADD SLT PUSH2 0x302 JUMPI PUSH1 0x4 CALLDATALOAD PUSH1 0x0 MSTORE PUSH1 0xA PUSH1 0x20 MSTORE PUSH1 0x20 PUSH1 0x1 DUP1 PUSH1 0xA0 SHL SUB PUSH1 0x40 PUSH1 0x0 KECCAK256 SLOAD AND PUSH1 0x40 MLOAD SWAP1 DUP2 MSTORE RETURN JUMPDEST SWAP1 PUSH1 0x1 DUP3 DUP2 SHR SWAP3 AND DUP1 ISZERO PUSH2 0xA4E JUMPI JUMPDEST PUSH1 0x20 DUP4 LT EQ PUSH2 0xA38 JUMPI JUMP JUMPDEST PUSH4 0x4E487B71 PUSH1 0xE0 SHL PUSH1 0x0 MSTORE PUSH1 0x22 PUSH1 0x4 MSTORE PUSH1 0x24 PUSH1 0x0 REVERT JUMPDEST SWAP2 PUSH1 0x7F AND SWAP2 PUSH2 0xA2D JUMP JUMPDEST SWAP1 PUSH1 0x0 SWAP3 SWAP2 DUP1 SLOAD SWAP2 PUSH2 0xA69 DUP4 PUSH2 0xA1E JUMP JUMPDEST SWAP2 DUP3 DUP3 MSTORE PUSH1 0x1 SWAP4 DUP5 DUP2 AND SWAP1 DUP2 PUSH1 0x0 EQ PUSH2 0xACB JUMPI POP PUSH1 0x1 EQ PUSH2 0xA8B JUMPI JUMPDEST POP POP POP POP JUMP JUMPDEST SWAP1 SWAP2 SWAP4 SWAP5 POP PUSH1 0x0 MSTORE PUSH1 0x20 SWAP3 DUP4 PUSH1 0x0 KECCAK256 SWAP3 DUP5 PUSH1 0x0 SWAP5 JUMPDEST DUP4 DUP7 LT PUSH2 0xAB7 JUMPI POP POP POP POP ADD ADD SWAP1 CODESIZE DUP1 DUP1 DUP1 PUSH2 0xA85 JUMP JUMPDEST DUP1 SLOAD DUP6 DUP8 ADD DUP4 ADD MSTORE SWAP5 ADD SWAP4 DUP6 SWAP1 DUP3 ADD PUSH2 0xAA0 JUMP JUMPDEST SWAP3 SWAP5 POP POP POP PUSH1 0x20 SWAP4 SWAP5 POP PUSH1 0xFF NOT AND DUP4 DUP4 ADD MSTORE ISZERO ISZERO PUSH1 0x5 SHL ADD ADD SWAP1 CODESIZE DUP1 DUP1 DUP1 PUSH2 0xA85 JUMP JUMPDEST PUSH1 0x40 MLOAD SWAP1 PUSH1 0x0 DUP3 PUSH1 0x13 SLOAD SWAP2 PUSH2 0xB02 DUP4 PUSH2 0xA1E JUMP JUMPDEST DUP1 DUP4 MSTORE SWAP3 PUSH1 0x1 SWAP1 DUP2 DUP2 AND SWAP1 DUP2 ISZERO PUSH2 0xB88 JUMPI POP PUSH1 0x1 EQ PUSH2 0xB29 JUMPI JUMPDEST POP PUSH2 0x3F7 SWAP3 POP SUB DUP4 PUSH2 0x3C9 JUMP JUMPDEST PUSH1 0x13 PUSH1 0x0 SWAP1 DUP2 MSTORE SWAP2 POP PUSH32 0x66DE8FFDA797E3DE9C05E8FC57B3BF0EC28A930D40B0D285D93C06501CF6A090 JUMPDEST DUP5 DUP4 LT PUSH2 0xB6D JUMPI POP PUSH2 0x3F7 SWAP4 POP POP DUP2 ADD PUSH1 0x20 ADD CODESIZE PUSH2 0xB1C JUMP JUMPDEST DUP2 SWAP4 POP SWAP1 DUP2 PUSH1 0x20 SWAP3 SLOAD DUP4 DUP6 DUP11 ADD ADD MSTORE ADD SWAP2 ADD SWAP1 SWAP2 DUP6 SWAP3 PUSH2 0xB54 JUMP JUMPDEST SWAP1 POP PUSH1 0x20 SWAP3 POP PUSH2 0x3F7 SWAP5 SWAP2 POP PUSH1 0xFF NOT AND DUP3 DUP5 ADD MSTORE ISZERO ISZERO PUSH1 0x5 SHL DUP3 ADD ADD CODESIZE PUSH2 0xB1C JUMP JUMPDEST SWAP1 PUSH2 0x3F7 PUSH2 0xBBE SWAP3 PUSH1 0x40 MLOAD SWAP4 DUP5 DUP1 SWAP3 PUSH2 0xA58 JUMP JUMPDEST SUB DUP4 PUSH2 0x3C9 JUMP JUMPDEST PUSH1 0x0 JUMPDEST DUP4 DUP2 LT PUSH2 0xBD8 JUMPI POP POP PUSH1 0x0 SWAP2 ADD MSTORE JUMP JUMPDEST DUP2 DUP2 ADD MLOAD DUP4 DUP3 ADD MSTORE PUSH1 0x20 ADD PUSH2 0xBC8 JUMP JUMPDEST SWAP1 PUSH1 0x20 SWAP2 PUSH2 0xC01 DUP2 MLOAD DUP1 SWAP3 DUP2 DUP6 MSTORE DUP6 DUP1 DUP7 ADD SWAP2 ADD PUSH2 0xBC5 JUMP JUMPDEST PUSH1 0x1F ADD PUSH1 0x1F NOT AND ADD ADD SWAP1 JUMP JUMPDEST SWAP7 SWAP4 PUSH2 0xC53 PUSH2 0xC6F SWAP5 PUSH2 0xC45 PUSH2 0x120 SWAP12 SWAP9 SWAP6 SWAP10 SWAP15 SWAP14 SWAP13 SWAP10 PUSH2 0xC61 SWAP6 PUSH1 0x1 DUP1 PUSH1 0xA0 SHL SUB AND DUP13 MSTORE PUSH1 0x20 DUP13 PUSH2 0x140 SWAP2 DUP3 SWAP2 ADD MSTORE DUP13 ADD SWAP1 PUSH2 0xBE8 JUMP JUMPDEST SWAP1 DUP11 DUP3 SUB PUSH1 0x40 DUP13 ADD MSTORE PUSH2 0xBE8 JUMP JUMPDEST SWAP1 DUP9 DUP3 SUB PUSH1 0x60 DUP11 ADD MSTORE PUSH2 0xBE8 JUMP JUMPDEST SWAP1 DUP7 DUP3 SUB PUSH1 0x80 DUP9 ADD MSTORE PUSH2 0xBE8 JUMP JUMPDEST SWAP8 PUSH1 0xA0 DUP6 ADD MSTORE PUSH1 0xC0 DUP5 ADD MSTORE ISZERO ISZERO PUSH1 0xE0 DUP4 ADD MSTORE PUSH2 0x100 DUP3 ADD MSTORE ADD MSTORE JUMP JUMPDEST CALLVALUE PUSH2 0x302 JUMPI PUSH1 0x20 CALLDATASIZE PUSH1 0x3 NOT ADD SLT PUSH2 0x302 JUMPI PUSH1 0x4 CALLDATALOAD PUSH1 0x0 MSTORE PUSH1 0x9 PUSH1 0x20 MSTORE PUSH1 0x40 PUSH1 0x0 KECCAK256 PUSH1 0x1 DUP1 PUSH1 0xA0 SHL SUB DUP2 SLOAD AND PUSH2 0x78B PUSH1 0x40 MLOAD SWAP3 PUSH2 0xCD5 DUP5 PUSH2 0xCCE DUP2 PUSH1 0x1 DUP6 ADD PUSH2 0xA58 JUMP JUMPDEST SUB DUP6 PUSH2 0x3C9 JUMP JUMPDEST PUSH1 0x40 MLOAD SWAP1 PUSH2 0xCEA DUP3 PUSH2 0xBBE DUP2 PUSH1 0x2 DUP6 ADD PUSH2 0xA58 JUMP JUMPDEST PUSH2 0xCF6 PUSH1 0x3 DUP3 ADD PUSH2 0xBAA JUMP JUMPDEST PUSH2 0xD02 PUSH1 0x4 DUP4 ADD PUSH2 0xBAA JUMP JUMPDEST PUSH1 0x5 DUP4 ADD SLOAD PUSH1 0x6 DUP5 ADD SLOAD SWAP2 PUSH2 0xD1B PUSH1 0x7 DUP7 ADD SLOAD PUSH1 0xFF AND SWAP1 JUMP JUMPDEST SWAP4 PUSH1 0x9 PUSH1 0x8 DUP8 ADD SLOAD SWAP7 ADD SLOAD SWAP7 PUSH1 0x40 MLOAD SWAP11 DUP12 SWAP11 DUP12 PUSH2 0xC0D JUMP JUMPDEST CALLVALUE PUSH2 0x302 JUMPI PUSH1 0x40 DUP1 PUSH1 0x3 NOT CALLDATASIZE ADD SLT PUSH2 0x302 JUMPI PUSH1 0x4 CALLDATALOAD SWAP1 PUSH1 0x1 PUSH1 0x1 PUSH1 0x40 SHL SUB DUP3 GT PUSH2 0x302 JUMPI PUSH2 0xD66 PUSH1 0x4 SWAP3 CALLDATASIZE SWAP1 DUP5 ADD PUSH2 0x419 JUMP JUMPDEST PUSH1 0x5 SLOAD SWAP1 SWAP2 SWAP1 PUSH1 0x24 CALLDATALOAD SWAP1 PUSH1 0xA0 SWAP1 PUSH2 0xD90 SWAP1 PUSH1 0x50 SHR PUSH1 0x1 PUSH1 0x1 PUSH1 0xA0 SHL SUB AND JUMPDEST PUSH1 0x1 PUSH1 0x1 PUSH1 0xA0 SHL SUB AND SWAP1 JUMP JUMPDEST DUP4 MLOAD PUSH4 0x3FABE5A3 PUSH1 0xE2 SHL DUP2 MSTORE SWAP6 DUP7 SWAP2 DUP3 SWAP1 GAS STATICCALL SWAP4 DUP5 ISZERO PUSH2 0x698 JUMPI PUSH1 0x0 SWAP5 PUSH2 0xF39 JUMPI JUMPDEST POP PUSH5 0x45D964B800 DUP2 SWAP5 SGT PUSH2 0xF1C JUMPI JUMPDEST POP DUP1 MLOAD PUSH4 0x78547D5F PUSH1 0xE0 SHL DUP2 MSTORE CALLER PUSH1 0x4 DUP3 ADD MSTORE PUSH1 0x24 DUP2 ADD DUP5 SWAP1 MSTORE SWAP1 DUP1 DUP3 PUSH1 0x44 DUP2 PUSH1 0x0 PUSH1 0x1 PUSH1 0x1 PUSH1 0xA0 SHL SUB PUSH32 0x0 AND GAS CALL SWAP3 DUP4 ISZERO PUSH2 0x698 JUMPI PUSH1 0x0 SWAP3 DUP4 SWAP5 PUSH2 0xEC5 JUMPI JUMPDEST POP PUSH32 0x58729D6A35C4824FDD6B8A48FE452F93DD3DF1B46C96CA25E27AEF1B183E5EB8 DUP4 PUSH2 0x78B SWAP5 SWAP6 SWAP7 PUSH2 0xE9C PUSH2 0xE68 CALLER PUSH1 0x1 DUP1 PUSH1 0xA0 SHL SUB AND PUSH1 0x0 MSTORE PUSH1 0xD PUSH1 0x20 MSTORE PUSH1 0x40 PUSH1 0x0 KECCAK256 SWAP1 JUMP JUMPDEST PUSH2 0xE70 PUSH2 0x3EA JUMP JUMPDEST CALLER DUP2 MSTORE SWAP1 DUP7 PUSH1 0x20 DUP4 ADD MSTORE DUP4 DUP9 DUP4 ADD MSTORE DUP5 PUSH1 0x60 DUP4 ADD MSTORE DUP5 PUSH1 0x80 DUP4 ADD MSTORE DUP11 PUSH1 0xA0 DUP4 ADD MSTORE TIMESTAMP PUSH1 0xC0 DUP4 ADD MSTORE PUSH2 0x2B40 JUMP JUMPDEST PUSH2 0xEAC DUP6 MLOAD SWAP3 DUP4 SWAP3 CALLER SWAP7 DUP5 PUSH2 0x2BCC JUMP JUMPDEST SUB SWAP1 LOG2 MLOAD SWAP2 DUP3 MSTORE PUSH1 0x20 DUP3 ADD SWAP3 SWAP1 SWAP3 MSTORE SWAP1 DUP2 SWAP1 PUSH1 0x40 DUP3 ADD SWAP1 JUMP JUMPDEST PUSH32 0x58729D6A35C4824FDD6B8A48FE452F93DD3DF1B46C96CA25E27AEF1B183E5EB8 SWAP5 POP PUSH2 0x78B SWAP4 POP PUSH2 0xF0C SWAP1 DUP4 RETURNDATASIZE DUP6 GT PUSH2 0xF15 JUMPI JUMPDEST PUSH2 0xF04 DUP2 DUP4 PUSH2 0x3C9 JUMP JUMPDEST DUP2 ADD SWAP1 PUSH2 0x2B2A JUMP JUMPDEST SWAP5 SWAP1 SWAP4 POP PUSH2 0xE20 JUMP JUMPDEST POP RETURNDATASIZE PUSH2 0xEFA JUMP JUMPDEST PUSH2 0xF32 SWAP2 SWAP4 POP PUSH2 0xF2B SWAP1 PUSH2 0x2AFE JUMP JUMPDEST PUSH1 0x64 SWAP1 DIV SWAP1 JUMP JUMPDEST SWAP2 CODESIZE PUSH2 0xDC1 JUMP JUMPDEST PUSH2 0xF5B SWAP2 SWAP5 POP PUSH1 0xA0 RETURNDATASIZE DUP2 GT PUSH2 0xF67 JUMPI JUMPDEST PUSH2 0xF53 DUP2 DUP4 PUSH2 0x3C9 JUMP JUMPDEST DUP2 ADD SWAP1 PUSH2 0x2AB6 JUMP JUMPDEST POP POP POP SWAP1 POP SWAP3 CODESIZE PUSH2 0xDB2 JUMP JUMPDEST POP RETURNDATASIZE PUSH2 0xF49 JUMP JUMPDEST PUSH4 0x4E487B71 PUSH1 0xE0 SHL PUSH1 0x0 MSTORE PUSH1 0x0 PUSH1 0x4 MSTORE PUSH1 0x24 PUSH1 0x0 REVERT JUMPDEST SWAP1 PUSH1 0x20 PUSH2 0xF95 SWAP3 DUP2 DUP2 MSTORE ADD SWAP1 PUSH2 0xBE8 JUMP JUMPDEST SWAP1 JUMP JUMPDEST CALLVALUE PUSH2 0x302 JUMPI PUSH1 0x0 DUP1 PUSH1 0x3 NOT CALLDATASIZE ADD SLT PUSH2 0x1076 JUMPI PUSH1 0x40 MLOAD SWAP1 DUP1 PUSH1 0x16 SLOAD PUSH2 0xFBB DUP2 PUSH2 0xA1E JUMP JUMPDEST DUP1 DUP6 MSTORE SWAP2 PUSH1 0x1 SWAP2 DUP1 DUP4 AND SWAP1 DUP2 ISZERO PUSH2 0x104C JUMPI POP PUSH1 0x1 EQ PUSH2 0xFF1 JUMPI JUMPDEST PUSH2 0x78B DUP6 PUSH2 0xFE5 DUP2 DUP8 SUB DUP3 PUSH2 0x3C9 JUMP JUMPDEST PUSH1 0x40 MLOAD SWAP2 DUP3 SWAP2 DUP3 PUSH2 0xF84 JUMP JUMPDEST SWAP3 POP PUSH1 0x16 DUP4 MSTORE PUSH32 0xD833147D7DC355BA459FC788F669E58CFAF9DC25DDCD0702E87D69C7B5124289 JUMPDEST DUP3 DUP5 LT PUSH2 0x1034 JUMPI POP POP POP DUP2 ADD PUSH1 0x20 ADD PUSH2 0xFE5 DUP3 PUSH2 0x78B PUSH2 0xFD5 JUMP JUMPDEST DUP1 SLOAD PUSH1 0x20 DUP6 DUP8 ADD DUP2 ADD SWAP2 SWAP1 SWAP2 MSTORE SWAP1 SWAP4 ADD SWAP3 DUP2 ADD PUSH2 0x1019 JUMP JUMPDEST DUP7 SWAP6 POP PUSH2 0x78B SWAP7 SWAP4 POP PUSH1 0x20 SWAP3 POP PUSH2 0xFE5 SWAP5 SWAP2 POP PUSH1 0xFF NOT AND DUP3 DUP5 ADD MSTORE ISZERO ISZERO PUSH1 0x5 SHL DUP3 ADD ADD SWAP3 SWAP4 PUSH2 0xFD5 JUMP JUMPDEST DUP1 REVERT JUMPDEST CALLVALUE PUSH2 0x302 JUMPI PUSH1 0x0 DUP1 PUSH1 0x3 NOT CALLDATASIZE ADD SLT PUSH2 0x1076 JUMPI PUSH1 0x40 MLOAD SWAP1 DUP1 PUSH1 0x17 SLOAD PUSH2 0x109C DUP2 PUSH2 0xA1E JUMP JUMPDEST DUP1 DUP6 MSTORE SWAP2 PUSH1 0x1 SWAP2 DUP1 DUP4 AND SWAP1 DUP2 ISZERO PUSH2 0x104C JUMPI POP PUSH1 0x1 EQ PUSH2 0x10C5 JUMPI PUSH2 0x78B DUP6 PUSH2 0xFE5 DUP2 DUP8 SUB DUP3 PUSH2 0x3C9 JUMP JUMPDEST SWAP3 POP PUSH1 0x17 DUP4 MSTORE PUSH32 0xC624B66CC0138B8FABC209247F72D758E1CF3343756D543BADBF24212BED8C15 JUMPDEST DUP3 DUP5 LT PUSH2 0x1108 JUMPI POP POP POP DUP2 ADD PUSH1 0x20 ADD PUSH2 0xFE5 DUP3 PUSH2 0x78B PUSH2 0xFD5 JUMP JUMPDEST DUP1 SLOAD PUSH1 0x20 DUP6 DUP8 ADD DUP2 ADD SWAP2 SWAP1 SWAP2 MSTORE SWAP1 SWAP4 ADD SWAP3 DUP2 ADD PUSH2 0x10ED JUMP JUMPDEST CALLVALUE PUSH2 0x302 JUMPI PUSH1 0x0 CALLDATASIZE PUSH1 0x3 NOT ADD SLT PUSH2 0x302 JUMPI PUSH1 0x5 SLOAD PUSH1 0x40 MLOAD PUSH1 0x50 SWAP2 SWAP1 SWAP2 SHR PUSH1 0x1 PUSH1 0x1 PUSH1 0xA0 SHL SUB AND DUP2 MSTORE PUSH1 0x20 SWAP1 RETURN JUMPDEST SWAP1 PUSH1 0x20 PUSH1 0x3 NOT DUP4 ADD SLT PUSH2 0x302 JUMPI PUSH1 0x4 CALLDATALOAD PUSH1 0x1 PUSH1 0x1 PUSH1 0x40 SHL SUB SWAP3 DUP4 DUP3 GT PUSH2 0x302 JUMPI DUP1 PUSH1 0x23 DUP4 ADD SLT ISZERO PUSH2 0x302 JUMPI DUP2 PUSH1 0x4 ADD CALLDATALOAD SWAP4 DUP5 GT PUSH2 0x302 JUMPI PUSH1 0x24 DUP5 DUP4 ADD ADD GT PUSH2 0x302 JUMPI PUSH1 0x24 ADD SWAP2 SWAP1 JUMP JUMPDEST CALLVALUE PUSH2 0x302 JUMPI PUSH2 0x11A4 CALLDATASIZE PUSH2 0x114D JUMP JUMPDEST POP POP PUSH2 0x11BE PUSH2 0x11B5 PUSH1 0x7 SLOAD TIMESTAMP PUSH2 0x2C4C JUMP JUMPDEST PUSH1 0x8 SLOAD LT PUSH2 0x2C59 JUMP JUMPDEST PUSH2 0x11C7 TIMESTAMP PUSH1 0x7 SSTORE JUMP JUMPDEST PUSH1 0x0 DUP1 JUMPDEST PUSH1 0x11 SLOAD DUP2 LT ISZERO PUSH2 0x1250 JUMPI PUSH2 0x11E7 PUSH2 0x11E1 DUP3 PUSH2 0x86E JUMP JUMPDEST POP PUSH2 0x2CA8 JUMP JUMPDEST PUSH1 0x5 DUP2 ADD SWAP1 PUSH2 0x11F7 DUP3 SLOAD PUSH1 0xFF AND SWAP1 JUMP JUMPDEST SWAP1 DUP2 PUSH2 0x1235 JUMPI JUMPDEST POP PUSH2 0x1213 JUMPI JUMPDEST POP PUSH2 0x120E SWAP1 PUSH2 0x2C99 JUMP JUMPDEST PUSH2 0x11CB JUMP JUMPDEST DUP1 SLOAD PUSH1 0xFF NOT AND SWAP1 SSTORE SWAP1 PUSH2 0x120E SWAP1 PUSH2 0x122E SWAP1 PUSH2 0x2C99 JUMP JUMPDEST PUSH2 0x2C99 JUMP JUMPDEST SWAP2 SWAP1 PUSH2 0x1204 JUMP JUMPDEST PUSH3 0x93A80 SWAP2 POP PUSH1 0x3 PUSH2 0x1249 SWAP2 ADD SLOAD TIMESTAMP PUSH2 0x2C4C JUMP JUMPDEST GT CODESIZE PUSH2 0x11FE JUMP JUMPDEST PUSH1 0x40 DUP1 MLOAD TIMESTAMP DUP2 MSTORE PUSH1 0x20 DUP2 ADD DUP5 SWAP1 MSTORE PUSH32 0x9FBC2AEB5BF6200E5499D345ACDDF1DD462C37BECB4673D661250B89CED7FF6A SWAP2 SWAP1 LOG1 STOP JUMPDEST CALLVALUE PUSH2 0x302 JUMPI PUSH1 0x60 CALLDATASIZE PUSH1 0x3 NOT ADD SLT PUSH2 0x302 JUMPI PUSH1 0x4 CALLDATALOAD PUSH1 0x1 PUSH1 0x1 PUSH1 0x40 SHL SUB DUP2 GT PUSH2 0x302 JUMPI PUSH2 0x12B4 SWAP1 CALLDATASIZE SWAP1 PUSH1 0x4 ADD PUSH2 0x419 JUMP JUMPDEST PUSH1 0x24 CALLDATALOAD DUP1 ISZERO ISZERO DUP2 SUB PUSH2 0x302 JUMPI PUSH1 0x44 CALLDATALOAD DUP2 PUSH2 0x12CD DUP5 PUSH2 0x145A JUMP JUMPDEST DUP1 SLOAD PUSH1 0x1 PUSH1 0x1 PUSH1 0xA0 SHL SUB SWAP4 SWAP2 DUP3 SWAP2 PUSH1 0x6 SWAP2 SWAP1 PUSH2 0x12EC SWAP1 DUP8 AND CALLER EQ PUSH2 0x29C3 JUMP JUMPDEST PUSH2 0x132A DUP6 PUSH1 0x5 DUP4 ADD PUSH2 0x130E PUSH2 0x1309 PUSH2 0x1305 DUP4 SLOAD PUSH1 0xFF AND SWAP1 JUMP JUMPDEST ISZERO SWAP1 JUMP JUMPDEST PUSH2 0x2A05 JUMP JUMPDEST DUP1 SLOAD PUSH2 0xFFFF NOT AND SWAP2 ISZERO ISZERO PUSH1 0x8 SHL PUSH2 0xFF00 AND SWAP2 SWAP1 SWAP2 OR PUSH1 0x1 OR SWAP1 SSTORE JUMP JUMPDEST ADD SSTORE DUP2 PUSH2 0x140E JUMPI JUMPDEST POP PUSH2 0x1371 JUMPI JUMPDEST POP PUSH2 0x136C PUSH32 0x954026A8087DAF30855F55C67B75ECF77B250BE0B8A98B914E2473B72F16C224 SWAP2 PUSH1 0x40 MLOAD SWAP2 DUP3 SWAP2 CALLER SWAP6 DUP4 PUSH2 0x2A7F JUMP JUMPDEST SUB SWAP1 LOG2 STOP JUMPDEST PUSH32 0x0 AND SWAP1 DUP2 EXTCODESIZE ISZERO PUSH2 0x302 JUMPI PUSH1 0x0 PUSH1 0x40 MLOAD DUP1 SWAP4 PUSH4 0x398D8F9D PUSH1 0xE0 SHL DUP3 MSTORE DUP2 DUP4 DUP2 PUSH2 0x13BD DUP10 CALLER PUSH1 0x4 DUP5 ADD PUSH2 0x2A51 JUMP JUMPDEST SUB SWAP3 GAS CALL SWAP1 DUP2 ISZERO PUSH2 0x698 JUMPI PUSH32 0x954026A8087DAF30855F55C67B75ECF77B250BE0B8A98B914E2473B72F16C224 SWAP3 PUSH2 0x136C SWAP3 PUSH2 0x13FB JUMPI JUMPDEST POP SWAP2 POP PUSH2 0x1338 JUMP JUMPDEST DUP1 PUSH2 0x6AA PUSH2 0x1408 SWAP3 PUSH2 0x344 JUMP JUMPDEST CODESIZE PUSH2 0x13F3 JUMP JUMPDEST PUSH1 0x46 SWAP2 POP GT CODESIZE PUSH2 0x1332 JUMP JUMPDEST PUSH1 0x20 PUSH1 0x3 NOT DUP3 ADD SLT PUSH2 0x302 JUMPI PUSH1 0x4 CALLDATALOAD SWAP1 PUSH1 0x1 PUSH1 0x1 PUSH1 0x40 SHL SUB DUP3 GT PUSH2 0x302 JUMPI PUSH2 0xF95 SWAP2 PUSH1 0x4 ADD PUSH2 0x419 JUMP JUMPDEST SWAP1 PUSH2 0x1456 PUSH1 0x20 SWAP3 DUP3 DUP2 MLOAD SWAP5 DUP6 SWAP3 ADD PUSH2 0xBC5 JUMP JUMPDEST ADD SWAP1 JUMP JUMPDEST PUSH1 0x20 PUSH2 0x1473 SWAP2 DUP2 PUSH1 0x40 MLOAD SWAP4 DUP3 DUP6 DUP1 SWAP5 MLOAD SWAP4 DUP5 SWAP3 ADD PUSH2 0xBC5 JUMP JUMPDEST DUP2 ADD PUSH1 0xC DUP2 MSTORE SUB ADD SWAP1 KECCAK256 SWAP1 JUMP JUMPDEST PUSH1 0x20 PUSH2 0x1499 SWAP2 DUP2 PUSH1 0x40 MLOAD SWAP4 DUP3 DUP6 DUP1 SWAP5 MLOAD SWAP4 DUP5 SWAP3 ADD PUSH2 0xBC5 JUMP JUMPDEST DUP2 ADD PUSH1 0xB DUP2 MSTORE SUB ADD SWAP1 KECCAK256 SWAP1 JUMP JUMPDEST CALLVALUE PUSH2 0x302 JUMPI PUSH2 0x14BC PUSH2 0x14B7 CALLDATASIZE PUSH2 0x1419 JUMP JUMPDEST PUSH2 0x145A JUMP JUMPDEST PUSH1 0x1 DUP1 PUSH1 0xA0 SHL SUB DUP2 SLOAD AND PUSH1 0x40 MLOAD SWAP2 PUSH2 0x14E2 DUP4 PUSH2 0x14DB DUP2 PUSH1 0x1 DUP6 ADD PUSH2 0xA58 JUMP JUMPDEST SUB DUP5 PUSH2 0x3C9 JUMP JUMPDEST PUSH1 0x40 MLOAD PUSH2 0x14FD DUP2 PUSH2 0x14F6 DUP2 PUSH1 0x2 DUP7 ADD PUSH2 0xA58 JUMP JUMPDEST SUB DUP3 PUSH2 0x3C9 JUMP JUMPDEST PUSH1 0xFF PUSH1 0x3 DUP4 ADD SLOAD SWAP3 PUSH1 0x4 DUP2 ADD SLOAD PUSH2 0x1542 PUSH1 0x6 PUSH1 0x5 DUP5 ADD SLOAD SWAP4 ADD SLOAD SWAP5 PUSH2 0x1534 PUSH1 0x40 MLOAD SWAP10 DUP11 SWAP10 DUP11 MSTORE PUSH2 0x100 DUP1 PUSH1 0x20 DUP13 ADD MSTORE DUP11 ADD SWAP1 PUSH2 0xBE8 JUMP JUMPDEST SWAP1 DUP9 DUP3 SUB PUSH1 0x40 DUP11 ADD MSTORE PUSH2 0xBE8 JUMP JUMPDEST SWAP5 PUSH1 0x60 DUP8 ADD MSTORE PUSH1 0x80 DUP7 ADD MSTORE DUP2 DUP2 AND ISZERO ISZERO PUSH1 0xA0 DUP7 ADD MSTORE PUSH1 0x8 SHR AND ISZERO ISZERO PUSH1 0xC0 DUP5 ADD MSTORE PUSH1 0xE0 DUP4 ADD MSTORE SUB SWAP1 RETURN JUMPDEST CALLVALUE PUSH2 0x302 JUMPI PUSH1 0x0 CALLDATASIZE PUSH1 0x3 NOT ADD SLT PUSH2 0x302 JUMPI PUSH1 0x40 MLOAD PUSH32 0x0 PUSH1 0x1 PUSH1 0x1 PUSH1 0xA0 SHL SUB AND DUP2 MSTORE PUSH1 0x20 SWAP1 RETURN JUMPDEST CALLVALUE PUSH2 0x302 JUMPI PUSH1 0x0 DUP1 PUSH1 0x3 NOT CALLDATASIZE ADD SLT PUSH2 0x1076 JUMPI PUSH1 0x40 MLOAD SWAP1 DUP1 PUSH1 0x15 SLOAD PUSH2 0x15D3 DUP2 PUSH2 0xA1E JUMP JUMPDEST DUP1 DUP6 MSTORE SWAP2 PUSH1 0x1 SWAP2 DUP1 DUP4 AND SWAP1 DUP2 ISZERO PUSH2 0x104C JUMPI POP PUSH1 0x1 EQ PUSH2 0x15FC JUMPI PUSH2 0x78B DUP6 PUSH2 0xFE5 DUP2 DUP8 SUB DUP3 PUSH2 0x3C9 JUMP JUMPDEST SWAP3 POP PUSH1 0x15 DUP4 MSTORE PUSH32 0x55F448FDEA98C4D29EB340757EF0A66CD03DBB9538908A6A81D96026B71EC475 JUMPDEST DUP3 DUP5 LT PUSH2 0x163F JUMPI POP POP POP DUP2 ADD PUSH1 0x20 ADD PUSH2 0xFE5 DUP3 PUSH2 0x78B PUSH2 0xFD5 JUMP JUMPDEST DUP1 SLOAD PUSH1 0x20 DUP6 DUP8 ADD DUP2 ADD SWAP2 SWAP1 SWAP2 MSTORE SWAP1 SWAP4 ADD SWAP3 DUP2 ADD PUSH2 0x1624 JUMP JUMPDEST CALLVALUE PUSH2 0x302 JUMPI PUSH1 0x0 CALLDATASIZE PUSH1 0x3 NOT ADD SLT PUSH2 0x302 JUMPI PUSH2 0x9B5 PUSH2 0x2230 JUMP JUMPDEST CALLVALUE PUSH2 0x302 JUMPI PUSH1 0x0 CALLDATASIZE PUSH1 0x3 NOT ADD SLT PUSH2 0x302 JUMPI PUSH1 0x20 PUSH1 0x8 SLOAD PUSH1 0x40 MLOAD SWAP1 DUP2 MSTORE RETURN JUMPDEST CALLVALUE PUSH2 0x302 JUMPI PUSH1 0x0 CALLDATASIZE PUSH1 0x3 NOT ADD SLT PUSH2 0x302 JUMPI PUSH1 0x20 PUSH1 0x4 SLOAD PUSH1 0x40 MLOAD SWAP1 DUP2 MSTORE RETURN JUMPDEST CALLVALUE PUSH2 0x302 JUMPI PUSH2 0x16BA CALLDATASIZE PUSH2 0x114D JUMP JUMPDEST POP POP PUSH1 0x7 SLOAD TIMESTAMP SUB TIMESTAMP DUP2 GT PUSH2 0x16F9 JUMPI PUSH1 0x8 SLOAD LT PUSH1 0x40 MLOAD SWAP1 PUSH2 0x16D9 DUP3 PUSH2 0x3AE JUMP JUMPDEST PUSH1 0x0 DUP3 MSTORE PUSH2 0x78B PUSH1 0x40 MLOAD SWAP3 DUP4 SWAP3 DUP4 MSTORE PUSH1 0x40 PUSH1 0x20 DUP5 ADD MSTORE PUSH1 0x40 DUP4 ADD SWAP1 PUSH2 0xBE8 JUMP JUMPDEST PUSH2 0x2AE8 JUMP JUMPDEST CALLVALUE PUSH2 0x302 JUMPI PUSH1 0x0 CALLDATASIZE PUSH1 0x3 NOT ADD SLT PUSH2 0x302 JUMPI PUSH1 0x20 PUSH1 0x2 SLOAD PUSH1 0x40 MLOAD SWAP1 DUP2 MSTORE RETURN JUMPDEST CALLVALUE PUSH2 0x302 JUMPI PUSH1 0x0 DUP1 PUSH1 0x3 NOT CALLDATASIZE ADD SLT PUSH2 0x1076 JUMPI PUSH1 0x1 SLOAD PUSH1 0x1 PUSH1 0x1 PUSH1 0xA0 SHL SUB SWAP1 DUP2 AND CALLER SUB PUSH2 0x179A JUMPI DUP2 SLOAD PUSH1 0x1 PUSH1 0x1 PUSH1 0xA0 SHL SUB AND PUSH1 0x0 DUP1 SLOAD PUSH1 0x1 PUSH1 0x1 PUSH1 0xA0 SHL SUB NOT AND CALLER OR SWAP1 SSTORE SWAP1 PUSH1 0x1 DUP1 SLOAD PUSH1 0x1 PUSH1 0x1 PUSH1 0xA0 SHL SUB NOT AND SWAP1 SSTORE CALLER SWAP2 AND PUSH32 0x8BE0079C531659141344CD1FD0A4F28419497F9722A3DAAFE3B4186F6B6457E0 DUP4 DUP1 LOG3 DUP1 RETURN JUMPDEST PUSH1 0x40 MLOAD PUSH3 0x461BCD PUSH1 0xE5 SHL DUP2 MSTORE PUSH1 0x20 PUSH1 0x4 DUP3 ADD MSTORE PUSH1 0x16 PUSH1 0x24 DUP3 ADD MSTORE PUSH22 0x26BAB9BA10313290383937B837B9B2B21037BBB732B9 PUSH1 0x51 SHL PUSH1 0x44 DUP3 ADD MSTORE PUSH1 0x64 SWAP1 REVERT JUMPDEST CALLVALUE PUSH2 0x302 JUMPI PUSH1 0x0 CALLDATASIZE PUSH1 0x3 NOT ADD SLT PUSH2 0x302 JUMPI PUSH1 0x20 PUSH4 0xFFFFFFFF PUSH1 0x5 SLOAD PUSH1 0x30 SHR AND PUSH1 0x40 MLOAD SWAP1 DUP2 MSTORE RETURN JUMPDEST CALLVALUE PUSH2 0x302 JUMPI PUSH1 0x0 CALLDATASIZE PUSH1 0x3 NOT ADD SLT PUSH2 0x302 JUMPI PUSH1 0x6 SLOAD PUSH1 0x40 MLOAD PUSH1 0x1 PUSH1 0x1 PUSH1 0xA0 SHL SUB SWAP1 SWAP2 AND DUP2 MSTORE PUSH1 0x20 SWAP1 RETURN JUMPDEST CALLVALUE PUSH2 0x302 JUMPI PUSH1 0x0 CALLDATASIZE PUSH1 0x3 NOT ADD SLT PUSH2 0x302 JUMPI PUSH1 0x0 SLOAD PUSH1 0x40 MLOAD PUSH1 0x1 PUSH1 0x1 PUSH1 0xA0 SHL SUB SWAP1 SWAP2 AND DUP2 MSTORE PUSH1 0x20 SWAP1 RETURN JUMPDEST CALLVALUE PUSH2 0x302 JUMPI PUSH2 0x18C0 PUSH2 0x186A PUSH2 0x1865 CALLDATASIZE PUSH2 0x1419 JUMP JUMPDEST PUSH2 0x1480 JUMP JUMPDEST PUSH1 0x40 MLOAD SWAP1 PUSH2 0x187C DUP3 PUSH2 0xBBE DUP2 DUP5 PUSH2 0xA58 JUMP JUMPDEST PUSH1 0x40 MLOAD PUSH2 0x1890 DUP2 PUSH2 0x14F6 DUP2 PUSH1 0x1 DUP7 ADD PUSH2 0xA58 JUMP JUMPDEST PUSH1 0x2 DUP3 ADD SLOAD SWAP2 PUSH1 0x3 DUP2 ADD SLOAD PUSH2 0x18CE PUSH1 0xFF PUSH1 0x5 PUSH1 0x4 DUP6 ADD SLOAD SWAP5 ADD SLOAD AND SWAP4 PUSH1 0x40 MLOAD SWAP8 DUP9 SWAP8 PUSH1 0xC0 DUP10 MSTORE PUSH1 0xC0 DUP10 ADD SWAP1 PUSH2 0xBE8 JUMP JUMPDEST SWAP1 DUP8 DUP3 SUB PUSH1 0x20 DUP10 ADD MSTORE PUSH2 0xBE8 JUMP JUMPDEST SWAP4 PUSH1 0x40 DUP7 ADD MSTORE PUSH1 0x60 DUP6 ADD MSTORE PUSH1 0x80 DUP5 ADD MSTORE ISZERO ISZERO PUSH1 0xA0 DUP4 ADD MSTORE SUB SWAP1 RETURN JUMPDEST CALLVALUE PUSH2 0x302 JUMPI PUSH1 0x60 CALLDATASIZE PUSH1 0x3 NOT ADD SLT PUSH2 0x302 JUMPI PUSH1 0x1 PUSH1 0x1 PUSH1 0x40 SHL SUB PUSH1 0x4 CALLDATALOAD DUP2 DUP2 GT PUSH2 0x302 JUMPI PUSH2 0x191A SWAP1 CALLDATASIZE SWAP1 PUSH1 0x4 ADD PUSH2 0x419 JUMP JUMPDEST SWAP1 PUSH1 0x24 CALLDATALOAD SWAP1 DUP2 GT PUSH2 0x302 JUMPI PUSH2 0x136C PUSH2 0x1957 PUSH32 0xDB684493790C86D37CEC11AF4BB999D4D3907B50FD83AFD6D77E02980A76D756 SWAP3 CALLDATASIZE SWAP1 PUSH1 0x4 ADD PUSH2 0x419 JUMP JUMPDEST PUSH2 0x19A6 PUSH1 0x40 MLOAD PUSH2 0x1966 DUP2 PUSH2 0x35C JUMP JUMPDEST CALLER DUP2 MSTORE DUP6 PUSH1 0x20 DUP3 ADD MSTORE DUP3 PUSH1 0x40 DUP3 ADD MSTORE TIMESTAMP PUSH1 0x60 DUP3 ADD MSTORE PUSH1 0x44 CALLDATALOAD PUSH1 0x80 DUP3 ADD MSTORE PUSH1 0x0 PUSH1 0xA0 DUP3 ADD MSTORE PUSH1 0x0 PUSH1 0xC0 DUP3 ADD MSTORE PUSH1 0x0 PUSH1 0xE0 DUP3 ADD MSTORE PUSH2 0x19A1 DUP7 PUSH2 0x145A JUMP JUMPDEST PUSH2 0x2859 JUMP JUMPDEST PUSH2 0x19AF DUP5 PUSH2 0x2900 JUMP JUMPDEST PUSH1 0x40 MLOAD SWAP2 DUP3 SWAP2 CALLER SWAP6 DUP4 PUSH2 0x299E JUMP JUMPDEST CALLVALUE PUSH2 0x302 JUMPI PUSH1 0x0 CALLDATASIZE PUSH1 0x3 NOT ADD SLT PUSH2 0x302 JUMPI PUSH1 0x40 MLOAD PUSH32 0x0 PUSH1 0x1 PUSH1 0x1 PUSH1 0xA0 SHL SUB AND DUP2 MSTORE PUSH1 0x20 SWAP1 RETURN JUMPDEST PUSH1 0x20 DUP1 DUP3 ADD SWAP1 DUP1 DUP4 MSTORE DUP4 MLOAD DUP1 SWAP3 MSTORE PUSH1 0x40 DUP4 ADD SWAP3 DUP2 PUSH1 0x40 DUP5 PUSH1 0x5 SHL DUP4 ADD ADD SWAP6 ADD SWAP4 PUSH1 0x0 SWAP2 JUMPDEST DUP5 DUP4 LT PUSH2 0x1A36 JUMPI POP POP POP POP POP POP SWAP1 JUMP JUMPDEST SWAP1 SWAP2 SWAP3 SWAP4 SWAP5 SWAP6 DUP5 DUP1 PUSH2 0x1A54 PUSH1 0x1 SWAP4 PUSH1 0x3F NOT DUP7 DUP3 SUB ADD DUP8 MSTORE DUP11 MLOAD PUSH2 0xBE8 JUMP JUMPDEST SWAP9 ADD SWAP4 ADD SWAP4 ADD SWAP2 SWAP5 SWAP4 SWAP3 SWAP1 PUSH2 0x1A26 JUMP JUMPDEST CALLVALUE PUSH2 0x302 JUMPI PUSH1 0x0 DUP1 PUSH1 0x3 NOT CALLDATASIZE ADD SLT PUSH2 0x1076 JUMPI PUSH1 0x11 SLOAD PUSH2 0x1A82 DUP2 PUSH2 0x23AE JUMP JUMPDEST DUP3 SWAP2 DUP4 JUMPDEST DUP2 DUP2 LT PUSH2 0x1ADE JUMPI POP POP PUSH2 0x1A98 DUP3 PUSH2 0x23AE JUMP JUMPDEST SWAP3 JUMPDEST DUP3 DUP2 LT PUSH2 0x1AAF JUMPI PUSH1 0x40 MLOAD DUP1 PUSH2 0x78B DUP7 DUP3 PUSH2 0x1A02 JUMP JUMPDEST DUP1 PUSH2 0x1ABD PUSH2 0x1AD9 SWAP3 DUP5 PUSH2 0x2455 JUMP JUMPDEST MLOAD PUSH2 0x1AC8 DUP3 DUP8 PUSH2 0x2455 JUMP JUMPDEST MSTORE PUSH2 0x1AD3 DUP2 DUP7 PUSH2 0x2455 JUMP JUMPDEST POP PUSH2 0x2C99 JUMP JUMPDEST PUSH2 0x1A9A JUMP JUMPDEST PUSH2 0x1AF7 PUSH1 0x5 PUSH2 0x1AEF PUSH2 0x11E1 DUP5 PUSH2 0x86E JUMP JUMPDEST ADD SLOAD PUSH1 0xFF AND SWAP1 JUMP JUMPDEST PUSH2 0x1B0A JUMPI JUMPDEST PUSH2 0x1B05 SWAP1 PUSH2 0x2C99 JUMP JUMPDEST PUSH2 0x1A86 JUMP JUMPDEST SWAP3 PUSH2 0x1B2E PUSH2 0x1B05 SWAP2 PUSH2 0x1B24 PUSH2 0x1B1E DUP8 PUSH2 0x86E JUMP JUMPDEST POP PUSH2 0xBAA JUMP JUMPDEST PUSH2 0x1AC8 DUP3 DUP8 PUSH2 0x2455 JUMP JUMPDEST SWAP4 SWAP1 POP PUSH2 0x1AFC JUMP JUMPDEST CALLVALUE PUSH2 0x302 JUMPI PUSH1 0x0 CALLDATASIZE PUSH1 0x3 NOT ADD SLT PUSH2 0x302 JUMPI PUSH1 0x20 PUSH1 0x5 SLOAD PUSH2 0xFFFF PUSH1 0x40 MLOAD SWAP2 DUP4 SHR AND DUP2 MSTORE RETURN JUMPDEST CALLVALUE PUSH2 0x302 JUMPI PUSH1 0x0 DUP1 PUSH1 0x3 NOT CALLDATASIZE ADD SLT PUSH2 0x1076 JUMPI PUSH1 0x40 MLOAD SWAP1 DUP1 PUSH1 0x14 SLOAD PUSH2 0x1B7D DUP2 PUSH2 0xA1E JUMP JUMPDEST DUP1 DUP6 MSTORE SWAP2 PUSH1 0x1 SWAP2 DUP1 DUP4 AND SWAP1 DUP2 ISZERO PUSH2 0x104C JUMPI POP PUSH1 0x1 EQ PUSH2 0x1BA6 JUMPI PUSH2 0x78B DUP6 PUSH2 0xFE5 DUP2 DUP8 SUB DUP3 PUSH2 0x3C9 JUMP JUMPDEST SWAP3 POP PUSH1 0x14 DUP4 MSTORE PUSH32 0xCE6D7B5282BD9A3661AE061FEED1DBDA4E52AB073B1F9285BE6E155D9C38D4EC JUMPDEST DUP3 DUP5 LT PUSH2 0x1BE9 JUMPI POP POP POP DUP2 ADD PUSH1 0x20 ADD PUSH2 0xFE5 DUP3 PUSH2 0x78B PUSH2 0xFD5 JUMP JUMPDEST DUP1 SLOAD PUSH1 0x20 DUP6 DUP8 ADD DUP2 ADD SWAP2 SWAP1 SWAP2 MSTORE SWAP1 SWAP4 ADD SWAP3 DUP2 ADD PUSH2 0x1BCE JUMP JUMPDEST CALLVALUE PUSH2 0x302 JUMPI PUSH1 0xC0 CALLDATASIZE PUSH1 0x3 NOT ADD SLT PUSH2 0x302 JUMPI PUSH1 0x1 PUSH1 0x1 PUSH1 0x40 SHL SUB PUSH1 0x4 DUP1 CALLDATALOAD DUP3 DUP2 GT PUSH2 0x302 JUMPI PUSH2 0x1C32 SWAP1 CALLDATASIZE SWAP1 DUP4 ADD PUSH2 0x419 JUMP JUMPDEST PUSH1 0x24 CALLDATALOAD DUP4 DUP2 GT PUSH2 0x302 JUMPI PUSH2 0x1C49 SWAP1 CALLDATASIZE SWAP1 DUP5 ADD PUSH2 0x419 JUMP JUMPDEST PUSH1 0x44 CALLDATALOAD DUP5 DUP2 GT PUSH2 0x302 JUMPI PUSH2 0x1C60 SWAP1 CALLDATASIZE SWAP1 DUP6 ADD PUSH2 0x419 JUMP JUMPDEST PUSH1 0x64 CALLDATALOAD DUP6 DUP2 GT PUSH2 0x302 JUMPI PUSH2 0x1C77 SWAP1 CALLDATASIZE SWAP1 DUP7 ADD PUSH2 0x419 JUMP JUMPDEST SWAP1 PUSH1 0x84 CALLDATALOAD DUP7 DUP2 GT PUSH2 0x302 JUMPI PUSH2 0x1C8F SWAP1 CALLDATASIZE SWAP1 DUP8 ADD PUSH2 0x419 JUMP JUMPDEST SWAP3 PUSH1 0xA4 CALLDATALOAD SWAP7 DUP8 GT PUSH2 0x302 JUMPI PUSH2 0x1CAD PUSH2 0x1CB3 SWAP7 PUSH2 0x78B SWAP9 CALLDATASIZE SWAP2 ADD PUSH2 0x419 JUMP JUMPDEST SWAP5 PUSH2 0x26A1 JUMP JUMPDEST PUSH1 0x40 MLOAD SWAP1 DUP2 MSTORE SWAP1 DUP2 SWAP1 PUSH1 0x20 DUP3 ADD SWAP1 JUMP JUMPDEST CALLVALUE PUSH2 0x302 JUMPI PUSH1 0x20 CALLDATASIZE PUSH1 0x3 NOT ADD SLT PUSH2 0x302 JUMPI PUSH1 0x4 CALLDATALOAD PUSH1 0x12 SLOAD DUP2 LT ISZERO PUSH2 0x302 JUMPI PUSH2 0x14F6 PUSH2 0x1D1E PUSH2 0x78B SWAP3 PUSH1 0x12 PUSH1 0x0 MSTORE PUSH1 0x40 MLOAD SWAP3 DUP4 DUP1 SWAP3 PUSH32 0xBB8A6A4669BA250D26CD7A459ECA9D215F8307E33AEBE50379BC5A3617EC3444 ADD PUSH2 0xA58 JUMP JUMPDEST PUSH1 0x40 MLOAD SWAP2 DUP3 SWAP2 PUSH1 0x20 DUP4 MSTORE PUSH1 0x20 DUP4 ADD SWAP1 PUSH2 0xBE8 JUMP JUMPDEST DUP1 SLOAD DUP3 LT ISZERO PUSH2 0x869 JUMPI PUSH1 0x0 MSTORE PUSH1 0x7 PUSH1 0x20 PUSH1 0x0 KECCAK256 SWAP2 MUL ADD SWAP1 PUSH1 0x0 SWAP1 JUMP JUMPDEST SWAP4 SWAP1 PUSH1 0xC0 SWAP6 SWAP3 PUSH2 0x1D78 SWAP2 SWAP10 SWAP9 SWAP8 SWAP5 SWAP10 PUSH1 0x1 DUP1 PUSH1 0xA0 SHL SUB AND DUP7 MSTORE PUSH1 0xE0 PUSH1 0x20 DUP8 ADD MSTORE PUSH1 0xE0 DUP7 ADD SWAP1 PUSH2 0xBE8 JUMP JUMPDEST SWAP8 PUSH1 0x40 DUP6 ADD MSTORE PUSH1 0x60 DUP5 ADD MSTORE PUSH1 0x80 DUP4 ADD MSTORE PUSH1 0xA0 DUP3 ADD MSTORE ADD MSTORE JUMP JUMPDEST CALLVALUE PUSH2 0x302 JUMPI PUSH1 0x40 CALLDATASIZE PUSH1 0x3 NOT ADD SLT PUSH2 0x302 JUMPI PUSH2 0x1DAA PUSH2 0x6D7 JUMP JUMPDEST PUSH1 0x1 PUSH1 0x1 PUSH1 0xA0 SHL SUB SWAP1 DUP2 AND PUSH1 0x0 SWAP1 DUP2 MSTORE PUSH1 0xD PUSH1 0x20 MSTORE PUSH1 0x40 SWAP1 KECCAK256 DUP1 SLOAD PUSH1 0x24 CALLDATALOAD SWAP1 DUP2 LT ISZERO PUSH2 0x302 JUMPI PUSH2 0x1DD9 SWAP2 PUSH2 0x1D32 JUMP JUMPDEST POP SWAP1 DUP2 SLOAD AND PUSH2 0x78B PUSH1 0x40 MLOAD SWAP3 PUSH2 0x1DF6 DUP5 PUSH2 0xCCE DUP2 PUSH1 0x1 DUP6 ADD PUSH2 0xA58 JUMP JUMPDEST PUSH1 0x2 DUP2 ADD SLOAD SWAP1 PUSH1 0x3 DUP2 ADD SLOAD PUSH1 0x4 DUP3 ADD SLOAD SWAP1 PUSH1 0x6 PUSH1 0x5 DUP5 ADD SLOAD SWAP4 ADD SLOAD SWAP4 PUSH1 0x40 MLOAD SWAP8 DUP9 SWAP8 DUP9 PUSH2 0x1D4E JUMP JUMPDEST CALLVALUE PUSH2 0x302 JUMPI PUSH1 0x0 CALLDATASIZE PUSH1 0x3 NOT ADD SLT PUSH2 0x302 JUMPI PUSH1 0x20 PUSH1 0x7 SLOAD PUSH1 0x40 MLOAD SWAP1 DUP2 MSTORE RETURN JUMPDEST CALLVALUE PUSH2 0x302 JUMPI PUSH1 0x20 CALLDATASIZE PUSH1 0x3 NOT ADD SLT PUSH2 0x302 JUMPI PUSH1 0x1 PUSH1 0x1 PUSH1 0xA0 SHL SUB PUSH2 0x1E5D PUSH2 0x6D7 JUMP JUMPDEST AND PUSH1 0x0 MSTORE PUSH1 0xE PUSH1 0x20 MSTORE PUSH1 0x20 PUSH1 0x40 PUSH1 0x0 KECCAK256 SLOAD PUSH1 0x40 MLOAD SWAP1 DUP2 MSTORE RETURN JUMPDEST CALLVALUE PUSH2 0x302 JUMPI PUSH1 0x80 CALLDATASIZE PUSH1 0x3 NOT ADD SLT PUSH2 0x302 JUMPI PUSH1 0x4 CALLDATALOAD PUSH4 0xFFFFFFFF DUP2 AND DUP2 SUB PUSH2 0x302 JUMPI PUSH1 0x64 CALLDATALOAD SWAP1 PUSH1 0x1 PUSH1 0x1 PUSH1 0x40 SHL SUB DUP3 AND DUP1 SWAP3 SUB PUSH2 0x302 JUMPI PUSH2 0x1EB4 PUSH2 0x2230 JUMP JUMPDEST PUSH12 0xFFFFFFFF0000000000000000 PUSH1 0x3 SLOAD SWAP2 PUSH1 0x24 CALLDATALOAD PUSH1 0x8 SSTORE PUSH1 0x44 CALLDATALOAD PUSH1 0x2 SSTORE PUSH1 0x40 SHL AND SWAP1 PUSH12 0xFFFFFFFFFFFFFFFFFFFFFFFF NOT AND OR OR PUSH1 0x3 SSTORE PUSH1 0x0 DUP1 RETURN JUMPDEST CALLVALUE PUSH2 0x302 JUMPI PUSH1 0x20 CALLDATASIZE PUSH1 0x3 NOT ADD SLT PUSH2 0x302 JUMPI PUSH1 0x4 CALLDATALOAD PUSH1 0x11 SLOAD DUP2 LT ISZERO PUSH2 0x302 JUMPI PUSH2 0x14F6 PUSH2 0x1D1E PUSH2 0x78B SWAP3 PUSH1 0x11 PUSH1 0x0 MSTORE PUSH1 0x40 MLOAD SWAP3 DUP4 DUP1 SWAP3 PUSH32 0x31ECC21A745E3968A04E9570E4425BC18FA8019C68028196B546D1669C200C68 ADD PUSH2 0xA58 JUMP JUMPDEST CALLVALUE PUSH2 0x302 JUMPI PUSH1 0x0 CALLDATASIZE PUSH1 0x3 NOT ADD SLT PUSH2 0x302 JUMPI PUSH1 0x20 PUSH1 0x1 PUSH1 0x1 PUSH1 0x40 SHL SUB PUSH1 0x3 SLOAD PUSH1 0x60 SHR AND PUSH1 0x40 MLOAD SWAP1 DUP2 MSTORE RETURN JUMPDEST CALLVALUE PUSH2 0x302 JUMPI PUSH1 0x20 CALLDATASIZE PUSH1 0x3 NOT ADD SLT PUSH2 0x302 JUMPI PUSH2 0x1F8D PUSH2 0x6D7 JUMP JUMPDEST PUSH2 0x1F95 PUSH2 0x2230 JUMP JUMPDEST PUSH1 0x1 PUSH1 0x1 PUSH1 0xA0 SHL SUB AND CALLER DUP2 EQ PUSH2 0x1FF3 JUMPI PUSH1 0x1 DUP1 SLOAD PUSH1 0x1 PUSH1 0x1 PUSH1 0xA0 SHL SUB NOT AND DUP3 OR SWAP1 SSTORE PUSH1 0x0 SLOAD PUSH2 0x1FCC SWAP1 PUSH1 0x1 PUSH1 0x1 PUSH1 0xA0 SHL SUB AND PUSH2 0xD84 JUMP JUMPDEST PUSH32 0xED8889F560326EB138920D842192F0EB3DD22B4F139C87A2C57538E05BAE1278 PUSH1 0x0 DUP1 LOG3 STOP JUMPDEST PUSH1 0x40 MLOAD PUSH3 0x461BCD PUSH1 0xE5 SHL DUP2 MSTORE PUSH1 0x20 PUSH1 0x4 DUP3 ADD MSTORE PUSH1 0x17 PUSH1 0x24 DUP3 ADD MSTORE PUSH32 0x43616E6E6F74207472616E7366657220746F2073656C66000000000000000000 PUSH1 0x44 DUP3 ADD MSTORE PUSH1 0x64 SWAP1 REVERT JUMPDEST CALLVALUE PUSH2 0x302 JUMPI PUSH1 0x0 CALLDATASIZE PUSH1 0x3 NOT ADD SLT PUSH2 0x302 JUMPI PUSH1 0x20 PUSH1 0x3 SLOAD PUSH4 0xFFFFFFFF PUSH1 0x40 MLOAD SWAP2 PUSH1 0x40 SHR AND DUP2 MSTORE RETURN JUMPDEST CALLVALUE PUSH2 0x302 JUMPI PUSH1 0x0 DUP1 PUSH1 0x3 NOT CALLDATASIZE ADD SLT PUSH2 0x1076 JUMPI PUSH1 0x4 SLOAD SWAP1 PUSH1 0x20 PUSH2 0x208D PUSH1 0x3 SLOAD PUSH1 0x1 PUSH1 0x1 PUSH1 0x40 SHL SUB SWAP1 PUSH1 0x60 SHR AND SWAP1 JUMP JUMPDEST PUSH1 0x5 SLOAD PUSH1 0x40 MLOAD PUSH4 0x5D3B1D3 PUSH1 0xE4 SHL DUP2 MSTORE PUSH1 0x4 DUP2 ADD SWAP6 SWAP1 SWAP6 MSTORE PUSH1 0x1 PUSH1 0x1 PUSH1 0x40 SHL SUB SWAP2 SWAP1 SWAP2 AND PUSH1 0x24 DUP6 ADD MSTORE PUSH2 0xFFFF DUP2 DUP4 SHR AND PUSH1 0x44 DUP6 ADD MSTORE PUSH4 0xFFFFFFFF DUP1 DUP3 AND PUSH1 0x64 DUP7 ADD MSTORE PUSH1 0x30 SWAP2 SWAP1 SWAP2 SHR AND PUSH1 0x84 DUP5 ADD MSTORE DUP3 PUSH1 0xA4 DUP2 DUP5 PUSH1 0x1 PUSH1 0x1 PUSH1 0xA0 SHL SUB PUSH32 0x0 AND GAS CALL SWAP2 DUP3 ISZERO PUSH2 0x698 JUMPI DUP2 SWAP3 PUSH2 0x2169 JUMPI JUMPDEST POP TIMESTAMP PUSH2 0x2130 DUP4 PUSH1 0x0 MSTORE PUSH1 0xF PUSH1 0x20 MSTORE PUSH1 0x40 PUSH1 0x0 KECCAK256 SWAP1 JUMP JUMPDEST SSTORE PUSH2 0x78B PUSH1 0x40 MLOAD SWAP3 DUP4 SWAP3 DUP2 PUSH32 0x28F521CF7ABD0044CBA5BB040C5217FF69A4E5865F5262905018698E68FE7D00 CALLER SWAP3 DUP1 LOG3 DUP3 MSTORE PUSH1 0x20 DUP3 ADD SWAP1 JUMP JUMPDEST PUSH2 0x2182 SWAP2 SWAP3 POP PUSH1 0x20 RETURNDATASIZE DUP2 GT PUSH2 0x691 JUMPI PUSH2 0x683 DUP2 DUP4 PUSH2 0x3C9 JUMP JUMPDEST SWAP1 CODESIZE PUSH2 0x211A JUMP JUMPDEST CALLVALUE PUSH2 0x302 JUMPI PUSH1 0x0 DUP1 PUSH1 0x3 NOT CALLDATASIZE ADD SLT PUSH2 0x1076 JUMPI PUSH1 0x40 MLOAD SWAP1 DUP1 PUSH1 0x13 SLOAD PUSH2 0x21AC DUP2 PUSH2 0xA1E JUMP JUMPDEST DUP1 DUP6 MSTORE SWAP2 PUSH1 0x1 SWAP2 DUP1 DUP4 AND SWAP1 DUP2 ISZERO PUSH2 0x104C JUMPI POP PUSH1 0x1 EQ PUSH2 0x21D5 JUMPI PUSH2 0x78B DUP6 PUSH2 0xFE5 DUP2 DUP8 SUB DUP3 PUSH2 0x3C9 JUMP JUMPDEST SWAP3 POP PUSH1 0x13 DUP4 MSTORE PUSH32 0x66DE8FFDA797E3DE9C05E8FC57B3BF0EC28A930D40B0D285D93C06501CF6A090 JUMPDEST DUP3 DUP5 LT PUSH2 0x2218 JUMPI POP POP POP DUP2 ADD PUSH1 0x20 ADD PUSH2 0xFE5 DUP3 PUSH2 0x78B PUSH2 0xFD5 JUMP JUMPDEST DUP1 SLOAD PUSH1 0x20 DUP6 DUP8 ADD DUP2 ADD SWAP2 SWAP1 SWAP2 MSTORE SWAP1 SWAP4 ADD SWAP3 DUP2 ADD PUSH2 0x21FD JUMP JUMPDEST PUSH1 0x0 SLOAD PUSH1 0x1 PUSH1 0x1 PUSH1 0xA0 SHL SUB AND CALLER SUB PUSH2 0x2244 JUMPI JUMP JUMPDEST PUSH1 0x40 MLOAD PUSH3 0x461BCD PUSH1 0xE5 SHL DUP2 MSTORE PUSH1 0x20 PUSH1 0x4 DUP3 ADD MSTORE PUSH1 0x16 PUSH1 0x24 DUP3 ADD MSTORE PUSH22 0x27B7363C9031B0B63630B1363290313C9037BBB732B9 PUSH1 0x51 SHL PUSH1 0x44 DUP3 ADD MSTORE PUSH1 0x64 SWAP1 REVERT JUMPDEST SWAP1 PUSH32 0x0 PUSH1 0x1 PUSH1 0x1 PUSH1 0xA0 SHL SUB AND CALLER DUP2 SWAP1 SUB PUSH2 0x2315 JUMPI POP DUP2 PUSH1 0x0 MSTORE PUSH1 0xF PUSH1 0x20 MSTORE PUSH2 0x22CF PUSH1 0x40 PUSH1 0x0 KECCAK256 SLOAD ISZERO ISZERO PUSH2 0x2BFD JUMP JUMPDEST DUP1 MLOAD ISZERO PUSH2 0x869 JUMPI PUSH1 0x20 DUP1 PUSH32 0x4235FC540C899AE91EADE70D636591126A477A30A8DC25AE4489F396DE2A5103 SWAP3 ADD MLOAD DUP4 PUSH1 0x0 MSTORE PUSH1 0xF DUP3 MSTORE PUSH1 0x0 PUSH1 0x40 DUP2 KECCAK256 SSTORE PUSH1 0x40 MLOAD SWAP1 DUP2 MSTORE LOG2 JUMP JUMPDEST PUSH1 0x44 SWAP1 PUSH1 0x40 MLOAD SWAP1 PUSH4 0x73E64FD PUSH1 0xE2 SHL DUP3 MSTORE CALLER PUSH1 0x4 DUP4 ADD MSTORE PUSH1 0x24 DUP3 ADD MSTORE REVERT JUMPDEST PUSH1 0x40 MLOAD SWAP1 PUSH1 0xE0 DUP3 ADD DUP3 DUP2 LT PUSH1 0x1 PUSH1 0x1 PUSH1 0x40 SHL SUB DUP3 GT OR PUSH2 0x357 JUMPI PUSH1 0x40 MSTORE PUSH1 0x60 PUSH1 0xC0 DUP4 PUSH1 0x0 DUP2 MSTORE PUSH1 0x0 PUSH1 0x20 DUP3 ADD MSTORE PUSH1 0x0 PUSH1 0x40 DUP3 ADD MSTORE DUP3 DUP1 DUP3 ADD MSTORE DUP3 PUSH1 0x80 DUP3 ADD MSTORE DUP3 PUSH1 0xA0 DUP3 ADD MSTORE ADD MSTORE JUMP JUMPDEST PUSH1 0x40 MLOAD SWAP1 PUSH2 0x2389 DUP3 PUSH2 0x393 JUMP JUMPDEST PUSH1 0x6 DUP3 MSTORE DUP2 PUSH1 0x0 JUMPDEST PUSH1 0xC0 DUP2 LT PUSH2 0x239D JUMPI POP POP JUMP JUMPDEST DUP1 PUSH1 0x60 PUSH1 0x20 DUP1 SWAP4 DUP6 ADD ADD MSTORE ADD PUSH2 0x2391 JUMP JUMPDEST SWAP1 PUSH2 0x23B8 DUP3 PUSH2 0x922 JUMP JUMPDEST PUSH2 0x23C5 PUSH1 0x40 MLOAD SWAP2 DUP3 PUSH2 0x3C9 JUMP JUMPDEST DUP3 DUP2 MSTORE DUP1 SWAP3 PUSH2 0x23D6 PUSH1 0x1F NOT SWAP2 PUSH2 0x922 JUMP JUMPDEST ADD SWAP1 PUSH1 0x0 JUMPDEST DUP3 DUP2 LT PUSH2 0x23E7 JUMPI POP POP POP JUMP JUMPDEST DUP1 PUSH1 0x60 PUSH1 0x20 DUP1 SWAP4 DUP6 ADD ADD MSTORE ADD PUSH2 0x23DB JUMP JUMPDEST DUP1 MLOAD ISZERO PUSH2 0x869 JUMPI PUSH1 0x20 ADD SWAP1 JUMP JUMPDEST DUP1 MLOAD PUSH1 0x1 LT ISZERO PUSH2 0x869 JUMPI PUSH1 0x40 ADD SWAP1 JUMP JUMPDEST DUP1 MLOAD PUSH1 0x2 LT ISZERO PUSH2 0x869 JUMPI PUSH1 0x60 ADD SWAP1 JUMP JUMPDEST DUP1 MLOAD PUSH1 0x3 LT ISZERO PUSH2 0x869 JUMPI PUSH1 0x80 ADD SWAP1 JUMP JUMPDEST DUP1 MLOAD PUSH1 0x4 LT ISZERO PUSH2 0x869 JUMPI PUSH1 0xA0 ADD SWAP1 JUMP JUMPDEST DUP1 MLOAD PUSH1 0x5 LT ISZERO PUSH2 0x869 JUMPI PUSH1 0xC0 ADD SWAP1 JUMP JUMPDEST DUP1 MLOAD DUP3 LT ISZERO PUSH2 0x869 JUMPI PUSH1 0x20 SWAP2 PUSH1 0x5 SHL ADD ADD SWAP1 JUMP JUMPDEST PUSH1 0x40 MLOAD SWAP1 PUSH2 0x2476 DUP3 PUSH2 0x3AE JUMP JUMPDEST PUSH1 0x0 DUP3 MSTORE JUMP JUMPDEST DUP2 DUP2 LT PUSH2 0x2487 JUMPI POP POP JUMP JUMPDEST PUSH1 0x0 DUP2 SSTORE PUSH1 0x1 ADD PUSH2 0x247C JUMP JUMPDEST SWAP2 SWAP1 PUSH1 0x1F DUP2 GT PUSH2 0x24A2 JUMPI POP POP POP JUMP JUMPDEST PUSH2 0x3F7 SWAP3 PUSH1 0x0 MSTORE PUSH1 0x20 PUSH1 0x0 KECCAK256 SWAP1 PUSH1 0x20 PUSH1 0x1F DUP5 ADD PUSH1 0x5 SHR DUP4 ADD SWAP4 LT PUSH2 0x24CE JUMPI JUMPDEST PUSH1 0x1F ADD PUSH1 0x5 SHR ADD SWAP1 PUSH2 0x247C JUMP JUMPDEST SWAP1 SWAP2 POP DUP2 SWAP1 PUSH2 0x24C1 JUMP JUMPDEST SWAP2 SWAP1 SWAP2 DUP3 MLOAD PUSH1 0x1 PUSH1 0x1 PUSH1 0x40 SHL SUB DUP2 GT PUSH2 0x357 JUMPI PUSH2 0x24FF DUP2 PUSH2 0x24F9 DUP5 SLOAD PUSH2 0xA1E JUMP JUMPDEST DUP5 PUSH2 0x2493 JUMP JUMPDEST PUSH1 0x20 DUP1 PUSH1 0x1F DUP4 GT PUSH1 0x1 EQ PUSH2 0x253B JUMPI POP DUP2 SWAP3 SWAP4 SWAP5 PUSH1 0x0 SWAP3 PUSH2 0x2530 JUMPI JUMPDEST POP POP DUP2 PUSH1 0x1 SHL SWAP2 PUSH1 0x0 NOT SWAP1 PUSH1 0x3 SHL SHR NOT AND OR SWAP1 SSTORE JUMP JUMPDEST ADD MLOAD SWAP1 POP CODESIZE DUP1 PUSH2 0x251A JUMP JUMPDEST SWAP1 PUSH1 0x1F NOT DUP4 AND SWAP6 PUSH2 0x2551 DUP6 PUSH1 0x0 MSTORE PUSH1 0x20 PUSH1 0x0 KECCAK256 SWAP1 JUMP JUMPDEST SWAP3 PUSH1 0x0 SWAP1 JUMPDEST DUP9 DUP3 LT PUSH2 0x258E JUMPI POP POP DUP4 PUSH1 0x1 SWAP6 SWAP7 SWAP8 LT PUSH2 0x2575 JUMPI JUMPDEST POP POP POP DUP2 SHL ADD SWAP1 SSTORE JUMP JUMPDEST ADD MLOAD PUSH1 0x0 NOT PUSH1 0xF8 DUP5 PUSH1 0x3 SHL AND SHR NOT AND SWAP1 SSTORE CODESIZE DUP1 DUP1 PUSH2 0x256B JUMP JUMPDEST DUP1 PUSH1 0x1 DUP6 SWAP7 DUP3 SWAP5 SWAP7 DUP7 ADD MLOAD DUP2 SSTORE ADD SWAP6 ADD SWAP4 ADD SWAP1 PUSH2 0x2556 JUMP JUMPDEST DUP2 MLOAD DUP2 SLOAD PUSH1 0x1 PUSH1 0x1 PUSH1 0xA0 SHL SUB NOT AND PUSH1 0x1 PUSH1 0x1 PUSH1 0xA0 SHL SUB SWAP1 SWAP2 AND OR DUP2 SSTORE SWAP1 PUSH1 0x9 SWAP1 PUSH2 0x120 SWAP1 PUSH2 0x25DB PUSH1 0x20 DUP3 ADD MLOAD PUSH1 0x1 DUP7 ADD PUSH2 0x24D8 JUMP JUMPDEST PUSH2 0x25EC PUSH1 0x40 DUP3 ADD MLOAD PUSH1 0x2 DUP7 ADD PUSH2 0x24D8 JUMP JUMPDEST PUSH2 0x25FD PUSH1 0x60 DUP3 ADD MLOAD PUSH1 0x3 DUP7 ADD PUSH2 0x24D8 JUMP JUMPDEST PUSH2 0x260E PUSH1 0x80 DUP3 ADD MLOAD PUSH1 0x4 DUP7 ADD PUSH2 0x24D8 JUMP JUMPDEST PUSH1 0xA0 DUP2 ADD MLOAD PUSH1 0x5 DUP6 ADD SSTORE PUSH1 0xC0 DUP2 ADD MLOAD PUSH1 0x6 DUP6 ADD SSTORE PUSH2 0x2647 PUSH2 0x2632 PUSH1 0xE0 DUP4 ADD MLOAD ISZERO ISZERO SWAP1 JUMP JUMPDEST PUSH1 0x7 DUP7 ADD SWAP1 PUSH1 0xFF DUP1 NOT DUP4 SLOAD AND SWAP2 ISZERO ISZERO AND OR SWAP1 SSTORE JUMP JUMPDEST PUSH2 0x100 DUP2 ADD MLOAD PUSH1 0x8 DUP6 ADD SSTORE ADD MLOAD SWAP2 ADD SSTORE JUMP JUMPDEST PUSH1 0x10 SLOAD PUSH1 0x1 PUSH1 0x40 SHL DUP2 LT ISZERO PUSH2 0x357 JUMPI PUSH1 0x1 DUP2 ADD DUP1 PUSH1 0x10 SSTORE DUP2 LT ISZERO PUSH2 0x869 JUMPI PUSH1 0x10 PUSH1 0x0 MSTORE PUSH32 0x1B6847DC741A1B0CD08D278845F9D819D87B734759AFB55FE2DE5CB82A9AE672 ADD SSTORE JUMP JUMPDEST PUSH2 0x277C SWAP2 SWAP5 PUSH2 0x2756 PUSH2 0x275B SWAP3 PUSH2 0x27E2 SWAP7 SWAP9 PUSH2 0x26BA PUSH2 0x2333 JUMP JUMPDEST SWAP4 PUSH2 0x26CC PUSH2 0x26C6 PUSH2 0xAEE JUMP JUMPDEST DUP7 PUSH2 0x403B JUMP JUMPDEST PUSH2 0x26D4 PUSH2 0x237C JUMP JUMPDEST SWAP3 PUSH2 0x26DE DUP5 PUSH2 0x23F8 JUMP JUMPDEST MSTORE PUSH2 0x26E8 DUP4 PUSH2 0x23F8 JUMP JUMPDEST POP DUP10 PUSH2 0x26F3 DUP5 PUSH2 0x2405 JUMP JUMPDEST MSTORE PUSH2 0x26FD DUP4 PUSH2 0x2405 JUMP JUMPDEST POP DUP8 PUSH2 0x2708 DUP5 PUSH2 0x2415 JUMP JUMPDEST MSTORE PUSH2 0x2712 DUP4 PUSH2 0x2415 JUMP JUMPDEST POP DUP11 PUSH2 0x271D DUP5 PUSH2 0x2425 JUMP JUMPDEST MSTORE PUSH2 0x2727 DUP4 PUSH2 0x2425 JUMP JUMPDEST POP PUSH2 0x2731 DUP4 PUSH2 0x2435 JUMP JUMPDEST MSTORE PUSH2 0x273B DUP3 PUSH2 0x2435 JUMP JUMPDEST POP PUSH2 0x2745 DUP3 PUSH2 0x2445 JUMP JUMPDEST MSTORE PUSH2 0x274F DUP2 PUSH2 0x2445 JUMP JUMPDEST POP DUP3 PUSH2 0x4064 JUMP JUMPDEST PUSH2 0x33DA JUMP JUMPDEST PUSH1 0x3 SLOAD PUSH1 0x2 SLOAD SWAP2 PUSH1 0x1 PUSH1 0x1 PUSH1 0x40 SHL SUB PUSH4 0xFFFFFFFF DUP4 PUSH1 0x40 SHR AND SWAP3 AND SWAP1 PUSH2 0x2D6D JUMP JUMPDEST SWAP4 PUSH2 0x2785 PUSH2 0x3F9 JUMP JUMPDEST CALLER DUP2 MSTORE SWAP2 DUP5 PUSH1 0x20 DUP5 ADD MSTORE PUSH1 0x40 DUP4 ADD MSTORE PUSH1 0x60 DUP3 ADD MSTORE PUSH2 0x27A1 PUSH2 0x2469 JUMP JUMPDEST PUSH1 0x80 DUP3 ADD MSTORE PUSH1 0x0 PUSH1 0xA0 DUP3 ADD MSTORE TIMESTAMP PUSH1 0xC0 DUP3 ADD MSTORE PUSH1 0x0 PUSH1 0xE0 DUP3 ADD MSTORE PUSH1 0x0 PUSH2 0x100 DUP3 ADD MSTORE DUP4 PUSH2 0x120 DUP3 ADD MSTORE PUSH2 0x27DD DUP5 PUSH1 0x0 MSTORE PUSH1 0x9 PUSH1 0x20 MSTORE PUSH1 0x40 PUSH1 0x0 KECCAK256 SWAP1 JUMP JUMPDEST PUSH2 0x25A6 JUMP JUMPDEST PUSH2 0x2819 CALLER PUSH2 0x27FA DUP5 PUSH1 0x0 MSTORE PUSH1 0xA PUSH1 0x20 MSTORE PUSH1 0x40 PUSH1 0x0 KECCAK256 SWAP1 JUMP JUMPDEST DUP1 SLOAD PUSH1 0x1 PUSH1 0x1 PUSH1 0xA0 SHL SUB NOT AND PUSH1 0x1 PUSH1 0x1 PUSH1 0xA0 SHL SUB SWAP1 SWAP3 AND SWAP2 SWAP1 SWAP2 OR SWAP1 SSTORE JUMP JUMPDEST PUSH2 0x2822 DUP3 PUSH2 0x2659 JUMP JUMPDEST DUP2 PUSH32 0x62B9F473701A7E7A80FFF1EF44F9A6D28B5AD15E51E709CA62B8DF0942C37CB4 PUSH1 0x40 MLOAD DUP1 PUSH2 0x2853 CALLER SWAP6 DUP3 PUSH2 0xF84 JUMP JUMPDEST SUB SWAP1 LOG3 SWAP1 JUMP JUMPDEST DUP2 MLOAD DUP2 SLOAD PUSH1 0x1 PUSH1 0x1 PUSH1 0xA0 SHL SUB NOT AND PUSH1 0x1 PUSH1 0x1 PUSH1 0xA0 SHL SUB SWAP2 SWAP1 SWAP2 AND OR DUP2 SSTORE SWAP1 PUSH1 0x6 SWAP1 PUSH1 0xE0 SWAP1 PUSH2 0x288E PUSH1 0x20 DUP3 ADD MLOAD PUSH1 0x1 DUP7 ADD PUSH2 0x24D8 JUMP JUMPDEST PUSH2 0x289F PUSH1 0x40 DUP3 ADD MLOAD PUSH1 0x2 DUP7 ADD PUSH2 0x24D8 JUMP JUMPDEST PUSH1 0x60 DUP2 ADD MLOAD PUSH1 0x3 DUP6 ADD SSTORE PUSH1 0x80 DUP2 ADD MLOAD PUSH1 0x4 DUP6 ADD SSTORE PUSH2 0x28F9 PUSH1 0x5 DUP6 ADD PUSH2 0x28DC PUSH2 0x28CA PUSH1 0xA0 DUP6 ADD MLOAD ISZERO ISZERO SWAP1 JUMP JUMPDEST DUP3 SWAP1 PUSH1 0xFF DUP1 NOT DUP4 SLOAD AND SWAP2 ISZERO ISZERO AND OR SWAP1 SSTORE JUMP JUMPDEST PUSH1 0xC0 DUP4 ADD MLOAD ISZERO ISZERO DUP2 SLOAD PUSH2 0xFF00 NOT AND SWAP1 ISZERO ISZERO PUSH1 0x8 SHL PUSH2 0xFF00 AND OR SWAP1 SSTORE JUMP JUMPDEST ADD MLOAD SWAP2 ADD SSTORE JUMP JUMPDEST PUSH1 0x12 SLOAD SWAP1 PUSH1 0x1 PUSH1 0x40 SHL DUP3 LT ISZERO PUSH2 0x357 JUMPI PUSH1 0x1 DUP3 ADD DUP1 PUSH1 0x12 SSTORE DUP3 LT ISZERO PUSH2 0x869 JUMPI PUSH2 0x3F7 SWAP2 PUSH1 0x12 PUSH1 0x0 MSTORE PUSH32 0xBB8A6A4669BA250D26CD7A459ECA9D215F8307E33AEBE50379BC5A3617EC3444 ADD PUSH2 0x24D8 JUMP JUMPDEST PUSH1 0x11 SLOAD SWAP1 PUSH1 0x1 PUSH1 0x40 SHL DUP3 LT ISZERO PUSH2 0x357 JUMPI PUSH1 0x1 DUP3 ADD DUP1 PUSH1 0x11 SSTORE DUP3 LT ISZERO PUSH2 0x869 JUMPI PUSH2 0x3F7 SWAP2 PUSH1 0x11 PUSH1 0x0 MSTORE PUSH32 0x31ECC21A745E3968A04E9570E4425BC18FA8019C68028196B546D1669C200C68 ADD PUSH2 0x24D8 JUMP JUMPDEST SWAP1 SWAP2 PUSH2 0x29B5 PUSH2 0xF95 SWAP4 PUSH1 0x40 DUP5 MSTORE PUSH1 0x40 DUP5 ADD SWAP1 PUSH2 0xBE8 JUMP JUMPDEST SWAP2 PUSH1 0x20 DUP2 DUP5 SUB SWAP2 ADD MSTORE PUSH2 0xBE8 JUMP JUMPDEST ISZERO PUSH2 0x29CA JUMPI JUMP JUMPDEST PUSH1 0x40 MLOAD PUSH3 0x461BCD PUSH1 0xE5 SHL DUP2 MSTORE PUSH1 0x20 PUSH1 0x4 DUP3 ADD MSTORE PUSH1 0x13 PUSH1 0x24 DUP3 ADD MSTORE PUSH19 0x2737BA103A3932B0BA36B2B73A1037BBB732B9 PUSH1 0x69 SHL PUSH1 0x44 DUP3 ADD MSTORE PUSH1 0x64 SWAP1 REVERT JUMPDEST ISZERO PUSH2 0x2A0C JUMPI JUMP JUMPDEST PUSH1 0x40 MLOAD PUSH3 0x461BCD PUSH1 0xE5 SHL DUP2 MSTORE PUSH1 0x20 PUSH1 0x4 DUP3 ADD MSTORE PUSH1 0x1B PUSH1 0x24 DUP3 ADD MSTORE PUSH32 0x54726561746D656E7420616C726561647920636F6D706C657465640000000000 PUSH1 0x44 DUP3 ADD MSTORE PUSH1 0x64 SWAP1 REVERT JUMPDEST PUSH1 0x1 PUSH1 0x1 PUSH1 0xA0 SHL SUB SWAP1 SWAP2 AND DUP2 MSTORE PUSH1 0x40 PUSH1 0x20 DUP3 ADD DUP2 SWAP1 MSTORE PUSH2 0xF95 SWAP3 SWAP2 ADD SWAP1 PUSH2 0xBE8 JUMP JUMPDEST PUSH1 0x40 MLOAD RETURNDATASIZE PUSH1 0x0 DUP3 RETURNDATACOPY RETURNDATASIZE SWAP1 REVERT JUMPDEST SWAP1 PUSH2 0x2A97 PUSH1 0x20 SWAP2 SWAP5 SWAP4 SWAP5 PUSH1 0x40 DUP5 MSTORE PUSH1 0x40 DUP5 ADD SWAP1 PUSH2 0xBE8 JUMP JUMPDEST SWAP4 ISZERO ISZERO SWAP2 ADD MSTORE JUMP JUMPDEST MLOAD SWAP1 PUSH10 0xFFFFFFFFFFFFFFFFFFFF DUP3 AND DUP3 SUB PUSH2 0x302 JUMPI JUMP JUMPDEST SWAP1 DUP2 PUSH1 0xA0 SWAP2 SUB SLT PUSH2 0x302 JUMPI PUSH2 0x2ACA DUP2 PUSH2 0x2A9F JUMP JUMPDEST SWAP2 PUSH1 0x20 DUP3 ADD MLOAD SWAP2 PUSH1 0x40 DUP2 ADD MLOAD SWAP2 PUSH2 0xF95 PUSH1 0x80 PUSH1 0x60 DUP5 ADD MLOAD SWAP4 ADD PUSH2 0x2A9F JUMP JUMPDEST PUSH4 0x4E487B71 PUSH1 0xE0 SHL PUSH1 0x0 MSTORE PUSH1 0x11 PUSH1 0x4 MSTORE PUSH1 0x24 PUSH1 0x0 REVERT JUMPDEST SWAP1 PUSH1 0x5F DUP3 MUL SWAP2 DUP1 DUP4 DIV PUSH1 0x5F EQ SWAP1 ISZERO OR ISZERO PUSH2 0x16F9 JUMPI JUMP JUMPDEST SWAP1 DUP2 PUSH1 0x1 SHL SWAP2 DUP1 DUP4 DIV PUSH1 0x2 EQ SWAP1 ISZERO OR ISZERO PUSH2 0x16F9 JUMPI JUMP JUMPDEST SWAP2 SWAP1 DUP3 PUSH1 0x40 SWAP2 SUB SLT PUSH2 0x302 JUMPI PUSH1 0x20 DUP3 MLOAD SWAP3 ADD MLOAD SWAP1 JUMP JUMPDEST DUP1 SLOAD PUSH1 0x1 PUSH1 0x40 SHL DUP2 LT ISZERO PUSH2 0x357 JUMPI PUSH2 0x2B5D SWAP2 PUSH1 0x1 DUP3 ADD DUP2 SSTORE PUSH2 0x1D32 JUMP JUMPDEST SWAP2 SWAP1 SWAP2 PUSH2 0x2BC7 JUMPI DUP1 MLOAD DUP3 SLOAD PUSH1 0x1 PUSH1 0x1 PUSH1 0xA0 SHL SUB NOT AND PUSH1 0x1 PUSH1 0x1 PUSH1 0xA0 SHL SUB SWAP2 SWAP1 SWAP2 AND OR DUP3 SSTORE PUSH1 0x6 SWAP1 PUSH1 0xC0 SWAP1 PUSH2 0x2B98 PUSH1 0x20 DUP3 ADD MLOAD PUSH1 0x1 DUP7 ADD PUSH2 0x24D8 JUMP JUMPDEST PUSH1 0x40 DUP2 ADD MLOAD PUSH1 0x2 DUP6 ADD SSTORE PUSH1 0x60 DUP2 ADD MLOAD PUSH1 0x3 DUP6 ADD SSTORE PUSH1 0x80 DUP2 ADD MLOAD PUSH1 0x4 DUP6 ADD SSTORE PUSH1 0xA0 DUP2 ADD MLOAD PUSH1 0x5 DUP6 ADD SSTORE ADD MLOAD SWAP2 ADD SSTORE JUMP JUMPDEST PUSH2 0xF6E JUMP JUMPDEST PUSH2 0x2BE4 PUSH1 0x40 SWAP3 SWAP6 SWAP5 SWAP4 SWAP6 PUSH1 0x60 DUP4 MSTORE PUSH1 0x60 DUP4 ADD SWAP1 PUSH2 0xBE8 JUMP JUMPDEST SWAP5 PUSH1 0x20 DUP3 ADD MSTORE ADD MSTORE JUMP JUMPDEST SWAP1 DUP2 PUSH1 0x20 SWAP2 SUB SLT PUSH2 0x302 JUMPI MLOAD SWAP1 JUMP JUMPDEST ISZERO PUSH2 0x2C04 JUMPI JUMP JUMPDEST PUSH1 0x40 MLOAD PUSH3 0x461BCD PUSH1 0xE5 SHL DUP2 MSTORE PUSH1 0x20 PUSH1 0x4 DUP3 ADD MSTORE PUSH1 0x11 PUSH1 0x24 DUP3 ADD MSTORE PUSH17 0x14995C5D595CDD081B9BDD08199BDD5B99 PUSH1 0x7A SHL PUSH1 0x44 DUP3 ADD MSTORE PUSH1 0x64 SWAP1 REVERT JUMPDEST PUSH1 0x1F NOT DUP2 ADD SWAP2 SWAP1 DUP3 GT PUSH2 0x16F9 JUMPI JUMP JUMPDEST SWAP2 SWAP1 DUP3 SUB SWAP2 DUP3 GT PUSH2 0x16F9 JUMPI JUMP JUMPDEST ISZERO PUSH2 0x2C60 JUMPI JUMP JUMPDEST PUSH1 0x40 MLOAD PUSH3 0x461BCD PUSH1 0xE5 SHL DUP2 MSTORE PUSH1 0x20 PUSH1 0x4 DUP3 ADD MSTORE PUSH1 0x11 PUSH1 0x24 DUP3 ADD MSTORE PUSH17 0x155C1AD9595C081B9BDD081B9959591959 PUSH1 0x7A SHL PUSH1 0x44 DUP3 ADD MSTORE PUSH1 0x64 SWAP1 REVERT JUMPDEST PUSH1 0x0 NOT DUP2 EQ PUSH2 0x16F9 JUMPI PUSH1 0x1 ADD SWAP1 JUMP JUMPDEST PUSH1 0x40 MLOAD SWAP1 DUP2 PUSH1 0x0 DUP3 SLOAD PUSH2 0x2CBA DUP2 PUSH2 0xA1E JUMP JUMPDEST SWAP4 PUSH1 0x1 SWAP2 DUP1 DUP4 AND SWAP1 DUP2 ISZERO PUSH2 0x2D1F JUMPI POP PUSH1 0x1 EQ PUSH2 0x2CE2 JUMPI JUMPDEST POP POP PUSH1 0x20 SWAP3 POP PUSH1 0xB DUP2 MSTORE SUB ADD SWAP1 KECCAK256 SWAP1 JUMP JUMPDEST SWAP1 SWAP2 POP PUSH1 0x0 MSTORE PUSH1 0x20 SWAP1 DUP2 PUSH1 0x0 KECCAK256 SWAP1 PUSH1 0x0 SWAP2 JUMPDEST DUP6 DUP4 LT PUSH2 0x2D0B JUMPI POP POP POP POP PUSH1 0x20 SWAP2 DUP2 ADD CODESIZE DUP1 PUSH2 0x2CD1 JUMP JUMPDEST DUP1 SLOAD DUP8 DUP5 ADD MSTORE DUP7 SWAP5 POP SWAP2 DUP4 ADD SWAP2 DUP2 ADD PUSH2 0x2CF4 JUMP JUMPDEST SWAP3 POP POP POP PUSH1 0x20 SWAP4 SWAP2 POP PUSH1 0xFF NOT AND DUP3 MSTORE DUP1 ISZERO ISZERO MUL DUP2 ADD CODESIZE DUP1 PUSH2 0x2CD1 JUMP JUMPDEST SWAP1 PUSH2 0x2D45 DUP3 PUSH2 0x922 JUMP JUMPDEST PUSH2 0x2D52 PUSH1 0x40 MLOAD SWAP2 DUP3 PUSH2 0x3C9 JUMP JUMPDEST DUP3 DUP2 MSTORE DUP1 SWAP3 PUSH2 0x2D63 PUSH1 0x1F NOT SWAP2 PUSH2 0x922 JUMP JUMPDEST ADD SWAP1 PUSH1 0x20 CALLDATASIZE SWAP2 ADD CALLDATACOPY JUMP JUMPDEST SWAP3 SWAP1 PUSH1 0x20 SWAP3 PUSH1 0x1 PUSH1 0x1 PUSH1 0x40 SHL SUB SWAP3 PUSH4 0xFFFFFFFF PUSH2 0x2DAC PUSH1 0x40 MLOAD SWAP8 DUP9 SWAP7 DUP8 SWAP7 PUSH4 0x230E93B1 PUSH1 0xE1 SHL DUP9 MSTORE AND PUSH1 0x4 DUP8 ADD MSTORE PUSH1 0xA0 PUSH1 0x24 DUP8 ADD MSTORE PUSH1 0xA4 DUP7 ADD SWAP1 PUSH2 0xBE8 JUMP JUMPDEST PUSH1 0x1 PUSH1 0x44 DUP7 ADD MSTORE SWAP3 AND PUSH1 0x64 DUP5 ADD MSTORE PUSH1 0x84 DUP4 ADD MSTORE SUB DUP2 PUSH1 0x0 PUSH32 0x0 PUSH1 0x1 PUSH1 0x1 PUSH1 0xA0 SHL SUB AND GAS CALL SWAP1 DUP2 ISZERO PUSH2 0x698 JUMPI PUSH1 0x0 SWAP2 PUSH2 0x2E28 JUMPI JUMPDEST POP DUP1 PUSH32 0x1131472297A800FEE664D1D89CFA8F7676FF07189ECC53F80BBB5F4969099DB8 PUSH1 0x0 DUP1 LOG2 SWAP1 JUMP JUMPDEST PUSH2 0x2E40 SWAP2 POP PUSH1 0x20 RETURNDATASIZE DUP2 GT PUSH2 0x691 JUMPI PUSH2 0x683 DUP2 DUP4 PUSH2 0x3C9 JUMP JUMPDEST CODESIZE PUSH2 0x2DFE JUMP JUMPDEST PUSH2 0x2E50 DUP2 SLOAD PUSH2 0xA1E JUMP JUMPDEST PUSH1 0x1F DUP2 GT PUSH2 0x2E7F JUMPI JUMPDEST POP PUSH32 0x4E6F72746865726E20436F726E204C65616620426C6967687400000000000032 SWAP1 SSTORE JUMP JUMPDEST PUSH2 0x2E9B SWAP1 DUP3 PUSH1 0x0 MSTORE PUSH1 0x1F PUSH1 0x20 PUSH1 0x0 KECCAK256 SWAP2 ADD PUSH1 0x5 SHR DUP2 ADD SWAP1 PUSH2 0x247C JUMP JUMPDEST CODESIZE PUSH2 0x2E59 JUMP JUMPDEST PUSH1 0x1 PUSH1 0x1 PUSH1 0xA0 SHL SUB SWAP1 SWAP2 AND DUP2 MSTORE SWAP1 ISZERO ISZERO PUSH1 0x20 DUP3 ADD MSTORE PUSH1 0x60 PUSH1 0x40 DUP3 ADD DUP2 SWAP1 MSTORE PUSH2 0xF95 SWAP3 SWAP2 ADD SWAP1 PUSH2 0xA58 JUMP JUMPDEST SWAP1 PUSH1 0x20 DUP3 ADD DUP1 SWAP3 GT PUSH2 0x16F9 JUMPI JUMP JUMPDEST SWAP2 SWAP1 DUP3 ADD DUP1 SWAP3 GT PUSH2 0x16F9 JUMPI JUMP JUMPDEST PUSH2 0x2EFA SWAP1 PUSH1 0x0 MSTORE PUSH1 0x9 PUSH1 0x20 MSTORE PUSH1 0x40 PUSH1 0x0 KECCAK256 SWAP1 JUMP JUMPDEST DUP1 SLOAD PUSH1 0x1 PUSH1 0x1 PUSH1 0xA0 SHL SUB AND PUSH1 0x7 DUP3 ADD DUP1 SLOAD PUSH1 0xFF NOT AND PUSH1 0x1 OR SWAP1 SSTORE SWAP1 PUSH1 0x5 DUP2 ADD SWAP1 PUSH2 0x2F24 DUP3 PUSH1 0x55 SWAP1 SSTORE JUMP JUMPDEST PUSH1 0x4 SWAP3 DUP4 DUP3 ADD SWAP4 PUSH2 0x2F34 DUP6 PUSH2 0x2E46 JUMP JUMPDEST PUSH32 0x0 PUSH1 0x1 PUSH1 0x1 PUSH1 0xA0 SHL SUB AND SWAP2 DUP3 EXTCODESIZE ISZERO PUSH2 0x302 JUMPI PUSH1 0x40 MLOAD PUSH4 0x364ECB1 PUSH1 0xE0 SHL DUP2 MSTORE PUSH1 0x1 PUSH1 0x1 PUSH1 0xA0 SHL SUB DUP3 AND DUP4 DUP3 ADD SWAP1 DUP2 MSTORE PUSH1 0x0 SWAP2 SWAP1 DUP3 SWAP1 DUP3 SWAP1 DUP2 SWAP1 PUSH1 0x20 ADD SUB DUP2 DUP4 DUP10 GAS CALL DUP1 ISZERO PUSH2 0x698 JUMPI PUSH2 0x311C JUMPI JUMPDEST POP PUSH1 0x40 MLOAD PUSH4 0xC287FC73 PUSH1 0xE0 SHL DUP2 MSTORE SWAP4 PUSH1 0x20 SWAP3 DUP4 DUP7 DUP7 DUP2 DUP6 GAS STATICCALL SWAP6 DUP7 ISZERO PUSH2 0x698 JUMPI DUP4 SWAP7 PUSH2 0x30FD JUMPI JUMPDEST POP DUP6 SWAP8 SLOAD PUSH1 0x46 DUP2 GT PUSH2 0x2FE5 JUMPI JUMPDEST POP POP POP POP POP POP POP PUSH1 0x8 SWAP2 SWAP3 POP ADD SSTORE JUMP JUMPDEST PUSH1 0x5A SWAP2 SWAP3 SWAP4 SWAP5 SWAP6 SWAP7 SWAP9 POP GT SWAP1 DUP3 EXTCODESIZE ISZERO PUSH2 0x30F9 JUMPI SWAP1 DUP4 DUP2 DUP11 SWAP5 SWAP4 PUSH2 0x301B PUSH1 0x40 MLOAD SWAP7 DUP8 SWAP4 DUP5 SWAP4 PUSH4 0x2E9423AB PUSH1 0xE2 SHL DUP6 MSTORE DUP13 DUP6 ADD PUSH2 0x2EA1 JUMP JUMPDEST SUB DUP2 DUP4 DUP7 GAS CALL SWAP3 DUP4 ISZERO PUSH2 0x698 JUMPI DUP6 SWAP4 PUSH2 0x30E6 JUMPI JUMPDEST POP ISZERO PUSH2 0x30AF JUMPI PUSH1 0x40 MLOAD PUSH4 0x7AFAA861 PUSH1 0xE1 SHL DUP2 MSTORE SWAP5 DUP6 SWAP2 DUP3 SWAP1 GAS STATICCALL SWAP5 DUP6 ISZERO PUSH2 0x698 JUMPI PUSH1 0x8 SWAP6 PUSH2 0x3085 SWAP5 PUSH2 0x3073 SWAP5 PUSH2 0x306D SWAP5 SWAP3 PUSH2 0x3092 JUMPI JUMPDEST POP POP SWAP1 PUSH2 0x2ED9 JUMP JUMPDEST SWAP5 PUSH2 0xBAA JUMP JUMPDEST PUSH2 0x307F PUSH1 0x3 DUP5 ADD PUSH2 0xBAA JUMP JUMPDEST SWAP1 PUSH2 0x316B JUMP JUMPDEST DUP3 SWAP2 CODESIZE DUP1 DUP1 DUP1 DUP1 DUP1 PUSH2 0x2FD5 JUMP JUMPDEST PUSH2 0x30A8 SWAP3 POP DUP1 RETURNDATASIZE LT PUSH2 0x691 JUMPI PUSH2 0x683 DUP2 DUP4 PUSH2 0x3C9 JUMP JUMPDEST CODESIZE DUP1 PUSH2 0x3065 JUMP JUMPDEST PUSH1 0x40 MLOAD PUSH4 0xC4A5B743 PUSH1 0xE0 SHL DUP2 MSTORE SWAP5 DUP6 SWAP2 DUP3 SWAP1 GAS STATICCALL SWAP5 DUP6 ISZERO PUSH2 0x698 JUMPI PUSH1 0x8 SWAP6 PUSH2 0x3085 SWAP5 PUSH2 0x3073 SWAP5 PUSH2 0x306D SWAP5 SWAP3 PUSH2 0x3092 JUMPI POP POP SWAP1 PUSH2 0x2ED9 JUMP JUMPDEST DUP1 PUSH2 0x6AA PUSH2 0x30F3 SWAP3 PUSH2 0x344 JUMP JUMPDEST CODESIZE PUSH2 0x302F JUMP JUMPDEST DUP4 DUP1 REVERT JUMPDEST PUSH2 0x3115 SWAP2 SWAP7 POP DUP5 RETURNDATASIZE DUP7 GT PUSH2 0x691 JUMPI PUSH2 0x683 DUP2 DUP4 PUSH2 0x3C9 JUMP JUMPDEST SWAP5 CODESIZE PUSH2 0x2FC8 JUMP JUMPDEST DUP1 PUSH2 0x6AA PUSH2 0x3129 SWAP3 PUSH2 0x344 JUMP JUMPDEST CODESIZE PUSH2 0x2FA1 JUMP JUMPDEST PUSH2 0x3147 SWAP1 PUSH1 0x20 PUSH1 0x40 MLOAD SWAP3 DUP3 DUP5 DUP1 SWAP5 MLOAD SWAP4 DUP5 SWAP3 ADD PUSH2 0xBC5 JUMP JUMPDEST DUP2 ADD SUB SWAP1 KECCAK256 SWAP1 JUMP JUMPDEST SWAP3 SWAP2 SWAP1 PUSH2 0x3166 PUSH1 0x20 SWAP2 PUSH1 0x40 DUP7 MSTORE PUSH1 0x40 DUP7 ADD SWAP1 PUSH2 0xBE8 JUMP JUMPDEST SWAP4 ADD MSTORE JUMP JUMPDEST PUSH1 0x2 PUSH1 0x40 MLOAD PUSH2 0x31A8 DUP2 PUSH2 0x319A PUSH2 0x3194 PUSH2 0x3187 PUSH1 0x20 DUP5 ADD DUP9 PUSH2 0x1443 JUMP JUMPDEST PUSH1 0x5F PUSH1 0xF8 SHL DUP2 MSTORE PUSH1 0x1 ADD SWAP1 JUMP JUMPDEST DUP8 PUSH2 0x1443 JUMP JUMPDEST SUB PUSH1 0x1F NOT DUP2 ADD DUP4 MSTORE DUP3 PUSH2 0x3C9 JUMP JUMPDEST PUSH2 0x31B1 DUP2 PUSH2 0x1480 JUMP JUMPDEST SWAP1 PUSH1 0x5 DUP3 ADD SWAP1 PUSH2 0x31C5 PUSH2 0x1305 DUP4 SLOAD PUSH1 0xFF AND SWAP1 JUMP JUMPDEST ISZERO PUSH2 0x325C JUMPI PUSH2 0x3208 PUSH2 0x320D SWAP3 PUSH2 0x31DB DUP8 DUP7 PUSH2 0x24D8 JUMP JUMPDEST PUSH2 0x31E8 DUP9 PUSH1 0x1 DUP8 ADD PUSH2 0x24D8 JUMP JUMPDEST PUSH1 0x1 DUP6 DUP8 ADD SSTORE TIMESTAMP PUSH1 0x3 DUP7 ADD SSTORE PUSH1 0x1 PUSH1 0x4 DUP7 ADD SSTORE DUP1 SLOAD PUSH1 0xFF NOT AND PUSH1 0x1 OR SWAP1 SSTORE JUMP JUMPDEST PUSH2 0x294F JUMP JUMPDEST ADD SLOAD PUSH1 0x2 DUP2 LT ISZERO PUSH2 0x321D JUMPI POP POP POP JUMP JUMPDEST PUSH2 0x3247 PUSH32 0x880D252FC51A53B2A4A12178E75A01B3D083A590C92550A883CCB4BEF6EA4D83 SWAP3 PUSH2 0x312F JUMP JUMPDEST SWAP3 PUSH2 0x3257 PUSH1 0x40 MLOAD SWAP3 DUP4 SWAP3 DUP4 PUSH2 0x314F JUMP JUMPDEST SUB SWAP1 LOG2 JUMP JUMPDEST POP POP PUSH1 0x4 DUP2 ADD PUSH2 0x326C DUP2 SLOAD PUSH2 0x2C99 JUMP JUMPDEST DUP1 SWAP2 SSTORE PUSH1 0x0 SWAP1 PUSH1 0x5 DUP2 GT PUSH1 0x0 EQ PUSH2 0x328E JUMPI POP POP PUSH1 0xFF PUSH1 0x3 JUMPDEST AND DUP3 DUP3 ADD SSTORE PUSH2 0x320D JUMP JUMPDEST DUP4 SWAP2 POP GT PUSH1 0x0 EQ PUSH2 0x32A1 JUMPI PUSH1 0xFF DUP3 PUSH2 0x3284 JUMP JUMPDEST PUSH1 0xFF PUSH1 0x1 PUSH2 0x3284 JUMP JUMPDEST PUSH1 0x40 MLOAD SWAP1 PUSH2 0x32B7 DUP3 PUSH2 0x378 JUMP JUMPDEST PUSH1 0xC DUP3 MSTORE PUSH12 0x31B7B232A637B1B0BA34B7B7 PUSH1 0xA1 SHL PUSH1 0x20 DUP4 ADD MSTORE JUMP JUMPDEST PUSH4 0x4E487B71 PUSH1 0xE0 SHL PUSH1 0x0 MSTORE PUSH1 0x21 PUSH1 0x4 MSTORE PUSH1 0x24 PUSH1 0x0 REVERT JUMPDEST PUSH1 0x3 GT ISZERO PUSH2 0x32F2 JUMPI JUMP JUMPDEST PUSH2 0x32D2 JUMP JUMPDEST PUSH1 0x40 MLOAD SWAP1 PUSH2 0x3304 DUP3 PUSH2 0x378 JUMP JUMPDEST PUSH1 0x8 DUP3 MSTORE PUSH8 0x6C616E6775616765 PUSH1 0xC0 SHL PUSH1 0x20 DUP4 ADD MSTORE JUMP JUMPDEST PUSH1 0x1 GT ISZERO PUSH2 0x32F2 JUMPI JUMP JUMPDEST PUSH1 0x40 MLOAD SWAP1 PUSH2 0x3332 DUP3 PUSH2 0x378 JUMP JUMPDEST PUSH1 0x6 DUP3 MSTORE PUSH6 0x736F75726365 PUSH1 0xD0 SHL PUSH1 0x20 DUP4 ADD MSTORE JUMP JUMPDEST PUSH1 0x40 MLOAD SWAP1 PUSH2 0x3354 DUP3 PUSH2 0x378 JUMP JUMPDEST PUSH1 0x4 DUP3 MSTORE PUSH4 0x61726773 PUSH1 0xE0 SHL PUSH1 0x20 DUP4 ADD MSTORE JUMP JUMPDEST PUSH1 0x40 MLOAD SWAP1 PUSH2 0x3374 DUP3 PUSH2 0x378 JUMP JUMPDEST PUSH1 0xF DUP3 MSTORE PUSH15 0x39B2B1B932BA39A637B1B0BA34B7B7 PUSH1 0x89 SHL PUSH1 0x20 DUP4 ADD MSTORE JUMP JUMPDEST PUSH1 0x40 MLOAD SWAP1 PUSH2 0x339F DUP3 PUSH2 0x378 JUMP JUMPDEST PUSH1 0x7 DUP3 MSTORE PUSH7 0x73656372657473 PUSH1 0xC8 SHL PUSH1 0x20 DUP4 ADD MSTORE JUMP JUMPDEST PUSH1 0x40 MLOAD SWAP1 PUSH2 0x33C2 DUP3 PUSH2 0x378 JUMP JUMPDEST PUSH1 0x9 DUP3 MSTORE PUSH9 0x627974657341726773 PUSH1 0xB8 SHL PUSH1 0x20 DUP4 ADD MSTORE JUMP JUMPDEST PUSH2 0x33E2 PUSH2 0x35C2 JUMP JUMPDEST SWAP1 PUSH2 0x33F4 PUSH2 0x33EE PUSH2 0x32AA JUMP JUMPDEST DUP4 PUSH2 0x3775 JUMP JUMPDEST PUSH2 0x3411 DUP2 MLOAD PUSH2 0x3402 DUP2 PUSH2 0x32E8 JUMP JUMPDEST PUSH2 0x340B DUP2 PUSH2 0x32E8 JUMP JUMPDEST DUP4 PUSH2 0x3612 JUMP JUMPDEST PUSH2 0x341C PUSH2 0x33EE PUSH2 0x32F7 JUMP JUMPDEST PUSH2 0x3436 PUSH1 0x40 DUP3 ADD MLOAD PUSH2 0x342D DUP2 PUSH2 0x331B JUMP JUMPDEST PUSH2 0x340B DUP2 PUSH2 0x331B JUMP JUMPDEST PUSH2 0x3441 PUSH2 0x33EE PUSH2 0x3325 JUMP JUMPDEST PUSH2 0x344F PUSH1 0x60 DUP3 ADD MLOAD DUP4 PUSH2 0x3775 JUMP JUMPDEST PUSH1 0xA0 DUP2 ADD DUP1 MLOAD MLOAD PUSH2 0x354F JUMPI JUMPDEST POP PUSH1 0x80 DUP2 ADD SWAP1 DUP2 MLOAD MLOAD PUSH2 0x34CF JUMPI JUMPDEST PUSH1 0xC0 SWAP2 POP ADD DUP1 MLOAD MLOAD PUSH2 0x347C JUMPI JUMPDEST POP MLOAD MLOAD SWAP1 JUMP JUMPDEST SWAP2 PUSH2 0x3488 PUSH2 0x33EE PUSH2 0x33B5 JUMP JUMPDEST PUSH2 0x3491 DUP3 PUSH2 0x37F9 JUMP JUMPDEST PUSH1 0x0 JUMPDEST DUP4 MLOAD DUP1 MLOAD DUP3 LT ISZERO PUSH2 0x34BC JUMPI SWAP1 PUSH2 0x1229 PUSH2 0x34B0 DUP3 PUSH2 0x34B7 SWAP5 PUSH2 0x2455 JUMP JUMPDEST MLOAD DUP6 PUSH2 0x36B3 JUMP JUMPDEST PUSH2 0x3494 JUMP JUMPDEST POP POP SWAP2 POP PUSH2 0x34C9 DUP2 PUSH2 0x3885 JUMP JUMPDEST CODESIZE PUSH2 0x3476 JUMP JUMPDEST PUSH1 0x20 DUP2 ADD DUP1 MLOAD PUSH2 0x34DE DUP2 PUSH2 0x32E8 JUMP JUMPDEST PUSH2 0x34E7 DUP2 PUSH2 0x32E8 JUMP JUMPDEST ISZERO PUSH2 0x353D JUMPI PUSH1 0xC0 SWAP3 PUSH2 0x3520 PUSH2 0x3538 SWAP3 PUSH2 0x3507 PUSH2 0x3501 PUSH2 0x3367 JUMP JUMPDEST DUP9 PUSH2 0x3775 JUMP JUMPDEST MLOAD PUSH2 0x3511 DUP2 PUSH2 0x32E8 JUMP JUMPDEST PUSH2 0x351A DUP2 PUSH2 0x32E8 JUMP JUMPDEST DUP7 PUSH2 0x3612 JUMP JUMPDEST PUSH2 0x3531 PUSH2 0x352B PUSH2 0x3392 JUMP JUMPDEST DUP7 PUSH2 0x3775 JUMP JUMPDEST MLOAD DUP5 PUSH2 0x36B3 JUMP JUMPDEST PUSH2 0x3469 JUMP JUMPDEST PUSH1 0x40 MLOAD PUSH4 0xA80D31F7 PUSH1 0xE0 SHL DUP2 MSTORE PUSH1 0x4 SWAP1 REVERT JUMPDEST SWAP3 PUSH2 0x3561 PUSH2 0x355B PUSH2 0x3347 JUMP JUMPDEST DUP5 PUSH2 0x3775 JUMP JUMPDEST PUSH2 0x356A DUP4 PUSH2 0x37F9 JUMP JUMPDEST PUSH1 0x0 JUMPDEST DUP5 MLOAD DUP1 MLOAD DUP3 LT ISZERO PUSH2 0x3595 JUMPI SWAP1 PUSH2 0x1229 PUSH2 0x3589 DUP3 PUSH2 0x3590 SWAP5 PUSH2 0x2455 JUMP JUMPDEST MLOAD DUP7 PUSH2 0x3775 JUMP JUMPDEST PUSH2 0x356D JUMP JUMPDEST POP POP SWAP3 POP PUSH2 0x35A2 DUP3 PUSH2 0x3885 JUMP JUMPDEST CODESIZE PUSH2 0x345B JUMP JUMPDEST PUSH1 0x40 MLOAD SWAP1 PUSH2 0x35B5 DUP3 PUSH2 0x378 JUMP JUMPDEST PUSH1 0x0 PUSH1 0x20 DUP4 PUSH1 0x60 DUP2 MSTORE ADD MSTORE JUMP JUMPDEST PUSH1 0x40 MLOAD PUSH2 0x35CE DUP2 PUSH2 0x378 JUMP JUMPDEST PUSH2 0x35D6 PUSH2 0x35A8 JUMP JUMPDEST DUP1 DUP3 MSTORE PUSH1 0x20 DUP3 ADD PUSH1 0x0 DUP2 MSTORE PUSH2 0x35E9 PUSH2 0x35A8 JUMP JUMPDEST POP PUSH2 0x100 PUSH1 0x20 DUP4 ADD MSTORE PUSH1 0x40 MLOAD DUP1 SWAP3 MSTORE PUSH1 0x0 DUP3 MSTORE PUSH2 0x120 DUP3 ADD SWAP2 DUP3 LT PUSH2 0x302 JUMPI PUSH1 0x0 SWAP2 PUSH1 0x40 MSTORE MSTORE SWAP1 JUMP JUMPDEST SWAP1 DUP2 MLOAD SWAP2 PUSH2 0x361E PUSH2 0x35A8 JUMP JUMPDEST POP DUP3 MLOAD MLOAD PUSH1 0x1 DUP2 ADD SWAP1 DUP2 DUP2 GT PUSH2 0x16F9 JUMPI PUSH1 0x20 DUP6 ADD MLOAD DUP2 LT ISZERO PUSH2 0x3677 JUMPI JUMPDEST PUSH1 0xC2 PUSH1 0x20 PUSH2 0x3F7 SWAP7 MLOAD SWAP3 DUP4 ADD ADD MSTORE8 DUP1 MLOAD DUP3 GT PUSH2 0x366F JUMPI JUMPDEST POP POP PUSH1 0x40 MLOAD SWAP2 PUSH1 0x20 DUP4 ADD MSTORE PUSH1 0x20 DUP3 MSTORE PUSH2 0x366A DUP3 PUSH2 0x378 JUMP JUMPDEST PUSH2 0x36B3 JUMP JUMPDEST MSTORE CODESIZE DUP1 PUSH2 0x3652 JUMP JUMPDEST DUP2 PUSH1 0x1 SHL SWAP5 DUP3 DUP7 DIV PUSH1 0x2 EQ DUP4 ISZERO OR ISZERO PUSH2 0x16F9 JUMPI PUSH1 0x20 DUP2 PUSH2 0x36A9 PUSH2 0x3F7 SWAP9 PUSH2 0x36A2 PUSH1 0xC2 SWAP6 MLOAD SWAP2 DUP5 PUSH2 0x3912 JUMP JUMPDEST POP DUP3 PUSH2 0x3964 JUMP JUMPDEST POP SWAP7 POP POP POP PUSH2 0x363B JUMP JUMPDEST DUP2 MLOAD PUSH2 0x36F7 SWAP3 SWAP2 SWAP1 PUSH1 0x1 PUSH1 0x1 PUSH1 0x40 SHL SUB DUP2 AND SWAP1 PUSH1 0x17 DUP3 GT PUSH2 0x36FA JUMPI PUSH2 0x36E2 SWAP2 POP PUSH1 0x40 PUSH1 0xFF DUP5 MLOAD SWAP3 AND OR SWAP1 PUSH2 0x3E12 JUMP JUMPDEST POP JUMPDEST MLOAD SWAP1 PUSH2 0x36EE PUSH2 0x35A8 JUMP JUMPDEST POP DUP1 MLOAD SWAP2 PUSH2 0x3A28 JUMP JUMPDEST POP JUMP JUMPDEST POP PUSH1 0xFF DUP2 GT PUSH2 0x371F JUMPI PUSH2 0x3719 SWAP1 PUSH2 0x3711 DUP4 MLOAD PUSH2 0x3C19 JUMP JUMPDEST POP DUP3 MLOAD PUSH2 0x3FCE JUMP JUMPDEST POP PUSH2 0x36E4 JUMP JUMPDEST PUSH2 0xFFFF DUP2 GT PUSH2 0x373E JUMPI PUSH2 0x3719 SWAP1 PUSH2 0x3736 DUP4 MLOAD PUSH2 0x3BB4 JUMP JUMPDEST POP DUP3 MLOAD PUSH2 0x3F60 JUMP JUMPDEST PUSH4 0xFFFFFFFF DUP2 GT PUSH2 0x375F JUMPI PUSH2 0x3719 SWAP1 PUSH2 0x3757 DUP4 MLOAD PUSH2 0x3B4F JUMP JUMPDEST POP DUP3 MLOAD PUSH2 0x3EF0 JUMP JUMPDEST PUSH2 0x3719 SWAP1 PUSH2 0x376D DUP4 MLOAD PUSH2 0x3ADF JUMP JUMPDEST POP DUP3 MLOAD PUSH2 0x3E7D JUMP JUMPDEST DUP2 MLOAD PUSH2 0x36F7 SWAP3 SWAP2 SWAP1 PUSH1 0x1 PUSH1 0x1 PUSH1 0x40 SHL SUB DUP2 AND SWAP1 PUSH1 0x17 DUP3 GT PUSH2 0x37A4 JUMPI PUSH2 0x36E2 SWAP2 POP PUSH1 0x60 PUSH1 0xFF DUP5 MLOAD SWAP3 AND OR SWAP1 PUSH2 0x3E12 JUMP JUMPDEST POP PUSH1 0xFF DUP2 GT PUSH2 0x37BB JUMPI PUSH2 0x3719 SWAP1 PUSH2 0x3711 DUP4 MLOAD PUSH2 0x3DAD JUMP JUMPDEST PUSH2 0xFFFF DUP2 GT PUSH2 0x37D2 JUMPI PUSH2 0x3719 SWAP1 PUSH2 0x3736 DUP4 MLOAD PUSH2 0x3D48 JUMP JUMPDEST PUSH4 0xFFFFFFFF DUP2 GT PUSH2 0x37EB JUMPI PUSH2 0x3719 SWAP1 PUSH2 0x3757 DUP4 MLOAD PUSH2 0x3CE3 JUMP JUMPDEST PUSH2 0x3719 SWAP1 PUSH2 0x376D DUP4 MLOAD PUSH2 0x3C7E JUMP JUMPDEST DUP1 MLOAD SWAP1 PUSH2 0x3804 PUSH2 0x35A8 JUMP JUMPDEST POP DUP2 MLOAD MLOAD PUSH1 0x1 DUP2 ADD SWAP1 DUP2 DUP2 GT PUSH2 0x16F9 JUMPI PUSH1 0x20 DUP5 ADD MLOAD DUP2 LT ISZERO PUSH2 0x3852 JUMPI JUMPDEST PUSH1 0x9F PUSH1 0x20 DUP1 SWAP6 MLOAD SWAP3 DUP4 ADD ADD MSTORE8 DUP1 MLOAD DUP3 GT PUSH2 0x384A JUMPI JUMPDEST POP POP ADD DUP1 MLOAD SWAP1 PUSH1 0x1 DUP3 ADD DUP1 SWAP3 GT PUSH2 0x16F9 JUMPI MSTORE JUMP JUMPDEST MSTORE CODESIZE DUP1 PUSH2 0x3836 JUMP JUMPDEST DUP2 PUSH1 0x1 SHL SWAP4 DUP3 DUP6 DIV PUSH1 0x2 EQ DUP4 ISZERO OR ISZERO PUSH2 0x16F9 JUMPI PUSH1 0x20 DUP2 PUSH2 0x387B DUP3 SWAP8 PUSH2 0x36A2 PUSH1 0x9F SWAP6 MLOAD SWAP2 DUP5 PUSH2 0x3912 JUMP JUMPDEST POP SWAP6 POP POP POP PUSH2 0x3821 JUMP JUMPDEST DUP1 MLOAD SWAP1 PUSH2 0x3890 PUSH2 0x35A8 JUMP JUMPDEST POP DUP2 MLOAD MLOAD PUSH1 0x1 DUP2 ADD SWAP1 DUP2 DUP2 GT PUSH2 0x16F9 JUMPI PUSH1 0x20 DUP5 ADD MLOAD DUP2 LT ISZERO PUSH2 0x38DF JUMPI JUMPDEST PUSH1 0xFF PUSH1 0x20 DUP1 SWAP6 MLOAD SWAP3 DUP4 ADD ADD MSTORE8 DUP1 MLOAD DUP3 GT PUSH2 0x38D7 JUMPI JUMPDEST POP POP ADD DUP1 MLOAD PUSH1 0x0 NOT DUP2 ADD SWAP2 SWAP1 DUP3 GT PUSH2 0x16F9 JUMPI MSTORE JUMP JUMPDEST MSTORE CODESIZE DUP1 PUSH2 0x38C2 JUMP JUMPDEST DUP2 PUSH1 0x1 SHL SWAP4 DUP3 DUP6 DIV PUSH1 0x2 EQ DUP4 ISZERO OR ISZERO PUSH2 0x16F9 JUMPI PUSH1 0x20 DUP2 PUSH2 0x3908 DUP3 SWAP8 PUSH2 0x36A2 PUSH1 0xFF SWAP6 MLOAD SWAP2 DUP5 PUSH2 0x3912 JUMP JUMPDEST POP SWAP6 POP POP POP PUSH2 0x38AD JUMP JUMPDEST SWAP1 PUSH2 0x391B PUSH2 0x35A8 JUMP JUMPDEST POP PUSH1 0x1F DUP2 AND DUP1 PUSH2 0x394A JUMPI JUMPDEST POP DUP1 PUSH1 0x20 DUP4 ADD MSTORE PUSH1 0x40 MLOAD SWAP1 DUP2 DUP4 MSTORE PUSH1 0x0 DUP3 MSTORE DUP2 ADD PUSH1 0x20 ADD SWAP1 DUP2 LT PUSH2 0x302 JUMPI PUSH1 0x40 MSTORE SWAP1 JUMP JUMPDEST PUSH1 0x20 SUB PUSH1 0x20 DUP2 GT PUSH2 0x16F9 JUMPI DUP2 ADD DUP1 SWAP2 GT PUSH2 0x16F9 JUMPI CODESIZE PUSH2 0x3926 JUMP JUMPDEST SWAP1 PUSH2 0x396D PUSH2 0x35A8 JUMP JUMPDEST POP DUP1 MLOAD PUSH2 0x3978 PUSH2 0x35A8 JUMP JUMPDEST POP PUSH2 0x3986 DUP3 MLOAD DUP3 GT ISZERO PUSH2 0x3A21 JUMP JUMPDEST DUP3 MLOAD MLOAD SWAP2 PUSH2 0x3994 DUP3 DUP5 PUSH2 0x2ED9 JUMP JUMPDEST PUSH1 0x20 SWAP2 DUP3 SWAP2 DUP3 DUP8 ADD MLOAD DUP2 GT PUSH2 0x3A0A JUMPI JUMPDEST DUP7 MLOAD DUP4 DUP2 MLOAD SWAP8 DUP3 ADD ADD SWAP7 DUP3 GT PUSH2 0x3A02 JUMPI JUMPDEST POP POP ADD SWAP2 JUMPDEST DUP2 DUP2 LT ISZERO PUSH2 0x39DC JUMPI PUSH1 0x0 NOT SWAP2 SUB PUSH2 0x100 EXP ADD SWAP1 DUP2 NOT SWAP1 MLOAD AND SWAP1 DUP3 MLOAD AND OR SWAP1 MSTORE SWAP1 JUMP JUMPDEST SWAP2 SWAP3 PUSH2 0x39F7 PUSH2 0x39F1 PUSH2 0x39FD SWAP3 DUP7 MLOAD DUP2 MSTORE PUSH2 0x2ECB JUMP JUMPDEST SWAP5 PUSH2 0x2ECB JUMP JUMPDEST SWAP3 PUSH2 0x2C3D JUMP JUMPDEST PUSH2 0x39BA JUMP JUMPDEST MSTORE CODESIZE DUP1 PUSH2 0x39B5 JUMP JUMPDEST PUSH2 0x3A1C PUSH2 0x3A16 DUP3 PUSH2 0x2B14 JUMP JUMPDEST DUP9 PUSH2 0x3AC8 JUMP JUMPDEST PUSH2 0x39A4 JUMP JUMPDEST ISZERO PUSH2 0x302 JUMPI JUMP JUMPDEST SWAP2 PUSH2 0x3A31 PUSH2 0x35A8 JUMP JUMPDEST POP PUSH2 0x3A3F DUP3 MLOAD DUP3 GT ISZERO PUSH2 0x3A21 JUMP JUMPDEST DUP3 MLOAD MLOAD SWAP2 PUSH2 0x3A4D DUP3 DUP5 PUSH2 0x2ED9 JUMP JUMPDEST PUSH1 0x20 SWAP2 DUP3 SWAP2 DUP3 DUP8 ADD MLOAD DUP2 GT PUSH2 0x3AB7 JUMPI JUMPDEST DUP7 MLOAD DUP4 DUP2 MLOAD SWAP8 DUP3 ADD ADD SWAP7 DUP3 GT PUSH2 0x3AAF JUMPI JUMPDEST POP POP ADD SWAP2 JUMPDEST DUP2 DUP2 LT ISZERO PUSH2 0x3A95 JUMPI PUSH1 0x0 NOT SWAP2 SUB PUSH2 0x100 EXP ADD SWAP1 DUP2 NOT SWAP1 MLOAD AND SWAP1 DUP3 MLOAD AND OR SWAP1 MSTORE SWAP1 JUMP JUMPDEST SWAP2 SWAP3 PUSH2 0x39F7 PUSH2 0x39F1 PUSH2 0x3AAA SWAP3 DUP7 MLOAD DUP2 MSTORE PUSH2 0x2ECB JUMP JUMPDEST PUSH2 0x3A73 JUMP JUMPDEST MSTORE CODESIZE DUP1 PUSH2 0x3A6E JUMP JUMPDEST PUSH2 0x3AC3 PUSH2 0x3A16 DUP3 PUSH2 0x2B14 JUMP JUMPDEST PUSH2 0x3A5D JUMP JUMPDEST SWAP1 PUSH2 0x36F7 SWAP2 PUSH2 0x3AD9 DUP2 MLOAD SWAP3 DUP3 PUSH2 0x3912 JUMP JUMPDEST POP PUSH2 0x3964 JUMP JUMPDEST PUSH2 0x3AE7 PUSH2 0x35A8 JUMP JUMPDEST POP DUP1 MLOAD MLOAD PUSH1 0x1 DUP2 ADD SWAP1 DUP2 DUP2 GT PUSH2 0x16F9 JUMPI PUSH1 0x20 DUP4 ADD MLOAD DUP2 LT ISZERO PUSH2 0x3B20 JUMPI JUMPDEST PUSH1 0x5B PUSH1 0x20 DUP5 MLOAD SWAP3 DUP4 ADD ADD MSTORE8 DUP1 MLOAD DUP3 GT PUSH2 0x3B1C JUMPI POP POP SWAP1 JUMP JUMPDEST MSTORE SWAP1 JUMP JUMPDEST DUP2 PUSH1 0x1 SHL DUP3 DUP2 DIV PUSH1 0x2 EQ DUP4 ISZERO OR ISZERO PUSH2 0x16F9 JUMPI PUSH2 0x3B49 SWAP1 PUSH2 0x3B42 DUP6 MLOAD SWAP2 DUP7 PUSH2 0x3912 JUMP JUMPDEST POP DUP5 PUSH2 0x3964 JUMP JUMPDEST POP PUSH2 0x3B04 JUMP JUMPDEST PUSH2 0x3B57 PUSH2 0x35A8 JUMP JUMPDEST POP DUP1 MLOAD MLOAD PUSH1 0x1 DUP2 ADD SWAP1 DUP2 DUP2 GT PUSH2 0x16F9 JUMPI PUSH1 0x20 DUP4 ADD MLOAD DUP2 LT ISZERO PUSH2 0x3B8C JUMPI JUMPDEST PUSH1 0x5A PUSH1 0x20 DUP5 MLOAD SWAP3 DUP4 ADD ADD MSTORE8 DUP1 MLOAD DUP3 GT PUSH2 0x3B1C JUMPI POP POP SWAP1 JUMP JUMPDEST DUP2 PUSH1 0x1 SHL DUP3 DUP2 DIV PUSH1 0x2 EQ DUP4 ISZERO OR ISZERO PUSH2 0x16F9 JUMPI PUSH2 0x3BAE SWAP1 PUSH2 0x3B42 DUP6 MLOAD SWAP2 DUP7 PUSH2 0x3912 JUMP JUMPDEST POP PUSH2 0x3B74 JUMP JUMPDEST PUSH2 0x3BBC PUSH2 0x35A8 JUMP JUMPDEST POP DUP1 MLOAD MLOAD PUSH1 0x1 DUP2 ADD SWAP1 DUP2 DUP2 GT PUSH2 0x16F9 JUMPI PUSH1 0x20 DUP4 ADD MLOAD DUP2 LT ISZERO PUSH2 0x3BF1 JUMPI JUMPDEST PUSH1 0x59 PUSH1 0x20 DUP5 MLOAD SWAP3 DUP4 ADD ADD MSTORE8 DUP1 MLOAD DUP3 GT PUSH2 0x3B1C JUMPI POP POP SWAP1 JUMP JUMPDEST DUP2 PUSH1 0x1 SHL DUP3 DUP2 DIV PUSH1 0x2 EQ DUP4 ISZERO OR ISZERO PUSH2 0x16F9 JUMPI PUSH2 0x3C13 SWAP1 PUSH2 0x3B42 DUP6 MLOAD SWAP2 DUP7 PUSH2 0x3912 JUMP JUMPDEST POP PUSH2 0x3BD9 JUMP JUMPDEST PUSH2 0x3C21 PUSH2 0x35A8 JUMP JUMPDEST POP DUP1 MLOAD MLOAD PUSH1 0x1 DUP2 ADD SWAP1 DUP2 DUP2 GT PUSH2 0x16F9 JUMPI PUSH1 0x20 DUP4 ADD MLOAD DUP2 LT ISZERO PUSH2 0x3C56 JUMPI JUMPDEST PUSH1 0x58 PUSH1 0x20 DUP5 MLOAD SWAP3 DUP4 ADD ADD MSTORE8 DUP1 MLOAD DUP3 GT PUSH2 0x3B1C JUMPI POP POP SWAP1 JUMP JUMPDEST DUP2 PUSH1 0x1 SHL DUP3 DUP2 DIV PUSH1 0x2 EQ DUP4 ISZERO OR ISZERO PUSH2 0x16F9 JUMPI PUSH2 0x3C78 SWAP1 PUSH2 0x3B42 DUP6 MLOAD SWAP2 DUP7 PUSH2 0x3912 JUMP JUMPDEST POP PUSH2 0x3C3E JUMP JUMPDEST PUSH2 0x3C86 PUSH2 0x35A8 JUMP JUMPDEST POP DUP1 MLOAD MLOAD PUSH1 0x1 DUP2 ADD SWAP1 DUP2 DUP2 GT PUSH2 0x16F9 JUMPI PUSH1 0x20 DUP4 ADD MLOAD DUP2 LT ISZERO PUSH2 0x3CBB JUMPI JUMPDEST PUSH1 0x7B PUSH1 0x20 DUP5 MLOAD SWAP3 DUP4 ADD ADD MSTORE8 DUP1 MLOAD DUP3 GT PUSH2 0x3B1C JUMPI POP POP SWAP1 JUMP JUMPDEST DUP2 PUSH1 0x1 SHL DUP3 DUP2 DIV PUSH1 0x2 EQ DUP4 ISZERO OR ISZERO PUSH2 0x16F9 JUMPI PUSH2 0x3CDD SWAP1 PUSH2 0x3B42 DUP6 MLOAD SWAP2 DUP7 PUSH2 0x3912 JUMP JUMPDEST POP PUSH2 0x3CA3 JUMP JUMPDEST PUSH2 0x3CEB PUSH2 0x35A8 JUMP JUMPDEST POP DUP1 MLOAD MLOAD PUSH1 0x1 DUP2 ADD SWAP1 DUP2 DUP2 GT PUSH2 0x16F9 JUMPI PUSH1 0x20 DUP4 ADD MLOAD DUP2 LT ISZERO PUSH2 0x3D20 JUMPI JUMPDEST PUSH1 0x7A PUSH1 0x20 DUP5 MLOAD SWAP3 DUP4 ADD ADD MSTORE8 DUP1 MLOAD DUP3 GT PUSH2 0x3B1C JUMPI POP POP SWAP1 JUMP JUMPDEST DUP2 PUSH1 0x1 SHL DUP3 DUP2 DIV PUSH1 0x2 EQ DUP4 ISZERO OR ISZERO PUSH2 0x16F9 JUMPI PUSH2 0x3D42 SWAP1 PUSH2 0x3B42 DUP6 MLOAD SWAP2 DUP7 PUSH2 0x3912 JUMP JUMPDEST POP PUSH2 0x3D08 JUMP JUMPDEST PUSH2 0x3D50 PUSH2 0x35A8 JUMP JUMPDEST POP DUP1 MLOAD MLOAD PUSH1 0x1 DUP2 ADD SWAP1 DUP2 DUP2 GT PUSH2 0x16F9 JUMPI PUSH1 0x20 DUP4 ADD MLOAD DUP2 LT ISZERO PUSH2 0x3D85 JUMPI JUMPDEST PUSH1 0x79 PUSH1 0x20 DUP5 MLOAD SWAP3 DUP4 ADD ADD MSTORE8 DUP1 MLOAD DUP3 GT PUSH2 0x3B1C JUMPI POP POP SWAP1 JUMP JUMPDEST DUP2 PUSH1 0x1 SHL DUP3 DUP2 DIV PUSH1 0x2 EQ DUP4 ISZERO OR ISZERO PUSH2 0x16F9 JUMPI PUSH2 0x3DA7 SWAP1 PUSH2 0x3B42 DUP6 MLOAD SWAP2 DUP7 PUSH2 0x3912 JUMP JUMPDEST POP PUSH2 0x3D6D JUMP JUMPDEST PUSH2 0x3DB5 PUSH2 0x35A8 JUMP JUMPDEST POP DUP1 MLOAD MLOAD PUSH1 0x1 DUP2 ADD SWAP1 DUP2 DUP2 GT PUSH2 0x16F9 JUMPI PUSH1 0x20 DUP4 ADD MLOAD DUP2 LT ISZERO PUSH2 0x3DEA JUMPI JUMPDEST PUSH1 0x78 PUSH1 0x20 DUP5 MLOAD SWAP3 DUP4 ADD ADD MSTORE8 DUP1 MLOAD DUP3 GT PUSH2 0x3B1C JUMPI POP POP SWAP1 JUMP JUMPDEST DUP2 PUSH1 0x1 SHL DUP3 DUP2 DIV PUSH1 0x2 EQ DUP4 ISZERO OR ISZERO PUSH2 0x16F9 JUMPI PUSH2 0x3E0C SWAP1 PUSH2 0x3B42 DUP6 MLOAD SWAP2 DUP7 PUSH2 0x3912 JUMP JUMPDEST POP PUSH2 0x3DD2 JUMP JUMPDEST SWAP1 PUSH2 0x3E1B PUSH2 0x35A8 JUMP JUMPDEST POP DUP2 MLOAD MLOAD PUSH1 0x1 DUP2 ADD SWAP2 DUP3 DUP3 GT PUSH2 0x16F9 JUMPI PUSH1 0x20 DUP5 ADD MLOAD DUP3 LT ISZERO PUSH2 0x3E4E JUMPI JUMPDEST PUSH1 0x20 DUP5 MLOAD SWAP3 DUP4 ADD ADD MSTORE8 DUP1 MLOAD DUP3 GT PUSH2 0x3B1C JUMPI POP POP SWAP1 JUMP JUMPDEST DUP3 PUSH1 0x1 SHL DUP4 DUP2 DIV PUSH1 0x2 EQ DUP5 ISZERO OR ISZERO PUSH2 0x16F9 JUMPI PUSH2 0x3E77 SWAP1 PUSH2 0x3E70 DUP7 MLOAD SWAP2 DUP8 PUSH2 0x3912 JUMP JUMPDEST POP DUP6 PUSH2 0x3964 JUMP JUMPDEST POP PUSH2 0x3E38 JUMP JUMPDEST SWAP1 PUSH2 0x3E86 PUSH2 0x35A8 JUMP JUMPDEST POP DUP2 MLOAD MLOAD DUP1 PUSH1 0x8 ADD SWAP2 DUP3 PUSH1 0x8 GT PUSH2 0x16F9 JUMPI PUSH1 0x20 DUP5 ADD MLOAD DUP4 GT PUSH2 0x3EC8 JUMPI JUMPDEST PUSH1 0x8 DUP5 MLOAD SWAP3 DUP4 ADD ADD SWAP1 PUSH1 0x1 PUSH1 0x1 PUSH1 0x40 SHL SUB NOT DUP3 MLOAD AND OR SWAP1 MSTORE DUP1 MLOAD DUP3 GT PUSH2 0x3B1C JUMPI POP POP SWAP1 JUMP JUMPDEST DUP3 PUSH1 0x1 SHL DUP4 DUP2 DIV PUSH1 0x2 EQ DUP5 ISZERO OR ISZERO PUSH2 0x16F9 JUMPI PUSH2 0x3EEA SWAP1 PUSH2 0x3E70 DUP7 MLOAD SWAP2 DUP8 PUSH2 0x3912 JUMP JUMPDEST POP PUSH2 0x3EA3 JUMP JUMPDEST SWAP1 PUSH2 0x3EF9 PUSH2 0x35A8 JUMP JUMPDEST POP DUP2 MLOAD MLOAD DUP1 PUSH1 0x4 ADD SWAP2 DUP3 PUSH1 0x4 GT PUSH2 0x16F9 JUMPI PUSH1 0x20 DUP5 ADD MLOAD DUP4 GT PUSH2 0x3F38 JUMPI JUMPDEST PUSH1 0x4 DUP5 MLOAD SWAP3 DUP4 ADD ADD SWAP1 PUSH4 0xFFFFFFFF NOT DUP3 MLOAD AND OR SWAP1 MSTORE DUP1 MLOAD DUP3 GT PUSH2 0x3B1C JUMPI POP POP SWAP1 JUMP JUMPDEST DUP3 PUSH1 0x1 SHL DUP4 DUP2 DIV PUSH1 0x2 EQ DUP5 ISZERO OR ISZERO PUSH2 0x16F9 JUMPI PUSH2 0x3F5A SWAP1 PUSH2 0x3E70 DUP7 MLOAD SWAP2 DUP8 PUSH2 0x3912 JUMP JUMPDEST POP PUSH2 0x3F16 JUMP JUMPDEST SWAP1 PUSH2 0x3F69 PUSH2 0x35A8 JUMP JUMPDEST POP DUP2 MLOAD MLOAD DUP1 PUSH1 0x2 ADD SWAP2 DUP3 PUSH1 0x2 GT PUSH2 0x16F9 JUMPI PUSH1 0x20 DUP5 ADD MLOAD DUP4 GT PUSH2 0x3FA6 JUMPI JUMPDEST PUSH1 0x2 DUP5 MLOAD SWAP3 DUP4 ADD ADD SWAP1 PUSH2 0xFFFF NOT DUP3 MLOAD AND OR SWAP1 MSTORE DUP1 MLOAD DUP3 GT PUSH2 0x3B1C JUMPI POP POP SWAP1 JUMP JUMPDEST DUP3 PUSH1 0x1 SHL DUP4 DUP2 DIV PUSH1 0x2 EQ DUP5 ISZERO OR ISZERO PUSH2 0x16F9 JUMPI PUSH2 0x3FC8 SWAP1 PUSH2 0x3E70 DUP7 MLOAD SWAP2 DUP8 PUSH2 0x3912 JUMP JUMPDEST POP PUSH2 0x3F86 JUMP JUMPDEST SWAP1 PUSH2 0x3FD7 PUSH2 0x35A8 JUMP JUMPDEST POP DUP2 MLOAD MLOAD DUP1 PUSH1 0x1 ADD SWAP2 DUP3 PUSH1 0x1 GT PUSH2 0x16F9 JUMPI PUSH1 0x20 DUP5 ADD MLOAD DUP4 GT PUSH2 0x4013 JUMPI JUMPDEST PUSH1 0x1 DUP5 MLOAD SWAP3 DUP4 ADD ADD SWAP1 PUSH1 0xFF NOT DUP3 MLOAD AND OR SWAP1 MSTORE DUP1 MLOAD DUP3 GT PUSH2 0x3B1C JUMPI POP POP SWAP1 JUMP JUMPDEST DUP3 PUSH1 0x1 SHL DUP4 DUP2 DIV PUSH1 0x2 EQ DUP5 ISZERO OR ISZERO PUSH2 0x16F9 JUMPI PUSH2 0x4035 SWAP1 PUSH2 0x3E70 DUP7 MLOAD SWAP2 DUP8 PUSH2 0x3912 JUMP JUMPDEST POP PUSH2 0x3FF4 JUMP JUMPDEST DUP2 MLOAD ISZERO PUSH2 0x4052 JUMPI PUSH1 0x0 DUP1 DUP3 MSTORE PUSH1 0x40 DUP3 ADD MSTORE PUSH1 0x60 ADD MSTORE JUMP JUMPDEST PUSH1 0x40 MLOAD PUSH4 0x22CE3EDD PUSH1 0xE0 SHL DUP2 MSTORE PUSH1 0x4 SWAP1 REVERT JUMPDEST DUP2 MLOAD ISZERO PUSH2 0x4071 JUMPI PUSH1 0xA0 ADD MSTORE JUMP JUMPDEST PUSH1 0x40 MLOAD PUSH4 0xFE936CB7 PUSH1 0xE0 SHL DUP2 MSTORE PUSH1 0x4 SWAP1 REVERT INVALID LOG2 PUSH5 0x6970667358 0x22 SLT KECCAK256 0xE9 SIGNEXTEND 0xBE 0x24 BALANCE 0xC1 0xBB SWAP13 PUSH3 0xE0F6CD PUSH32 0x7B12A72615101519D173A9DE5B5B8B090AC3E764736F6C634300081300330000 "},"methodIdentifiers":{"acceptOwnership()":"79ba5097","activeAlerts(uint256)":"e91a2688","activeTreatments(uint256)":"cbe2bfe3","agroToken()":"4bfccac4","allDetections(uint256)":"17964b1f","callbackGasLimit()":"24f74697","checkUpkeep(bytes)":"6e04ff0d","communityAlerts(string)":"8ea34860","communityAlertsSource()":"3cd3af69","completeTreatment(string,bool,uint256)":"4613c2e3","detections(bytes32)":"27e4e93c","donID()":"6e74336b","emergencyPause()":"51858e27","ethUsdPriceFeed()":"42f6fb29","gasLimit()":"f68016b7","getActiveCommunityAlerts()":"a6701d65","getUserDetections(address)":"0d46664c","handleOracleFulfillment(bytes32,bytes,bytes)":"0ca76175","keyHash()":"61728f39","lastUpkeepTime()":"d3386809","marketIntelligenceSource()":"3d9a7f90","numWords()":"7ccfd7fc","owner()":"8da5cb5b","pendingRequests(bytes32)":"2795ad20","performUpkeep(bytes)":"4585e33b","photoVerificationSource()":"fc2e6fc1","processPurchase(string,uint256)":"2f7c5411","purchaseOptimizationSource()":"b8f1ea28","rawFulfillRandomWords(uint256,uint256[])":"1fe543e3","requestConfirmations()":"b0fb162f","requestPhotoAnalysis(string,string,string,string,string,string)":"cb924866","requestRandomness()":"f8413b07","startTreatment(string,string,uint256)":"9c0e9137","subscriptionId()":"09c1ba2e","transferOwnership(address)":"f2fde38b","treatmentTrackingSource()":"4f49ae38","treatments(string)":"48e6cad6","updateConfig(uint32,uint256,bytes32,uint64)":"deff12a8","upkeepInterval()":"5a74373c","userAlertCount(address)":"d3c4e9e5","userPurchases(address,uint256)":"cf2c0334","vrfCoordinator()":"a3e56fa8","vrfRequests(uint256)":"1a1d9252","vrfSubscriptionId()":"ed647d21","weatherDataFeed()":"8662cfde","withdrawLink()":"8dc654a2"}}}}}