{
  "_format": "hh-sol-artifact-1",
  "contractName": "FunctionsRequest",
  "sourceName": "contracts/chainlink/functions/libraries/FunctionsRequest.sol",
  "abi": [
    {
      "inputs": [],
      "name": "EmptyArgs",
      "type": "error"
    },
    {
      "inputs": [],
      "name": "EmptySecrets",
      "type": "error"
    },
    {
      "inputs": [],
      "name": "EmptySource",
      "type": "error"
    },
    {
      "inputs": [],
      "name": "NoInlineSecrets",
      "type": "error"
    },
    {
      "inputs": [],
      "name": "REQUEST_DATA_VERSION",
      "outputs": [
        {
          "internalType": "uint16",
          "name": "",
          "type": "uint16"
        }
      ],
      "stateMutability": "view",
      "type": "function"
    }
  ],
  "bytecode": "0x608080604052346018576075908161001e823930815050f35b600080fdfe6080806040526004361015601257600080fd5b60003560e01c635d641dfc14602657600080fd5b6000366003190112603a5780600160209252f35b600080fdfea264697066735822122051c049f29e945a91648b6502e328205a00aeaabd512ba87bac058b9be94b01f164736f6c63430008130033",
  "linkReferences": {},
  "deployedLinkReferences": {}
}